{
  "contractName": "Characters",
  "abi": [
    {
      "inputs": [],
      "stateMutability": "nonpayable",
      "type": "constructor"
    },
    {
      "anonymous": false,
      "inputs": [
        {
          "indexed": true,
          "internalType": "address",
          "name": "owner",
          "type": "address"
        },
        {
          "indexed": true,
          "internalType": "address",
          "name": "approved",
          "type": "address"
        },
        {
          "indexed": true,
          "internalType": "uint256",
          "name": "tokenId",
          "type": "uint256"
        }
      ],
      "name": "Approval",
      "type": "event"
    },
    {
      "anonymous": false,
      "inputs": [
        {
          "indexed": true,
          "internalType": "address",
          "name": "owner",
          "type": "address"
        },
        {
          "indexed": true,
          "internalType": "address",
          "name": "operator",
          "type": "address"
        },
        {
          "indexed": false,
          "internalType": "bool",
          "name": "approved",
          "type": "bool"
        }
      ],
      "name": "ApprovalForAll",
      "type": "event"
    },
    {
      "anonymous": false,
      "inputs": [
        {
          "indexed": true,
          "internalType": "uint256",
          "name": "tokenID",
          "type": "uint256"
        },
        {
          "indexed": false,
          "internalType": "address",
          "name": "receiver",
          "type": "address"
        },
        {
          "indexed": true,
          "internalType": "uint8",
          "name": "rarity",
          "type": "uint8"
        },
        {
          "indexed": true,
          "internalType": "address",
          "name": "minter",
          "type": "address"
        }
      ],
      "name": "NewCharacter",
      "type": "event"
    },
    {
      "anonymous": false,
      "inputs": [
        {
          "indexed": false,
          "internalType": "address",
          "name": "account",
          "type": "address"
        }
      ],
      "name": "Paused",
      "type": "event"
    },
    {
      "anonymous": false,
      "inputs": [
        {
          "indexed": true,
          "internalType": "bytes32",
          "name": "role",
          "type": "bytes32"
        },
        {
          "indexed": true,
          "internalType": "bytes32",
          "name": "previousAdminRole",
          "type": "bytes32"
        },
        {
          "indexed": true,
          "internalType": "bytes32",
          "name": "newAdminRole",
          "type": "bytes32"
        }
      ],
      "name": "RoleAdminChanged",
      "type": "event"
    },
    {
      "anonymous": false,
      "inputs": [
        {
          "indexed": true,
          "internalType": "bytes32",
          "name": "role",
          "type": "bytes32"
        },
        {
          "indexed": true,
          "internalType": "address",
          "name": "account",
          "type": "address"
        },
        {
          "indexed": true,
          "internalType": "address",
          "name": "sender",
          "type": "address"
        }
      ],
      "name": "RoleGranted",
      "type": "event"
    },
    {
      "anonymous": false,
      "inputs": [
        {
          "indexed": true,
          "internalType": "bytes32",
          "name": "role",
          "type": "bytes32"
        },
        {
          "indexed": true,
          "internalType": "address",
          "name": "account",
          "type": "address"
        },
        {
          "indexed": true,
          "internalType": "address",
          "name": "sender",
          "type": "address"
        }
      ],
      "name": "RoleRevoked",
      "type": "event"
    },
    {
      "anonymous": false,
      "inputs": [
        {
          "indexed": true,
          "internalType": "address",
          "name": "from",
          "type": "address"
        },
        {
          "indexed": true,
          "internalType": "address",
          "name": "to",
          "type": "address"
        },
        {
          "indexed": true,
          "internalType": "uint256",
          "name": "tokenId",
          "type": "uint256"
        }
      ],
      "name": "Transfer",
      "type": "event"
    },
    {
      "anonymous": false,
      "inputs": [
        {
          "indexed": false,
          "internalType": "address",
          "name": "account",
          "type": "address"
        }
      ],
      "name": "Unpaused",
      "type": "event"
    },
    {
      "inputs": [],
      "name": "DEFAULT_ADMIN_ROLE",
      "outputs": [
        {
          "internalType": "bytes32",
          "name": "",
          "type": "bytes32"
        }
      ],
      "stateMutability": "view",
      "type": "function"
    },
    {
      "inputs": [],
      "name": "GAME_ADMIN",
      "outputs": [
        {
          "internalType": "bytes32",
          "name": "",
          "type": "bytes32"
        }
      ],
      "stateMutability": "view",
      "type": "function"
    },
    {
      "inputs": [],
      "name": "MINTER_ROLE",
      "outputs": [
        {
          "internalType": "bytes32",
          "name": "",
          "type": "bytes32"
        }
      ],
      "stateMutability": "view",
      "type": "function"
    },
    {
      "inputs": [],
      "name": "NO_OWNED_LIMIT",
      "outputs": [
        {
          "internalType": "bytes32",
          "name": "",
          "type": "bytes32"
        }
      ],
      "stateMutability": "view",
      "type": "function"
    },
    {
      "inputs": [],
      "name": "PAUSER_ROLE",
      "outputs": [
        {
          "internalType": "bytes32",
          "name": "",
          "type": "bytes32"
        }
      ],
      "stateMutability": "view",
      "type": "function"
    },
    {
      "inputs": [
        {
          "internalType": "address",
          "name": "to",
          "type": "address"
        },
        {
          "internalType": "uint256",
          "name": "tokenId",
          "type": "uint256"
        }
      ],
      "name": "approve",
      "outputs": [],
      "stateMutability": "nonpayable",
      "type": "function"
    },
    {
      "inputs": [
        {
          "internalType": "address",
          "name": "owner",
          "type": "address"
        }
      ],
      "name": "balanceOf",
      "outputs": [
        {
          "internalType": "uint256",
          "name": "",
          "type": "uint256"
        }
      ],
      "stateMutability": "view",
      "type": "function"
    },
    {
      "inputs": [
        {
          "internalType": "uint256",
          "name": "tokenId",
          "type": "uint256"
        }
      ],
      "name": "burn",
      "outputs": [],
      "stateMutability": "nonpayable",
      "type": "function"
    },
    {
      "inputs": [],
      "name": "characterLimit",
      "outputs": [
        {
          "internalType": "uint256",
          "name": "",
          "type": "uint256"
        }
      ],
      "stateMutability": "view",
      "type": "function"
    },
    {
      "inputs": [
        {
          "internalType": "uint256",
          "name": "tokenId",
          "type": "uint256"
        }
      ],
      "name": "getApproved",
      "outputs": [
        {
          "internalType": "address",
          "name": "",
          "type": "address"
        }
      ],
      "stateMutability": "view",
      "type": "function"
    },
    {
      "inputs": [
        {
          "internalType": "bytes32",
          "name": "role",
          "type": "bytes32"
        }
      ],
      "name": "getRoleAdmin",
      "outputs": [
        {
          "internalType": "bytes32",
          "name": "",
          "type": "bytes32"
        }
      ],
      "stateMutability": "view",
      "type": "function"
    },
    {
      "inputs": [
        {
          "internalType": "bytes32",
          "name": "role",
          "type": "bytes32"
        },
        {
          "internalType": "address",
          "name": "account",
          "type": "address"
        }
      ],
      "name": "grantRole",
      "outputs": [],
      "stateMutability": "nonpayable",
      "type": "function"
    },
    {
      "inputs": [
        {
          "internalType": "bytes32",
          "name": "role",
          "type": "bytes32"
        },
        {
          "internalType": "address",
          "name": "account",
          "type": "address"
        }
      ],
      "name": "hasRole",
      "outputs": [
        {
          "internalType": "bool",
          "name": "",
          "type": "bool"
        }
      ],
      "stateMutability": "view",
      "type": "function"
    },
    {
      "inputs": [
        {
          "internalType": "address",
          "name": "owner",
          "type": "address"
        },
        {
          "internalType": "address",
          "name": "operator",
          "type": "address"
        }
      ],
      "name": "isApprovedForAll",
      "outputs": [
        {
          "internalType": "bool",
          "name": "",
          "type": "bool"
        }
      ],
      "stateMutability": "view",
      "type": "function"
    },
    {
      "inputs": [],
      "name": "name",
      "outputs": [
        {
          "internalType": "string",
          "name": "",
          "type": "string"
        }
      ],
      "stateMutability": "view",
      "type": "function"
    },
    {
      "inputs": [
        {
          "internalType": "uint256",
          "name": "tokenId",
          "type": "uint256"
        }
      ],
      "name": "ownerOf",
      "outputs": [
        {
          "internalType": "address",
          "name": "",
          "type": "address"
        }
      ],
      "stateMutability": "view",
      "type": "function"
    },
    {
      "inputs": [],
      "name": "paused",
      "outputs": [
        {
          "internalType": "bool",
          "name": "",
          "type": "bool"
        }
      ],
      "stateMutability": "view",
      "type": "function"
    },
    {
      "inputs": [
        {
          "internalType": "bytes32",
          "name": "role",
          "type": "bytes32"
        },
        {
          "internalType": "address",
          "name": "account",
          "type": "address"
        }
      ],
      "name": "renounceRole",
      "outputs": [],
      "stateMutability": "nonpayable",
      "type": "function"
    },
    {
      "inputs": [
        {
          "internalType": "bytes32",
          "name": "role",
          "type": "bytes32"
        },
        {
          "internalType": "address",
          "name": "account",
          "type": "address"
        }
      ],
      "name": "revokeRole",
      "outputs": [],
      "stateMutability": "nonpayable",
      "type": "function"
    },
    {
      "inputs": [
        {
          "internalType": "address",
          "name": "from",
          "type": "address"
        },
        {
          "internalType": "address",
          "name": "to",
          "type": "address"
        },
        {
          "internalType": "uint256",
          "name": "tokenId",
          "type": "uint256"
        }
      ],
      "name": "safeTransferFrom",
      "outputs": [],
      "stateMutability": "nonpayable",
      "type": "function"
    },
    {
      "inputs": [
        {
          "internalType": "address",
          "name": "from",
          "type": "address"
        },
        {
          "internalType": "address",
          "name": "to",
          "type": "address"
        },
        {
          "internalType": "uint256",
          "name": "tokenId",
          "type": "uint256"
        },
        {
          "internalType": "bytes",
          "name": "_data",
          "type": "bytes"
        }
      ],
      "name": "safeTransferFrom",
      "outputs": [],
      "stateMutability": "nonpayable",
      "type": "function"
    },
    {
      "inputs": [
        {
          "internalType": "address",
          "name": "operator",
          "type": "address"
        },
        {
          "internalType": "bool",
          "name": "approved",
          "type": "bool"
        }
      ],
      "name": "setApprovalForAll",
      "outputs": [],
      "stateMutability": "nonpayable",
      "type": "function"
    },
    {
      "inputs": [],
      "name": "symbol",
      "outputs": [
        {
          "internalType": "string",
          "name": "",
          "type": "string"
        }
      ],
      "stateMutability": "view",
      "type": "function"
    },
    {
      "inputs": [
        {
          "internalType": "uint256",
          "name": "index",
          "type": "uint256"
        }
      ],
      "name": "tokenByIndex",
      "outputs": [
        {
          "internalType": "uint256",
          "name": "",
          "type": "uint256"
        }
      ],
      "stateMutability": "view",
      "type": "function"
    },
    {
      "inputs": [
        {
          "internalType": "address",
          "name": "owner",
          "type": "address"
        },
        {
          "internalType": "uint256",
          "name": "index",
          "type": "uint256"
        }
      ],
      "name": "tokenOfOwnerByIndex",
      "outputs": [
        {
          "internalType": "uint256",
          "name": "",
          "type": "uint256"
        }
      ],
      "stateMutability": "view",
      "type": "function"
    },
    {
      "inputs": [
        {
          "internalType": "uint256",
          "name": "",
          "type": "uint256"
        }
      ],
      "name": "tokensInfoExt",
      "outputs": [
        {
          "internalType": "uint8",
          "name": "rarity",
          "type": "uint8"
        },
        {
          "internalType": "uint16",
          "name": "exp",
          "type": "uint16"
        },
        {
          "internalType": "uint8",
          "name": "level",
          "type": "uint8"
        },
        {
          "internalType": "uint8",
          "name": "trait",
          "type": "uint8"
        },
        {
          "internalType": "uint64",
          "name": "staminaTimestamp",
          "type": "uint64"
        }
      ],
      "stateMutability": "view",
      "type": "function"
    },
    {
      "inputs": [],
      "name": "totalSupply",
      "outputs": [
        {
          "internalType": "uint256",
          "name": "",
          "type": "uint256"
        }
      ],
      "stateMutability": "view",
      "type": "function"
    },
    {
      "inputs": [
        {
          "internalType": "address",
          "name": "from",
          "type": "address"
        },
        {
          "internalType": "address",
          "name": "to",
          "type": "address"
        },
        {
          "internalType": "uint256",
          "name": "tokenId",
          "type": "uint256"
        }
      ],
      "name": "transferFrom",
      "outputs": [],
      "stateMutability": "nonpayable",
      "type": "function"
    },
    {
      "inputs": [],
      "name": "initialize",
      "outputs": [],
      "stateMutability": "nonpayable",
      "type": "function"
    },
    {
      "inputs": [],
      "name": "pause",
      "outputs": [],
      "stateMutability": "nonpayable",
      "type": "function"
    },
    {
      "inputs": [],
      "name": "unpause",
      "outputs": [],
      "stateMutability": "nonpayable",
      "type": "function"
    },
    {
      "inputs": [
        {
          "internalType": "address",
          "name": "receiver",
          "type": "address"
        },
        {
          "internalType": "uint8",
          "name": "rarity",
          "type": "uint8"
        },
        {
          "internalType": "uint16",
          "name": "mintAmount",
          "type": "uint16"
        },
        {
          "internalType": "string",
          "name": "uri",
          "type": "string"
        }
      ],
      "name": "mintBatch",
      "outputs": [
        {
          "internalType": "uint16",
          "name": "",
          "type": "uint16"
        }
      ],
      "stateMutability": "nonpayable",
      "type": "function"
    },
    {
      "inputs": [
        {
          "internalType": "address",
          "name": "minter",
          "type": "address"
        },
        {
          "internalType": "address",
          "name": "receiver",
          "type": "address"
        },
        {
          "internalType": "uint8",
          "name": "rarity",
          "type": "uint8"
        },
        {
          "internalType": "string",
          "name": "uri",
          "type": "string"
        }
      ],
      "name": "mintWithRarity",
      "outputs": [
        {
          "internalType": "uint256",
          "name": "",
          "type": "uint256"
        }
      ],
      "stateMutability": "nonpayable",
      "type": "function"
    },
    {
      "inputs": [
        {
          "internalType": "address",
          "name": "to",
          "type": "address"
        },
        {
          "internalType": "string",
          "name": "uri",
          "type": "string"
        }
      ],
      "name": "safeMint",
      "outputs": [
        {
          "internalType": "uint256",
          "name": "",
          "type": "uint256"
        }
      ],
      "stateMutability": "nonpayable",
      "type": "function"
    },
    {
      "inputs": [
        {
          "internalType": "uint256",
          "name": "tokenId",
          "type": "uint256"
        }
      ],
      "name": "tokenURI",
      "outputs": [
        {
          "internalType": "string",
          "name": "",
          "type": "string"
        }
      ],
      "stateMutability": "view",
      "type": "function"
    },
    {
      "inputs": [
        {
          "internalType": "bytes4",
          "name": "interfaceId",
          "type": "bytes4"
        }
      ],
      "name": "supportsInterface",
      "outputs": [
        {
          "internalType": "bool",
          "name": "",
          "type": "bool"
        }
      ],
      "stateMutability": "view",
      "type": "function"
    },
    {
      "inputs": [
        {
          "internalType": "uint256",
          "name": "id",
          "type": "uint256"
        }
      ],
      "name": "getRarityById",
      "outputs": [
        {
          "internalType": "uint8",
          "name": "rarity",
          "type": "uint8"
        }
      ],
      "stateMutability": "view",
      "type": "function"
    },
    {
      "inputs": [
        {
          "internalType": "address",
          "name": "user",
          "type": "address"
        }
      ],
      "name": "getOwnedTokenID",
      "outputs": [
        {
          "internalType": "uint256[]",
          "name": "",
          "type": "uint256[]"
        }
      ],
      "stateMutability": "view",
      "type": "function"
    },
    {
      "inputs": [
        {
          "internalType": "uint256",
          "name": "id",
          "type": "uint256"
        }
      ],
      "name": "getTrait",
      "outputs": [
        {
          "internalType": "uint8",
          "name": "",
          "type": "uint8"
        }
      ],
      "stateMutability": "view",
      "type": "function"
    },
    {
      "inputs": [
        {
          "internalType": "uint256",
          "name": "id",
          "type": "uint256"
        },
        {
          "internalType": "uint8",
          "name": "trait",
          "type": "uint8"
        }
      ],
      "name": "setTrait",
      "outputs": [],
      "stateMutability": "nonpayable",
      "type": "function"
    },
    {
      "inputs": [
        {
          "internalType": "uint256",
          "name": "id",
          "type": "uint256"
        }
      ],
      "name": "getLevel",
      "outputs": [
        {
          "internalType": "uint8",
          "name": "",
          "type": "uint8"
        }
      ],
      "stateMutability": "view",
      "type": "function"
    },
    {
      "inputs": [
        {
          "internalType": "uint256",
          "name": "max",
          "type": "uint256"
        }
      ],
      "name": "setCharacterLimit",
      "outputs": [],
      "stateMutability": "nonpayable",
      "type": "function"
    }
  ],
  "bytecode": "0x60806040523480156200001157600080fd5b50600054610100900460ff166200002f5760005460ff161562000039565b62000039620000de565b620000a15760405162461bcd60e51b815260206004820152602e60248201527f496e697469616c697a61626c653a20636f6e747261637420697320616c72656160448201526d191e481a5b9a5d1a585b1a5e995960921b606482015260840160405180910390fd5b600054610100900460ff16158015620000c4576000805461ffff19166101011790555b8015620000d7576000805461ff00191690555b506200010b565b6000620000f630620000fc60201b6200135c1760201c565b15905090565b6001600160a01b03163b151590565b61316d806200011b6000396000f3fe608060405234801561001057600080fd5b506004361061025e5760003560e01c806370a0823111610146578063acb586df116100c3578063d539139311610087578063d539139314610680578063d547741f14610695578063e63ab1e9146106a8578063e985e9c5146106bd578063edc9a430146106f9578063fce9634e1461071957600080fd5b8063acb586df14610598578063b88d4fde146105c4578063be7cbe75146105d7578063c87b56dd1461065a578063d204c45e1461066d57600080fd5b806391d148541161010a57806391d148541461055857806395d89b411461056b578063a217fddf14610573578063a22cb4651461057b578063aa3c6cfc1461058e57600080fd5b806370a08231146104e55780638129fc1c146104f857806383429b16146105005780638456cb591461051357806386481d401461051b57600080fd5b806336568abe116101df5780634f6ccce7116101a35780634f6ccce7146103ca5780635504d3d2146103dd5780635c975abb146104045780635dba06e41461040f5780636352211e146104365780636fe5befb1461044957600080fd5b806336568abe146103755780633f4ba83a1461038857806342842e0e1461039057806342966c68146103a357806344678be1146103b657600080fd5b806322faba1d1161022657806322faba1d146102f257806323b872dd14610318578063248a9ca31461032b5780632f2ff15d1461034f5780632f745c591461036257600080fd5b806301ffc9a71461026357806306fdde031461028b578063081812fc146102a0578063095ea7b3146102cb57806318160ddd146102e0575b600080fd5b610276610271366004612c9b565b610757565b60405190151581526020015b60405180910390f35b610293610768565b6040516102829190612e46565b6102b36102ae366004612c61565b6107fa565b6040516001600160a01b039091168152602001610282565b6102de6102d9366004612bf6565b610887565b005b6099545b604051908152602001610282565b610305610300366004612c1f565b61099d565b60405161ffff9091168152602001610282565b6102de610326366004612a5b565b610a49565b6102e4610339366004612c61565b600090815261012d602052604090206001015490565b6102de61035d366004612c79565b610a7b565b6102e4610370366004612bf6565b610aa2565b6102de610383366004612c79565b610b38565b6102de610bb6565b6102de61039e366004612a5b565b610bda565b6102de6103b1366004612c61565b610bf5565b6102de6103c4366004612c61565b61019255565b6102e46103d8366004612c61565b610c6c565b6102e47f745191d59a0c5ecaf2331ad3570e4033c5b04de0434263ec14a70fce5475ab7f81565b60fb5460ff16610276565b6102e47f2ab62e5096aa94099b14af9c792f3b2360ffc5d5c248cab0c5db3e2fad54c42e81565b6102b3610444366004612c61565b610d0d565b6104a3610457366004612c61565b6101936020526000908152604090205460ff80821691610100810461ffff16916301000000820481169164010000000081049091169065010000000000900467ffffffffffffffff1685565b6040805160ff968716815261ffff90951660208601529285169284019290925292909216606082015267ffffffffffffffff909116608082015260a001610282565b6102e46104f3366004612a0f565b610d84565b6102de610e0b565b6102e461050e366004612b0f565b610fd0565b6102de61117e565b610546610529366004612c61565b600090815261019360205260409020546301000000900460ff1690565b60405160ff9091168152602001610282565b610276610566366004612c79565b61119f565b6102936111cb565b6102e4600081565b6102de610589366004612b70565b6111da565b6102e46101925481565b6105466105a6366004612c61565b60009081526101936020526040902054640100000000900460ff1690565b6102de6105d2366004612a96565b6111e5565b6105466105e5366004612c61565b60009081526101936020908152604091829020825160a081018452905460ff808216808452610100830461ffff169484019490945263010000008204811694830194909452640100000000810490931660608201526501000000000090920467ffffffffffffffff1660809092019190915290565b610293610668366004612c61565b61121d565b6102e461067b366004612baa565b611228565b6102e46000805160206130f183398151915281565b6102de6106a3366004612c79565b61127c565b6102e46000805160206130d183398151915281565b6102766106cb366004612a29565b6001600160a01b039182166000908152606a6020908152604080832093909416825291909152205460ff1690565b61070c610707366004612a0f565b6112a3565b6040516102829190612e02565b6102de610727366004612cd3565b60009182526101936020526040909120805460ff9092166401000000000264ff0000000019909216919091179055565b60006107628261136b565b92915050565b60606065805461077790612fec565b80601f01602080910402602001604051908101604052809291908181526020018280546107a390612fec565b80156107f05780601f106107c5576101008083540402835291602001916107f0565b820191906000526020600020905b8154815290600101906020018083116107d357829003601f168201915b5050505050905090565b600061080582611390565b61086b5760405162461bcd60e51b815260206004820152602c60248201527f4552433732313a20617070726f76656420717565727920666f72206e6f6e657860448201526b34b9ba32b73a103a37b5b2b760a11b60648201526084015b60405180910390fd5b506000908152606960205260409020546001600160a01b031690565b600061089282610d0d565b9050806001600160a01b0316836001600160a01b031614156109005760405162461bcd60e51b815260206004820152602160248201527f4552433732313a20617070726f76616c20746f2063757272656e74206f776e656044820152603960f91b6064820152608401610862565b336001600160a01b038216148061091c575061091c81336106cb565b61098e5760405162461bcd60e51b815260206004820152603860248201527f4552433732313a20617070726f76652063616c6c6572206973206e6f74206f7760448201527f6e6572206e6f7220617070726f76656420666f7220616c6c00000000000000006064820152608401610862565b61099883836113ad565b505050565b60006000805160206130f18339815191526109b8813361141b565b60028560ff161115610a0c5760405162461bcd60e51b815260206004820152601a60248201527f537570706c79426f78733a2052617269747920696e76616c69640000000000006044820152606401610862565b60005b8461ffff168161ffff161015610a3e57610a2b33888887610fd0565b5080610a3681613027565b915050610a0f565b509295945050505050565b610a54335b8261147f565b610a705760405162461bcd60e51b815260040161086290612eab565b610998838383611565565b600082815261012d6020526040902060010154610a98813361141b565b610998838361170c565b6000610aad83610d84565b8210610b0f5760405162461bcd60e51b815260206004820152602b60248201527f455243373231456e756d657261626c653a206f776e657220696e646578206f7560448201526a74206f6620626f756e647360a81b6064820152608401610862565b506001600160a01b03919091166000908152609760209081526040808320938352929052205490565b6001600160a01b0381163314610ba85760405162461bcd60e51b815260206004820152602f60248201527f416363657373436f6e74726f6c3a2063616e206f6e6c792072656e6f756e636560448201526e103937b632b9903337b91039b2b63360891b6064820152608401610862565b610bb28282611793565b5050565b6000805160206130d1833981519152610bcf813361141b565b610bd76117fb565b50565b610998838383604051806020016040528060008152506111e5565b610bfe33610a4e565b610c635760405162461bcd60e51b815260206004820152603060248201527f4552433732314275726e61626c653a2063616c6c6572206973206e6f74206f7760448201526f1b995c881b9bdc88185c1c1c9bdd995960821b6064820152608401610862565b610bd78161188e565b6000610c7760995490565b8210610cda5760405162461bcd60e51b815260206004820152602c60248201527f455243373231456e756d657261626c653a20676c6f62616c20696e646578206f60448201526b7574206f6620626f756e647360a01b6064820152608401610862565b60998281548110610cfb57634e487b7160e01b600052603260045260246000fd5b90600052602060002001549050919050565b6000818152606760205260408120546001600160a01b0316806107625760405162461bcd60e51b815260206004820152602960248201527f4552433732313a206f776e657220717565727920666f72206e6f6e657869737460448201526832b73a103a37b5b2b760b91b6064820152608401610862565b60006001600160a01b038216610def5760405162461bcd60e51b815260206004820152602a60248201527f4552433732313a2062616c616e636520717565727920666f7220746865207a65604482015269726f206164647265737360b01b6064820152608401610862565b506001600160a01b031660009081526068602052604090205490565b600054610100900460ff16610e265760005460ff1615610e2a565b303b155b610e8d5760405162461bcd60e51b815260206004820152602e60248201527f496e697469616c697a61626c653a20636f6e747261637420697320616c72656160448201526d191e481a5b9a5d1a585b1a5e995960921b6064820152608401610862565b600054610100900460ff16158015610eaf576000805461ffff19166101011790555b610eff604051806040016040528060138152602001722137bba6b0b9ba32b91021b430b930b1ba32b960691b81525060405180604001604052806003815260200162424d4360e81b815250611897565b610f076118c8565b610f0f6118c8565b610f176118f1565b610f1f6118c8565b610f276118c8565b610f3260003361170c565b610f5c7f745191d59a0c5ecaf2331ad3570e4033c5b04de0434263ec14a70fce5475ab7f3361170c565b610f746000805160206130d18339815191523361170c565b610f8c6000805160206130f18339815191523361170c565b610fb67f2ab62e5096aa94099b14af9c792f3b2360ffc5d5c248cab0c5db3e2fad54c42e3361170c565b6004610192558015610bd7576000805461ff001916905550565b60006000805160206130f1833981519152610feb813361141b565b60028460ff16111561103f5760405162461bcd60e51b815260206004820152601a60248201527f537570706c79426f78733a2052617269747920696e76616c69640000000000006044820152606401610862565b600061104b6101915490565b6040805160a08101825260ff808916825260006020808401828152848601838152606086018481526080870185815289865261019390945296842095518654925191519751935167ffffffffffffffff1665010000000000026cffffffffffffffff0000000000199487166401000000000264ff00000000199988166301000000029990991664ffff0000001961ffff949094166101000262ffffff1990951692909716919091179290921716939093179490941793909316179055909150808080806111188b8a611228565b90508b6001600160a01b03168a60ff16827f4f88550b9bc5f5748a52ff87f6aab1afeeb4fdd971c31e8d402c6d7791f49d688e60405161116791906001600160a01b0391909116815260200190565b60405180910390a49b9a5050505050505050505050565b6000805160206130d1833981519152611197813361141b565b610bd7611920565b600091825261012d602090815260408084206001600160a01b0393909316845291905290205460ff1690565b60606066805461077790612fec565b610bb233838361199b565b6111ef338361147f565b61120b5760405162461bcd60e51b815260040161086290612eab565b61121784848484611a6a565b50505050565b606061076282611a9d565b60006000805160206130f1833981519152611243813361141b565b600061124f6101915490565b905061126061019180546001019055565b61126a8582611bff565b6112748185611c19565b949350505050565b600082815261012d6020526040902060010154611299813361141b565b6109988383611793565b606060006112b083610d84565b67ffffffffffffffff8111156112d657634e487b7160e01b600052604160045260246000fd5b6040519080825280602002602001820160405280156112ff578160200160208202803683370190505b50905060005b8151811015611355576113188482610aa2565b82828151811061133857634e487b7160e01b600052603260045260246000fd5b60209081029190910101528061134d81613049565b915050611305565b5092915050565b6001600160a01b03163b151590565b60006001600160e01b03198216637965db0b60e01b1480610762575061076282611ca4565b6000908152606760205260409020546001600160a01b0316151590565b600081815260696020526040902080546001600160a01b0319166001600160a01b03841690811790915581906113e282610d0d565b6001600160a01b03167f8c5be1e5ebec7d5bd14f71427d1e84f3dd0314c0f7b2291e5b200ac8c7c3b92560405160405180910390a45050565b611425828261119f565b610bb25761143d816001600160a01b03166014611cc9565b611448836020611cc9565b604051602001611459929190612d50565b60408051601f198184030181529082905262461bcd60e51b825261086291600401612e46565b600061148a82611390565b6114eb5760405162461bcd60e51b815260206004820152602c60248201527f4552433732313a206f70657261746f7220717565727920666f72206e6f6e657860448201526b34b9ba32b73a103a37b5b2b760a11b6064820152608401610862565b60006114f683610d0d565b9050806001600160a01b0316846001600160a01b031614806115315750836001600160a01b0316611526846107fa565b6001600160a01b0316145b8061127457506001600160a01b038082166000908152606a602090815260408083209388168352929052205460ff16611274565b826001600160a01b031661157882610d0d565b6001600160a01b0316146115dc5760405162461bcd60e51b815260206004820152602560248201527f4552433732313a207472616e736665722066726f6d20696e636f72726563742060448201526437bbb732b960d91b6064820152608401610862565b6001600160a01b03821661163e5760405162461bcd60e51b8152602060048201526024808201527f4552433732313a207472616e7366657220746f20746865207a65726f206164646044820152637265737360e01b6064820152608401610862565b611649838383611eb2565b6116546000826113ad565b6001600160a01b038316600090815260686020526040812080546001929061167d908490612f92565b90915550506001600160a01b03821660009081526068602052604081208054600192906116ab908490612f47565b909155505060008181526067602052604080822080546001600160a01b0319166001600160a01b0386811691821790925591518493918716917fddf252ad1be2c89b69c2b068fc378daa952ba7f163c4a11628f55a4df523b3ef91a4505050565b611716828261119f565b610bb257600082815261012d602090815260408083206001600160a01b03851684529091529020805460ff1916600117905561174f3390565b6001600160a01b0316816001600160a01b0316837f2f8788117e7eff1d82e926ec794901d17c78024a50270940304540a733656f0d60405160405180910390a45050565b61179d828261119f565b15610bb257600082815261012d602090815260408083206001600160a01b0385168085529252808320805460ff1916905551339285917ff6391f5c32d9c69d2a47ea670b442974b53935d1edc7fd64eb21e047a839171b9190a45050565b60fb5460ff166118445760405162461bcd60e51b815260206004820152601460248201527314185d5cd8589b194e881b9bdd081c185d5cd95960621b6044820152606401610862565b60fb805460ff191690557f5db9ee0a495bf2e6ff9c91a7834c1ba4fdd244a5e8aa4e537bd38aeae4b073aa335b6040516001600160a01b03909116815260200160405180910390a1565b610bd781611fd1565b600054610100900460ff166118be5760405162461bcd60e51b815260040161086290612efc565b610bb28282612011565b600054610100900460ff166118ef5760405162461bcd60e51b815260040161086290612efc565b565b600054610100900460ff166119185760405162461bcd60e51b815260040161086290612efc565b6118ef61205f565b60fb5460ff16156119665760405162461bcd60e51b815260206004820152601060248201526f14185d5cd8589b194e881c185d5cd95960821b6044820152606401610862565b60fb805460ff191660011790557f62e78cea01bee320cd4e420270b5ea74000d11b0c9f74754ebdbfc544b05a2586118713390565b816001600160a01b0316836001600160a01b031614156119fd5760405162461bcd60e51b815260206004820152601960248201527f4552433732313a20617070726f766520746f2063616c6c6572000000000000006044820152606401610862565b6001600160a01b038381166000818152606a6020908152604080832094871680845294825291829020805460ff191686151590811790915591519182527f17307eab39ab6107e8899845ad3d59bd9653f200f220920489ca2b5937696c31910160405180910390a3505050565b611a75848484611565565b611a8184848484612092565b6112175760405162461bcd60e51b815260040161086290612e59565b6060611aa882611390565b611b0e5760405162461bcd60e51b815260206004820152603160248201527f45524337323155524953746f726167653a2055524920717565727920666f72206044820152703737b732bc34b9ba32b73a103a37b5b2b760791b6064820152608401610862565b600082815260c9602052604081208054611b2790612fec565b80601f0160208091040260200160405190810160405280929190818152602001828054611b5390612fec565b8015611ba05780601f10611b7557610100808354040283529160200191611ba0565b820191906000526020600020905b815481529060010190602001808311611b8357829003601f168201915b505050505090506000611bb161219f565b9050805160001415611bc4575092915050565b815115611bf6578082604051602001611bde929190612d21565b60405160208183030381529060405292505050919050565b611274846121bf565b610bb2828260405180602001604052806000815250612289565b611c2282611390565b611c855760405162461bcd60e51b815260206004820152602e60248201527f45524337323155524953746f726167653a2055524920736574206f66206e6f6e60448201526d32bc34b9ba32b73a103a37b5b2b760911b6064820152608401610862565b600082815260c96020908152604090912082516109989284019061287e565b60006001600160e01b0319821663780e9d6360e01b14806107625750610762826122bc565b60606000611cd8836002612f73565b611ce3906002612f47565b67ffffffffffffffff811115611d0957634e487b7160e01b600052604160045260246000fd5b6040519080825280601f01601f191660200182016040528015611d33576020820181803683370190505b509050600360fc1b81600081518110611d5c57634e487b7160e01b600052603260045260246000fd5b60200101906001600160f81b031916908160001a905350600f60fb1b81600181518110611d9957634e487b7160e01b600052603260045260246000fd5b60200101906001600160f81b031916908160001a9053506000611dbd846002612f73565b611dc8906001612f47565b90505b6001811115611e5c576f181899199a1a9b1b9c1cb0b131b232b360811b85600f1660108110611e0a57634e487b7160e01b600052603260045260246000fd5b1a60f81b828281518110611e2e57634e487b7160e01b600052603260045260246000fd5b60200101906001600160f81b031916908160001a90535060049490941c93611e5581612fd5565b9050611dcb565b508315611eab5760405162461bcd60e51b815260206004820181905260248201527f537472696e67733a20686578206c656e67746820696e73756666696369656e746044820152606401610862565b9392505050565b60fb5460ff1615611ef85760405162461bcd60e51b815260206004820152601060248201526f14185d5cd8589b194e881c185d5cd95960821b6044820152606401610862565b6001600160a01b03821615801590611f1b57506001600160a01b03821661dead14155b8015611f4e5750611f4c7f2ab62e5096aa94099b14af9c792f3b2360ffc5d5c248cab0c5db3e2fad54c42e8361119f565b155b15611fc65761019254611f6083610d84565b10611fc65760405162461bcd60e51b815260206004820152603060248201527f436861726163746572733a207468652061646472657373206f776e6520746f6f60448201526f206d616e79206368617261637465727360801b6064820152608401610862565b61099883838361230c565b611fda816123c4565b600081815260c9602052604090208054611ff390612fec565b159050610bd757600081815260c960205260408120610bd791612902565b600054610100900460ff166120385760405162461bcd60e51b815260040161086290612efc565b815161204b90606590602085019061287e565b50805161099890606690602084019061287e565b600054610100900460ff166120865760405162461bcd60e51b815260040161086290612efc565b60fb805460ff19169055565b60006001600160a01b0384163b1561219457604051630a85bd0160e11b81526001600160a01b0385169063150b7a02906120d6903390899088908890600401612dc5565b602060405180830381600087803b1580156120f057600080fd5b505af1925050508015612120575060408051601f3d908101601f1916820190925261211d91810190612cb7565b60015b61217a573d80801561214e576040519150601f19603f3d011682016040523d82523d6000602084013e612153565b606091505b5080516121725760405162461bcd60e51b815260040161086290612e59565b805181602001fd5b6001600160e01b031916630a85bd0160e11b149050611274565b506001949350505050565b606060405180606001604052806027815260200161311160279139905090565b60606121ca82611390565b61222e5760405162461bcd60e51b815260206004820152602f60248201527f4552433732314d657461646174613a2055524920717565727920666f72206e6f60448201526e3732bc34b9ba32b73a103a37b5b2b760891b6064820152608401610862565b600061223861219f565b905060008151116122585760405180602001604052806000815250611eab565b806122628461246b565b604051602001612273929190612d21565b6040516020818303038152906040529392505050565b6122938383612585565b6122a06000848484612092565b6109985760405162461bcd60e51b815260040161086290612e59565b60006001600160e01b031982166380ac58cd60e01b14806122ed57506001600160e01b03198216635b5e139f60e01b145b8061076257506301ffc9a760e01b6001600160e01b0319831614610762565b6001600160a01b0383166123675761236281609980546000838152609a60205260408120829055600182018355919091527f72a152ddfb8e864297c917af52ea6c1c68aead0fee1a62673fcc7e0c94979d000155565b61238a565b816001600160a01b0316836001600160a01b03161461238a5761238a83826126c4565b6001600160a01b0382166123a15761099881612761565b826001600160a01b0316826001600160a01b03161461099857610998828261283a565b60006123cf82610d0d565b90506123dd81600084611eb2565b6123e86000836113ad565b6001600160a01b0381166000908152606860205260408120805460019290612411908490612f92565b909155505060008281526067602052604080822080546001600160a01b0319169055518391906001600160a01b038416907fddf252ad1be2c89b69c2b068fc378daa952ba7f163c4a11628f55a4df523b3ef908390a45050565b60608161248f5750506040805180820190915260018152600360fc1b602082015290565b8160005b81156124b957806124a381613049565b91506124b29050600a83612f5f565b9150612493565b60008167ffffffffffffffff8111156124e257634e487b7160e01b600052604160045260246000fd5b6040519080825280601f01601f19166020018201604052801561250c576020820181803683370190505b5090505b841561127457612521600183612f92565b915061252e600a86613064565b612539906030612f47565b60f81b81838151811061255c57634e487b7160e01b600052603260045260246000fd5b60200101906001600160f81b031916908160001a90535061257e600a86612f5f565b9450612510565b6001600160a01b0382166125db5760405162461bcd60e51b815260206004820181905260248201527f4552433732313a206d696e7420746f20746865207a65726f20616464726573736044820152606401610862565b6125e481611390565b156126315760405162461bcd60e51b815260206004820152601c60248201527f4552433732313a20746f6b656e20616c7265616479206d696e746564000000006044820152606401610862565b61263d60008383611eb2565b6001600160a01b0382166000908152606860205260408120805460019290612666908490612f47565b909155505060008181526067602052604080822080546001600160a01b0319166001600160a01b03861690811790915590518392907fddf252ad1be2c89b69c2b068fc378daa952ba7f163c4a11628f55a4df523b3ef908290a45050565b600060016126d184610d84565b6126db9190612f92565b60008381526098602052604090205490915080821461272e576001600160a01b03841660009081526097602090815260408083208584528252808320548484528184208190558352609890915290208190555b5060009182526098602090815260408084208490556001600160a01b039094168352609781528383209183525290812055565b60995460009061277390600190612f92565b6000838152609a6020526040812054609980549394509092849081106127a957634e487b7160e01b600052603260045260246000fd5b9060005260206000200154905080609983815481106127d857634e487b7160e01b600052603260045260246000fd5b6000918252602080832090910192909255828152609a9091526040808220849055858252812055609980548061281e57634e487b7160e01b600052603160045260246000fd5b6001900381819060005260206000200160009055905550505050565b600061284583610d84565b6001600160a01b039093166000908152609760209081526040808320868452825280832085905593825260989052919091209190915550565b82805461288a90612fec565b90600052602060002090601f0160209004810192826128ac57600085556128f2565b82601f106128c557805160ff19168380011785556128f2565b828001600101855582156128f2579182015b828111156128f25782518255916020019190600101906128d7565b506128fe929150612938565b5090565b50805461290e90612fec565b6000825580601f1061291e575050565b601f016020900490600052602060002090810190610bd791905b5b808211156128fe5760008155600101612939565b600067ffffffffffffffff80841115612968576129686130a4565b604051601f8501601f19908116603f01168101908282118183101715612990576129906130a4565b816040528093508581528686860111156129a957600080fd5b858560208301376000602087830101525050509392505050565b80356001600160a01b03811681146129da57600080fd5b919050565b600082601f8301126129ef578081fd5b611eab8383356020850161294d565b803560ff811681146129da57600080fd5b600060208284031215612a20578081fd5b611eab826129c3565b60008060408385031215612a3b578081fd5b612a44836129c3565b9150612a52602084016129c3565b90509250929050565b600080600060608486031215612a6f578081fd5b612a78846129c3565b9250612a86602085016129c3565b9150604084013590509250925092565b60008060008060808587031215612aab578081fd5b612ab4856129c3565b9350612ac2602086016129c3565b925060408501359150606085013567ffffffffffffffff811115612ae4578182fd5b8501601f81018713612af4578182fd5b612b038782356020840161294d565b91505092959194509250565b60008060008060808587031215612b24578384fd5b612b2d856129c3565b9350612b3b602086016129c3565b9250612b49604086016129fe565b9150606085013567ffffffffffffffff811115612b64578182fd5b612b03878288016129df565b60008060408385031215612b82578182fd5b612b8b836129c3565b915060208301358015158114612b9f578182fd5b809150509250929050565b60008060408385031215612bbc578182fd5b612bc5836129c3565b9150602083013567ffffffffffffffff811115612be0578182fd5b612bec858286016129df565b9150509250929050565b60008060408385031215612c08578182fd5b612c11836129c3565b946020939093013593505050565b60008060008060808587031215612c34578384fd5b612c3d856129c3565b9350612c4b602086016129fe565b9250604085013561ffff81168114612b49578283fd5b600060208284031215612c72578081fd5b5035919050565b60008060408385031215612c8b578182fd5b82359150612a52602084016129c3565b600060208284031215612cac578081fd5b8135611eab816130ba565b600060208284031215612cc8578081fd5b8151611eab816130ba565b60008060408385031215612ce5578182fd5b82359150612a52602084016129fe565b60008151808452612d0d816020860160208601612fa9565b601f01601f19169290920160200192915050565b60008351612d33818460208801612fa9565b835190830190612d47818360208801612fa9565b01949350505050565b7f416363657373436f6e74726f6c3a206163636f756e7420000000000000000000815260008351612d88816017850160208801612fa9565b7001034b99036b4b9b9b4b733903937b6329607d1b6017918401918201528351612db9816028840160208801612fa9565b01602801949350505050565b6001600160a01b0385811682528416602082015260408101839052608060608201819052600090612df890830184612cf5565b9695505050505050565b6020808252825182820181905260009190848201906040850190845b81811015612e3a57835183529284019291840191600101612e1e565b50909695505050505050565b602081526000611eab6020830184612cf5565b60208082526032908201527f4552433732313a207472616e7366657220746f206e6f6e20455243373231526560408201527131b2b4bb32b91034b6b83632b6b2b73a32b960711b606082015260800190565b60208082526031908201527f4552433732313a207472616e736665722063616c6c6572206973206e6f74206f6040820152701ddb995c881b9bdc88185c1c1c9bdd9959607a1b606082015260800190565b6020808252602b908201527f496e697469616c697a61626c653a20636f6e7472616374206973206e6f74206960408201526a6e697469616c697a696e6760a81b606082015260800190565b60008219821115612f5a57612f5a613078565b500190565b600082612f6e57612f6e61308e565b500490565b6000816000190483118215151615612f8d57612f8d613078565b500290565b600082821015612fa457612fa4613078565b500390565b60005b83811015612fc4578181015183820152602001612fac565b838111156112175750506000910152565b600081612fe457612fe4613078565b506000190190565b600181811c9082168061300057607f821691505b6020821081141561302157634e487b7160e01b600052602260045260246000fd5b50919050565b600061ffff8083168181141561303f5761303f613078565b6001019392505050565b600060001982141561305d5761305d613078565b5060010190565b6000826130735761307361308e565b500690565b634e487b7160e01b600052601160045260246000fd5b634e487b7160e01b600052601260045260246000fd5b634e487b7160e01b600052604160045260246000fd5b6001600160e01b031981168114610bd757600080fdfe65d7a28e3265b37a6474929f336521b332c1681b933f6cb9f3376673440d862a9f2df0fed2c77648de5860a4cc508cd0818c85b8b8a1ab4ceeef8d981c8956a668747470733a2f2f6173736574732e61697a61776f726c642e636f6d2f626f776d61737465722fa264697066735822122049f8092b6f1cfd5c82415d0961ec9b253dd43c5ef5e270630d98345360f7c47864736f6c63430008040033",
  "immutableReferences": {},
  "source": "// SPDX-License-Identifier: MIT\npragma solidity ^0.8.4;\n\nimport \"@openzeppelin/contracts-upgradeable/token/ERC721/ERC721Upgradeable.sol\";\nimport \"@openzeppelin/contracts-upgradeable/token/ERC721/extensions/ERC721EnumerableUpgradeable.sol\";\nimport \"@openzeppelin/contracts-upgradeable/token/ERC721/extensions/ERC721URIStorageUpgradeable.sol\";\nimport \"@openzeppelin/contracts-upgradeable/token/ERC721/extensions/ERC721BurnableUpgradeable.sol\";\n\nimport \"@openzeppelin/contracts-upgradeable/security/PausableUpgradeable.sol\";\nimport \"@openzeppelin/contracts-upgradeable/access/AccessControlUpgradeable.sol\";\nimport \"@openzeppelin/contracts-upgradeable/proxy/utils/Initializable.sol\";\nimport \"@openzeppelin/contracts-upgradeable/utils/CountersUpgradeable.sol\";\n\n/// @custom:security-contact jack@aizaworld.com\ncontract Characters is\n    Initializable,\n    ERC721Upgradeable,\n    ERC721EnumerableUpgradeable,\n    ERC721URIStorageUpgradeable,\n    PausableUpgradeable,\n    AccessControlUpgradeable,\n    ERC721BurnableUpgradeable\n{\n    using CountersUpgradeable for CountersUpgradeable.Counter;\n\n    bytes32 public constant GAME_ADMIN = keccak256(\"GAME_ADMIN\");\n    bytes32 public constant NO_OWNED_LIMIT = keccak256(\"NO_OWNED_LIMIT\");\n    bytes32 public constant PAUSER_ROLE = keccak256(\"PAUSER_ROLE\");\n    bytes32 public constant MINTER_ROLE = keccak256(\"MINTER_ROLE\");\n\n    CountersUpgradeable.Counter private _tokenIdCounter;\n    uint256 public characterLimit;\n\n    struct CharacterExt {\n        uint8 rarity;\n        uint16 exp; // Exp to next level\n        uint8 level; // Up to 256 cap\n        uint8 trait; // Trait\n        uint64 staminaTimestamp; // Standard timestamp in seconds-resolution marking regen start from 0\n    }\n\n    mapping(uint256 => CharacterExt) public tokensInfoExt;\n\n    /// Events\n    event NewCharacter(\n        uint256 indexed tokenID,\n        address receiver,\n        uint8 indexed rarity,\n        address indexed minter\n    );\n\n    /// @custom:oz-upgrades-unsafe-allow constructor\n    constructor() initializer {}\n\n    function initialize() public initializer {\n        __ERC721_init(\"BowMaster Character\", \"BMC\");\n        __ERC721Enumerable_init();\n        __ERC721URIStorage_init();\n        __Pausable_init();\n        __AccessControl_init();\n        __ERC721Burnable_init();\n\n        _grantRole(DEFAULT_ADMIN_ROLE, msg.sender);\n        _grantRole(GAME_ADMIN, msg.sender);\n        _grantRole(PAUSER_ROLE, msg.sender);\n        _grantRole(MINTER_ROLE, msg.sender);\n        _grantRole(NO_OWNED_LIMIT, msg.sender);\n\n        characterLimit = 4;\n    }\n\n    function _baseURI() internal pure override returns (string memory) {\n        return \"https://assets.aizaworld.com/bowmaster/\";\n    }\n\n    function pause() public onlyRole(PAUSER_ROLE) {\n        _pause();\n    }\n\n    function unpause() public onlyRole(PAUSER_ROLE) {\n        _unpause();\n    }\n\n    modifier restricted() {\n        _restricted();\n        _;\n    }\n\n    function _restricted() internal view {\n        require(hasRole(GAME_ADMIN, msg.sender), \"Characters: Not game admin\");\n    }\n\n    function mintBatch(\n        address receiver,\n        uint8 rarity,\n        uint16 mintAmount,\n        string memory uri\n    ) public onlyRole(MINTER_ROLE) returns (uint16) {\n        require(rarity >= 0 && rarity <= 2, \"SupplyBoxs: Rarity invalid\");\n\n        for (uint16 i = 0; i < mintAmount; i++) {\n            mintWithRarity(msg.sender, receiver, rarity, uri);\n        }\n\n        return mintAmount;\n    }\n\n    function mintWithRarity(\n        address minter,\n        address receiver,\n        uint8 rarity,\n        string memory uri\n    ) public onlyRole(MINTER_ROLE) returns (uint256) {\n        require(rarity >= 0 && rarity <= 2, \"SupplyBoxs: Rarity invalid\");\n\n        uint256 tokenID = _tokenIdCounter.current();\n\n        uint16 xp = 0;\n        uint8 level = 0; // 1\n        uint8 trait = 0; // uint8(RandomUtil.randomSeededMinMax(0, 3, seed));\n        uint64 staminaTimestamp = 0;\n\n        tokensInfoExt[tokenID] = CharacterExt(\n            rarity,\n            xp,\n            level,\n            trait,\n            staminaTimestamp\n        );\n\n        uint256 mintedTokenID = safeMint(receiver, uri);\n\n        emit NewCharacter(mintedTokenID, receiver, rarity, minter);\n\n        return mintedTokenID;\n    }\n\n    function safeMint(address to, string memory uri)\n        public\n        onlyRole(MINTER_ROLE)\n        returns (uint256)\n    {\n        uint256 tokenId = _tokenIdCounter.current();\n        _tokenIdCounter.increment();\n        _safeMint(to, tokenId);\n        _setTokenURI(tokenId, uri);\n        return tokenId;\n    }\n\n    function _beforeTokenTransfer(\n        address from,\n        address to,\n        uint256 tokenId\n    )\n        internal\n        override(ERC721Upgradeable, ERC721EnumerableUpgradeable)\n        whenNotPaused\n    {\n        if (\n            to != address(0) &&\n            to != address(0x000000000000000000000000000000000000dEaD) &&\n            !hasRole(NO_OWNED_LIMIT, to)\n        ) {\n            require(\n                balanceOf(to) < characterLimit,\n                \"Characters: the address owne too many characters\"\n            );\n        }\n\n        super._beforeTokenTransfer(from, to, tokenId);\n    }\n\n    // The following functions are overrides required by Solidity.\n    function _burn(uint256 tokenId)\n        internal\n        override(ERC721Upgradeable, ERC721URIStorageUpgradeable)\n    {\n        // TODO: Delete mapping\n\n        super._burn(tokenId);\n    }\n\n    function tokenURI(uint256 tokenId)\n        public\n        view\n        override(ERC721Upgradeable, ERC721URIStorageUpgradeable)\n        returns (string memory)\n    {\n        return super.tokenURI(tokenId);\n    }\n\n    function supportsInterface(bytes4 interfaceId)\n        public\n        view\n        override(\n            ERC721Upgradeable,\n            ERC721EnumerableUpgradeable,\n            AccessControlUpgradeable\n        )\n        returns (bool)\n    {\n        return super.supportsInterface(interfaceId);\n    }\n\n    function getRarityById(uint256 id) public view returns (uint8 rarity) {\n        CharacterExt memory s = tokensInfoExt[id];\n        return (s.rarity);\n    }\n\n    function getOwnedTokenID(address user)\n        public\n        view\n        returns (uint256[] memory)\n    {\n        uint256[] memory tokenList = new uint256[](balanceOf(user));\n        for (uint256 i = 0; i < tokenList.length; i++) {\n            tokenList[i] = tokenOfOwnerByIndex(user, i);\n        }\n\n        // TODO: return extra info\n        return tokenList;\n    }\n\n    function getTrait(uint256 id) public view returns (uint8) {\n        return tokensInfoExt[id].trait;\n    }\n\n    function setTrait(uint256 id, uint8 trait) public {\n        tokensInfoExt[id].trait = trait;\n    }\n\n    function getLevel(uint256 id) public view returns (uint8) {\n        return tokensInfoExt[id].level; // this is used by dataminers and it benefits us\n    }\n\n    function setCharacterLimit(uint256 max) public {\n        characterLimit = max;\n    }\n}\n",
  "sourcePath": "/Users/jacknguyen/Desktop/tdu-git/aiza-contracts/contracts/Characters.sol",
  "compiler": {
    "name": "solc",
    "version": "0.8.4+commit.c7e474f2.Emscripten.clang"
  },
  "schemaVersion": "3.4.6",
  "updatedAt": "2022-04-10T11:27:04.925Z",
  "devdoc": {
    "custom:security-contact": "jack@aizaworld.com",
    "kind": "dev",
    "methods": {
      "approve(address,uint256)": {
        "details": "See {IERC721-approve}."
      },
      "balanceOf(address)": {
        "details": "See {IERC721-balanceOf}."
      },
      "burn(uint256)": {
        "details": "Burns `tokenId`. See {ERC721-_burn}. Requirements: - The caller must own `tokenId` or be an approved operator."
      },
      "constructor": {
        "custom:oz-upgrades-unsafe-allow": "constructor"
      },
      "getApproved(uint256)": {
        "details": "See {IERC721-getApproved}."
      },
      "getRoleAdmin(bytes32)": {
        "details": "Returns the admin role that controls `role`. See {grantRole} and {revokeRole}. To change a role's admin, use {_setRoleAdmin}."
      },
      "grantRole(bytes32,address)": {
        "details": "Grants `role` to `account`. If `account` had not been already granted `role`, emits a {RoleGranted} event. Requirements: - the caller must have ``role``'s admin role."
      },
      "hasRole(bytes32,address)": {
        "details": "Returns `true` if `account` has been granted `role`."
      },
      "isApprovedForAll(address,address)": {
        "details": "See {IERC721-isApprovedForAll}."
      },
      "name()": {
        "details": "See {IERC721Metadata-name}."
      },
      "ownerOf(uint256)": {
        "details": "See {IERC721-ownerOf}."
      },
      "paused()": {
        "details": "Returns true if the contract is paused, and false otherwise."
      },
      "renounceRole(bytes32,address)": {
        "details": "Revokes `role` from the calling account. Roles are often managed via {grantRole} and {revokeRole}: this function's purpose is to provide a mechanism for accounts to lose their privileges if they are compromised (such as when a trusted device is misplaced). If the calling account had been revoked `role`, emits a {RoleRevoked} event. Requirements: - the caller must be `account`."
      },
      "revokeRole(bytes32,address)": {
        "details": "Revokes `role` from `account`. If `account` had been granted `role`, emits a {RoleRevoked} event. Requirements: - the caller must have ``role``'s admin role."
      },
      "safeTransferFrom(address,address,uint256)": {
        "details": "See {IERC721-safeTransferFrom}."
      },
      "safeTransferFrom(address,address,uint256,bytes)": {
        "details": "See {IERC721-safeTransferFrom}."
      },
      "setApprovalForAll(address,bool)": {
        "details": "See {IERC721-setApprovalForAll}."
      },
      "symbol()": {
        "details": "See {IERC721Metadata-symbol}."
      },
      "tokenByIndex(uint256)": {
        "details": "See {IERC721Enumerable-tokenByIndex}."
      },
      "tokenOfOwnerByIndex(address,uint256)": {
        "details": "See {IERC721Enumerable-tokenOfOwnerByIndex}."
      },
      "totalSupply()": {
        "details": "See {IERC721Enumerable-totalSupply}."
      },
      "transferFrom(address,address,uint256)": {
        "details": "See {IERC721-transferFrom}."
      }
    },
    "version": 1
  },
  "userdoc": {
    "events": {
      "NewCharacter(uint256,address,uint8,address)": {
        "notice": "Events"
      }
    },
    "kind": "user",
    "methods": {},
    "version": 1
  }
}