{
  "contractName": "INO",
  "abi": [
    {
      "anonymous": false,
      "inputs": [
        {
          "indexed": true,
          "internalType": "bytes32",
          "name": "role",
          "type": "bytes32"
        },
        {
          "indexed": true,
          "internalType": "bytes32",
          "name": "previousAdminRole",
          "type": "bytes32"
        },
        {
          "indexed": true,
          "internalType": "bytes32",
          "name": "newAdminRole",
          "type": "bytes32"
        }
      ],
      "name": "RoleAdminChanged",
      "type": "event"
    },
    {
      "anonymous": false,
      "inputs": [
        {
          "indexed": true,
          "internalType": "bytes32",
          "name": "role",
          "type": "bytes32"
        },
        {
          "indexed": true,
          "internalType": "address",
          "name": "account",
          "type": "address"
        },
        {
          "indexed": true,
          "internalType": "address",
          "name": "sender",
          "type": "address"
        }
      ],
      "name": "RoleGranted",
      "type": "event"
    },
    {
      "anonymous": false,
      "inputs": [
        {
          "indexed": true,
          "internalType": "bytes32",
          "name": "role",
          "type": "bytes32"
        },
        {
          "indexed": true,
          "internalType": "address",
          "name": "account",
          "type": "address"
        },
        {
          "indexed": true,
          "internalType": "address",
          "name": "sender",
          "type": "address"
        }
      ],
      "name": "RoleRevoked",
      "type": "event"
    },
    {
      "inputs": [],
      "name": "BLUE_BOX_LIMIT",
      "outputs": [
        {
          "internalType": "uint16",
          "name": "",
          "type": "uint16"
        }
      ],
      "stateMutability": "view",
      "type": "function"
    },
    {
      "inputs": [],
      "name": "BLUE_BOX_LIMIT_PER_ACC",
      "outputs": [
        {
          "internalType": "uint8",
          "name": "",
          "type": "uint8"
        }
      ],
      "stateMutability": "view",
      "type": "function"
    },
    {
      "inputs": [],
      "name": "BLUE_BOX_PRICE",
      "outputs": [
        {
          "internalType": "uint256",
          "name": "",
          "type": "uint256"
        }
      ],
      "stateMutability": "view",
      "type": "function"
    },
    {
      "inputs": [],
      "name": "BLUE_BOX_PRICE_BNB",
      "outputs": [
        {
          "internalType": "uint256",
          "name": "",
          "type": "uint256"
        }
      ],
      "stateMutability": "view",
      "type": "function"
    },
    {
      "inputs": [],
      "name": "DEFAULT_ADMIN_ROLE",
      "outputs": [
        {
          "internalType": "bytes32",
          "name": "",
          "type": "bytes32"
        }
      ],
      "stateMutability": "view",
      "type": "function"
    },
    {
      "inputs": [],
      "name": "GOLD_BOX_LIMIT",
      "outputs": [
        {
          "internalType": "uint16",
          "name": "",
          "type": "uint16"
        }
      ],
      "stateMutability": "view",
      "type": "function"
    },
    {
      "inputs": [],
      "name": "GOLD_BOX_LIMIT_PER_ACC",
      "outputs": [
        {
          "internalType": "uint8",
          "name": "",
          "type": "uint8"
        }
      ],
      "stateMutability": "view",
      "type": "function"
    },
    {
      "inputs": [],
      "name": "GOLD_BOX_PRICE",
      "outputs": [
        {
          "internalType": "uint256",
          "name": "",
          "type": "uint256"
        }
      ],
      "stateMutability": "view",
      "type": "function"
    },
    {
      "inputs": [],
      "name": "GOLD_BOX_PRICE_BNB",
      "outputs": [
        {
          "internalType": "uint256",
          "name": "",
          "type": "uint256"
        }
      ],
      "stateMutability": "view",
      "type": "function"
    },
    {
      "inputs": [],
      "name": "MINTER_ROLE",
      "outputs": [
        {
          "internalType": "bytes32",
          "name": "",
          "type": "bytes32"
        }
      ],
      "stateMutability": "view",
      "type": "function"
    },
    {
      "inputs": [],
      "name": "PAUSER_ROLE",
      "outputs": [
        {
          "internalType": "bytes32",
          "name": "",
          "type": "bytes32"
        }
      ],
      "stateMutability": "view",
      "type": "function"
    },
    {
      "inputs": [],
      "name": "WOOD_BOX_LIMIT",
      "outputs": [
        {
          "internalType": "uint16",
          "name": "",
          "type": "uint16"
        }
      ],
      "stateMutability": "view",
      "type": "function"
    },
    {
      "inputs": [],
      "name": "WOOD_BOX_LIMIT_PER_ACC",
      "outputs": [
        {
          "internalType": "uint8",
          "name": "",
          "type": "uint8"
        }
      ],
      "stateMutability": "view",
      "type": "function"
    },
    {
      "inputs": [],
      "name": "WOOD_BOX_PRICE",
      "outputs": [
        {
          "internalType": "uint256",
          "name": "",
          "type": "uint256"
        }
      ],
      "stateMutability": "view",
      "type": "function"
    },
    {
      "inputs": [],
      "name": "WOOD_BOX_PRICE_BNB",
      "outputs": [
        {
          "internalType": "uint256",
          "name": "",
          "type": "uint256"
        }
      ],
      "stateMutability": "view",
      "type": "function"
    },
    {
      "inputs": [
        {
          "internalType": "uint256",
          "name": "",
          "type": "uint256"
        }
      ],
      "name": "aizaPrices",
      "outputs": [
        {
          "internalType": "uint256",
          "name": "",
          "type": "uint256"
        }
      ],
      "stateMutability": "view",
      "type": "function"
    },
    {
      "inputs": [],
      "name": "aizaWorldToken",
      "outputs": [
        {
          "internalType": "contract IERC20",
          "name": "",
          "type": "address"
        }
      ],
      "stateMutability": "view",
      "type": "function"
    },
    {
      "inputs": [
        {
          "internalType": "uint256",
          "name": "",
          "type": "uint256"
        }
      ],
      "name": "bnBPrices",
      "outputs": [
        {
          "internalType": "uint256",
          "name": "",
          "type": "uint256"
        }
      ],
      "stateMutability": "view",
      "type": "function"
    },
    {
      "inputs": [],
      "name": "characters",
      "outputs": [
        {
          "internalType": "contract Characters",
          "name": "",
          "type": "address"
        }
      ],
      "stateMutability": "view",
      "type": "function"
    },
    {
      "inputs": [],
      "name": "endTime",
      "outputs": [
        {
          "internalType": "uint256",
          "name": "",
          "type": "uint256"
        }
      ],
      "stateMutability": "view",
      "type": "function"
    },
    {
      "inputs": [
        {
          "internalType": "bytes32",
          "name": "role",
          "type": "bytes32"
        }
      ],
      "name": "getRoleAdmin",
      "outputs": [
        {
          "internalType": "bytes32",
          "name": "",
          "type": "bytes32"
        }
      ],
      "stateMutability": "view",
      "type": "function"
    },
    {
      "inputs": [
        {
          "internalType": "bytes32",
          "name": "role",
          "type": "bytes32"
        },
        {
          "internalType": "address",
          "name": "account",
          "type": "address"
        }
      ],
      "name": "grantRole",
      "outputs": [],
      "stateMutability": "nonpayable",
      "type": "function"
    },
    {
      "inputs": [
        {
          "internalType": "bytes32",
          "name": "role",
          "type": "bytes32"
        },
        {
          "internalType": "address",
          "name": "account",
          "type": "address"
        }
      ],
      "name": "hasRole",
      "outputs": [
        {
          "internalType": "bool",
          "name": "",
          "type": "bool"
        }
      ],
      "stateMutability": "view",
      "type": "function"
    },
    {
      "inputs": [
        {
          "internalType": "uint256",
          "name": "",
          "type": "uint256"
        }
      ],
      "name": "numberLimitPerAcc",
      "outputs": [
        {
          "internalType": "uint8",
          "name": "",
          "type": "uint8"
        }
      ],
      "stateMutability": "view",
      "type": "function"
    },
    {
      "inputs": [
        {
          "internalType": "uint256",
          "name": "",
          "type": "uint256"
        }
      ],
      "name": "numberLimitPerEvent",
      "outputs": [
        {
          "internalType": "uint16",
          "name": "",
          "type": "uint16"
        }
      ],
      "stateMutability": "view",
      "type": "function"
    },
    {
      "inputs": [
        {
          "internalType": "bytes32",
          "name": "role",
          "type": "bytes32"
        },
        {
          "internalType": "address",
          "name": "account",
          "type": "address"
        }
      ],
      "name": "renounceRole",
      "outputs": [],
      "stateMutability": "nonpayable",
      "type": "function"
    },
    {
      "inputs": [
        {
          "internalType": "bytes32",
          "name": "role",
          "type": "bytes32"
        },
        {
          "internalType": "address",
          "name": "account",
          "type": "address"
        }
      ],
      "name": "revokeRole",
      "outputs": [],
      "stateMutability": "nonpayable",
      "type": "function"
    },
    {
      "inputs": [],
      "name": "startTime",
      "outputs": [
        {
          "internalType": "uint256",
          "name": "",
          "type": "uint256"
        }
      ],
      "stateMutability": "view",
      "type": "function"
    },
    {
      "inputs": [],
      "name": "supplyBoxs",
      "outputs": [
        {
          "internalType": "contract SupplyBoxs",
          "name": "",
          "type": "address"
        }
      ],
      "stateMutability": "view",
      "type": "function"
    },
    {
      "inputs": [
        {
          "internalType": "bytes4",
          "name": "interfaceId",
          "type": "bytes4"
        }
      ],
      "name": "supportsInterface",
      "outputs": [
        {
          "internalType": "bool",
          "name": "",
          "type": "bool"
        }
      ],
      "stateMutability": "view",
      "type": "function"
    },
    {
      "inputs": [
        {
          "internalType": "address",
          "name": "",
          "type": "address"
        },
        {
          "internalType": "address",
          "name": "",
          "type": "address"
        },
        {
          "internalType": "uint256",
          "name": "",
          "type": "uint256"
        },
        {
          "internalType": "bytes",
          "name": "",
          "type": "bytes"
        }
      ],
      "name": "onERC721Received",
      "outputs": [
        {
          "internalType": "bytes4",
          "name": "",
          "type": "bytes4"
        }
      ],
      "stateMutability": "nonpayable",
      "type": "function"
    },
    {
      "inputs": [
        {
          "internalType": "contract SupplyBoxs",
          "name": "_supplyBoxs",
          "type": "address"
        },
        {
          "internalType": "contract Characters",
          "name": "_characters",
          "type": "address"
        },
        {
          "internalType": "contract IERC20",
          "name": "_aizaWorldToken",
          "type": "address"
        },
        {
          "internalType": "uint256",
          "name": "_startTime",
          "type": "uint256"
        },
        {
          "internalType": "uint256",
          "name": "_endTime",
          "type": "uint256"
        }
      ],
      "name": "initialize",
      "outputs": [],
      "stateMutability": "nonpayable",
      "type": "function"
    },
    {
      "inputs": [
        {
          "internalType": "uint8",
          "name": "rarity",
          "type": "uint8"
        },
        {
          "internalType": "uint8",
          "name": "mintAmount",
          "type": "uint8"
        }
      ],
      "name": "purchaseSupplyBoxByAizaToken",
      "outputs": [],
      "stateMutability": "nonpayable",
      "type": "function"
    },
    {
      "inputs": [
        {
          "internalType": "uint8",
          "name": "rarity",
          "type": "uint8"
        },
        {
          "internalType": "uint8",
          "name": "mintAmount",
          "type": "uint8"
        }
      ],
      "name": "purchaseSupplyBoxByBnB",
      "outputs": [],
      "stateMutability": "payable",
      "type": "function"
    },
    {
      "inputs": [
        {
          "internalType": "uint256",
          "name": "tokenID",
          "type": "uint256"
        }
      ],
      "name": "openBox",
      "outputs": [],
      "stateMutability": "nonpayable",
      "type": "function"
    },
    {
      "inputs": [],
      "name": "withDrawAiza",
      "outputs": [],
      "stateMutability": "nonpayable",
      "type": "function"
    },
    {
      "inputs": [],
      "name": "withDraw",
      "outputs": [],
      "stateMutability": "nonpayable",
      "type": "function"
    },
    {
      "inputs": [
        {
          "internalType": "uint256",
          "name": "_startTime",
          "type": "uint256"
        },
        {
          "internalType": "uint256",
          "name": "_endTime",
          "type": "uint256"
        }
      ],
      "name": "setStartEndTime",
      "outputs": [],
      "stateMutability": "nonpayable",
      "type": "function"
    },
    {
      "inputs": [],
      "name": "getStartEndDate",
      "outputs": [
        {
          "internalType": "uint256[2]",
          "name": "",
          "type": "uint256[2]"
        }
      ],
      "stateMutability": "view",
      "type": "function"
    },
    {
      "inputs": [
        {
          "internalType": "uint8",
          "name": "_rarity",
          "type": "uint8"
        },
        {
          "internalType": "uint256",
          "name": "_newPrice",
          "type": "uint256"
        }
      ],
      "name": "setSupplyBoxAizaPrice",
      "outputs": [],
      "stateMutability": "nonpayable",
      "type": "function"
    },
    {
      "inputs": [
        {
          "internalType": "uint8",
          "name": "_rarity",
          "type": "uint8"
        }
      ],
      "name": "supplyBoxAizaPrice",
      "outputs": [
        {
          "internalType": "uint256",
          "name": "",
          "type": "uint256"
        }
      ],
      "stateMutability": "view",
      "type": "function"
    },
    {
      "inputs": [
        {
          "internalType": "uint8",
          "name": "_rarity",
          "type": "uint8"
        },
        {
          "internalType": "uint256",
          "name": "_newPrice",
          "type": "uint256"
        }
      ],
      "name": "setSupplyBoxBnBPrice",
      "outputs": [],
      "stateMutability": "nonpayable",
      "type": "function"
    },
    {
      "inputs": [
        {
          "internalType": "uint8",
          "name": "_rarity",
          "type": "uint8"
        }
      ],
      "name": "supplyBoxBnBPrice",
      "outputs": [
        {
          "internalType": "uint256",
          "name": "",
          "type": "uint256"
        }
      ],
      "stateMutability": "view",
      "type": "function"
    },
    {
      "inputs": [
        {
          "internalType": "uint8",
          "name": "_rarity",
          "type": "uint8"
        },
        {
          "internalType": "uint8",
          "name": "_newLimit",
          "type": "uint8"
        }
      ],
      "name": "setSupplyBoxLimitPerAcc",
      "outputs": [],
      "stateMutability": "nonpayable",
      "type": "function"
    },
    {
      "inputs": [
        {
          "internalType": "uint8",
          "name": "_rarity",
          "type": "uint8"
        }
      ],
      "name": "supplyBoxLimitPerAcc",
      "outputs": [
        {
          "internalType": "uint8",
          "name": "",
          "type": "uint8"
        }
      ],
      "stateMutability": "view",
      "type": "function"
    },
    {
      "inputs": [
        {
          "internalType": "uint8",
          "name": "_rarity",
          "type": "uint8"
        },
        {
          "internalType": "uint8",
          "name": "_newLimit",
          "type": "uint8"
        }
      ],
      "name": "setSupplyBoxLimit",
      "outputs": [],
      "stateMutability": "nonpayable",
      "type": "function"
    },
    {
      "inputs": [
        {
          "internalType": "uint8",
          "name": "_rarity",
          "type": "uint8"
        }
      ],
      "name": "supplyBoxLimit",
      "outputs": [
        {
          "internalType": "uint256",
          "name": "",
          "type": "uint256"
        }
      ],
      "stateMutability": "view",
      "type": "function"
    },
    {
      "inputs": [
        {
          "internalType": "uint8",
          "name": "_rarity",
          "type": "uint8"
        }
      ],
      "name": "getNumberOfSoldBox",
      "outputs": [
        {
          "internalType": "uint256",
          "name": "",
          "type": "uint256"
        }
      ],
      "stateMutability": "view",
      "type": "function"
    }
  ],
  "bytecode": "0x608060405234801561001057600080fd5b50613189806100206000396000f3fe6080604052600436106102935760003560e01c8063834a31be1161015a578063d070bb54116100c1578063df24a8a31161007a578063df24a8a314610801578063e63ab1e914610816578063e81343ab1461084a578063ec9186191461086a578063fb5bcc001461088c578063fc91f1fe146108ac57600080fd5b8063d070bb5414610738578063d539139314610758578063d547741f1461078c578063d9a5d5b3146107ac578063da2c6ee1146107cc578063dc83d3cb146107e157600080fd5b8063a217fddf11610113578063a217fddf14610691578063a23c922b146106a6578063a6b63eb8146106bb578063a6e154a0146106db578063b1e5e2b7146106fb578063b971ac8b1461071b57600080fd5b8063834a31be146105ec5780638532602e146106025780638e9a77dd1461061e57806391d148541461063e578063938c0b981461065e5780639718c3db1461067157600080fd5b806332da1329116101fe5780634d5ca118116101b75780634d5ca1181461053d5780635cd04b0b1461055a57806369d5c01a1461057a5780636aa362ef1461059a57806378e97925146105b6578063817358bc146105cc57600080fd5b806332da132914610462578063340d33ad1461048257806336568abe1461049e57806346bd0c80146104be57806348d87150146104f65780634cd90b591461051d57600080fd5b8063150b7a0211610250578063150b7a021461038257806318d1efec146103c65780632404d7b5146103e6578063248a9ca3146103fc5780632f2ff15d1461042c5780633197cbb61461044c57600080fd5b806301ffc9a714610298578063072efe5c146102cd578063086aa9a9146103005780630d8001ac146103225780630fdb1c10146103505780631094795414610365575b600080fd5b3480156102a457600080fd5b506102b86102b3366004612d14565b6108c2565b60405190151581526020015b60405180910390f35b3480156102d957600080fd5b506102ed6102e8366004612ccd565b6108f9565b60405161ffff90911681526020016102c4565b34801561030c57600080fd5b5061032061031b366004612e29565b610927565b005b34801561032e57600080fd5b5061034261033d366004612ccd565b610a26565b6040519081526020016102c4565b34801561035c57600080fd5b50610320610a3d565b34801561037157600080fd5b50610342680d02ab486cedc0000081565b34801561038e57600080fd5b506103ad61039d366004612bd4565b630a85bd0160e11b949350505050565b6040516001600160e01b031990911681526020016102c4565b3480156103d257600080fd5b506103206103e1366004612e54565b610a93565b3480156103f257600080fd5b506102ed6107d081565b34801561040857600080fd5b50610342610417366004612ccd565b60009081526065602052604090206001015490565b34801561043857600080fd5b50610320610447366004612ce5565b610ff4565b34801561045857600080fd5b5061034260d55481565b34801561046e57600080fd5b5061032061047d366004612dd0565b61101f565b34801561048e57600080fd5b50610342670354a6ba7a18000081565b3480156104aa57600080fd5b506103206104b9366004612ce5565b6110fb565b3480156104ca57600080fd5b5060c9546104de906001600160a01b031681565b6040516001600160a01b0390911681526020016102c4565b34801561050257600080fd5b5061050b601881565b60405160ff90911681526020016102c4565b34801561052957600080fd5b50610342610538366004612df1565b611179565b34801561054957600080fd5b506103426804563918244f40000081565b34801561056657600080fd5b50610320610575366004612e29565b6111fb565b34801561058657600080fd5b50610342610595366004612df1565b6112eb565b3480156105a657600080fd5b5061034267011c37937e08000081565b3480156105c257600080fd5b5061034260d45481565b3480156105d857600080fd5b5060ca546104de906001600160a01b031681565b3480156105f857600080fd5b506102ed6101f481565b34801561060e57600080fd5b506103426702386f26fc10000081565b34801561062a57600080fd5b50610342610639366004612df1565b611356565b34801561064a57600080fd5b506102b8610659366004612ce5565b6113d0565b61032061066c366004612e54565b6113fb565b34801561067d57600080fd5b5061050b61068c366004612df1565b6116eb565b34801561069d57600080fd5b50610342600081565b3480156106b257600080fd5b5061050b600881565b3480156106c757600080fd5b506103206106d6366004612d3c565b611751565b3480156106e757600080fd5b506103426106f6366004612ccd565b611a83565b34801561070757600080fd5b50610320610716366004612ccd565b611a93565b34801561072757600080fd5b506103426808ac7230489e80000081565b34801561074457600080fd5b5060cb546104de906001600160a01b031681565b34801561076457600080fd5b506103427f9f2df0fed2c77648de5860a4cc508cd0818c85b8b8a1ab4ceeef8d981c8956a681565b34801561079857600080fd5b506103206107a7366004612ce5565b611e43565b3480156107b857600080fd5b5061050b6107c7366004612ccd565b611e69565b3480156107d857600080fd5b50610320611e93565b3480156107ed57600080fd5b506103426107fc366004612df1565b611f42565b34801561080d57600080fd5b5061050b601081565b34801561082257600080fd5b506103427f65d7a28e3265b37a6474929f336521b332c1681b933f6cb9f3376673440d862a81565b34801561085657600080fd5b50610320610865366004612e54565b611f8c565b34801561087657600080fd5b5061087f6120b3565b6040516102c49190612f12565b34801561089857600080fd5b506103206108a7366004612e54565b6120d6565b3480156108b857600080fd5b506102ed6103e881565b60006001600160e01b03198216637965db0b60e01b14806108f357506301ffc9a760e01b6001600160e01b03198316145b92915050565b60d3816003811061090957600080fd5b60109182820401919006600202915054906101000a900461ffff1681565b6109326000336113d0565b6109575760405162461bcd60e51b815260040161094e90612f76565b60405180910390fd5b60028260ff1611156109ab5760405162461bcd60e51b815260206004820152601b60248201527f494e4f202d2045525233313a2052617269747920696e76616c69640000000000604482015260640161094e565b600081116109fb5760405162461bcd60e51b815260206004820152601e60248201527f494e4f202d2045525233323a20426f7820707269636520696e76616c69640000604482015260640161094e565b8060cf8360ff1660038110610a2057634e487b7160e01b600052603260045260246000fd5b01555050565b60cf8160038110610a3657600080fd5b0154905081565b610a486000336113d0565b610a645760405162461bcd60e51b815260040161094e90612f76565b60405133904780156108fc02916000818181858888f19350505050158015610a90573d6000803e3d6000fd5b50565b60026097541415610ab65760405162461bcd60e51b815260040161094e90612fe4565b600260975560028260ff161115610b0f5760405162461bcd60e51b815260206004820152601b60248201527f494e4f202d2045525231343a2052617269747920696e76616c69640000000000604482015260640161094e565b60008160ff16118015610b265750600a8160ff1611155b610b725760405162461bcd60e51b815260206004820181905260248201527f494e4f202d2045525231333a204d696e7420616d6f756e7420696e76616c6964604482015260640161094e565b60cc8260ff1660038110610b9657634e487b7160e01b600052603260045260246000fd5b0154610ba59060ff831661307e565b60c9546040516370a0823160e01b81523360048201526001600160a01b03909116906370a082319060240160206040518083038186803b158015610be857600080fd5b505afa158015610bfc573d6000803e3d6000fd5b505050506040513d601f19601f82011682018060405250810190610c209190612db8565b1015610c7c5760405162461bcd60e51b815260206004820152602560248201527f494e4f202d2045525231353a20496e73756666696369656e742041697a6120626044820152646c616e636560d81b606482015260840161094e565b60008160ff16118015610ccb575060d28260ff1660038110610cae57634e487b7160e01b600052603260045260246000fd5b602081049091015460ff601f9092166101000a9004811690821611155b610d175760405162461bcd60e51b815260206004820181905260248201527f494e4f202d2045525231373a204d696e7420616d6f756e7420696e76616c6964604482015260640161094e565b33600090815260d76020526040812060ff841660038110610d4857634e487b7160e01b600052603260045260246000fd5b602081049091015460ff601f9092166101000a90041610801590610def575060d28260ff1660038110610d8b57634e487b7160e01b600052603260045260246000fd5b60208082049092015433600090815260d7909352604090922060ff601f9092166101000a90920481169190841660038110610dd657634e487b7160e01b600052603260045260246000fd5b602081049091015460ff601f9092166101000a90041611155b610e3b5760405162461bcd60e51b815260206004820181905260248201527f494e4f202d2045525231383a204d696e7420616d6f756e7420696e76616c6964604482015260640161094e565b60c9546001600160a01b03166323b872dd333060cc60ff871660038110610e7257634e487b7160e01b600052603260045260246000fd5b0154610e819060ff871661307e565b6040516001600160e01b031960e086901b1681526001600160a01b0393841660048201529290911660248301526044820152606401602060405180830381600087803b158015610ed057600080fd5b505af1158015610ee4573d6000803e3d6000fd5b505050506040513d601f19601f82011682018060405250810190610f089190612cad565b5033600090815260d760205260409020819060ff841660038110610f3c57634e487b7160e01b600052603260045260246000fd5b602091828204019190068282829054906101000a900460ff16610f5f9190613059565b92506101000a81548160ff021916908360ff1602179055508060ff1660d68360ff1660038110610f9f57634e487b7160e01b600052603260045260246000fd5b601091828204019190066002028282829054906101000a900461ffff16610fc6919061301b565b92506101000a81548161ffff021916908361ffff160217905550610feb338383612206565b50506001609755565b6000828152606560205260409020600101546110108133612373565b61101a83836123d7565b505050565b61102a6000336113d0565b6110465760405162461bcd60e51b815260040161094e90612f76565b81811180156110555750600082115b6110a15760405162461bcd60e51b815260206004820152601b60248201527f494e4f202d2045525232383a2052617269747920696e76616c69640000000000604482015260640161094e565b4282116110f05760405162461bcd60e51b815260206004820152601e60248201527f494e4f202d2045525232393a20426f7820707269636520696e76616c69640000604482015260640161094e565b60d49190915560d555565b6001600160a01b038116331461116b5760405162461bcd60e51b815260206004820152602f60248201527f416363657373436f6e74726f6c3a2063616e206f6e6c792072656e6f756e636560448201526e103937b632b9903337b91039b2b63360891b606482015260840161094e565b611175828261245d565b5050565b600060028260ff1611156111cf5760405162461bcd60e51b815260206004820152601b60248201527f494e4f202d2045525233303a2052617269747920696e76616c69640000000000604482015260640161094e565b60cc8260ff16600381106111f357634e487b7160e01b600052603260045260246000fd5b015492915050565b6112066000336113d0565b6112225760405162461bcd60e51b815260040161094e90612f76565b60028260ff1611156112765760405162461bcd60e51b815260206004820152601b60248201527f494e4f202d2045525232383a2052617269747920696e76616c69640000000000604482015260640161094e565b600081116112c65760405162461bcd60e51b815260206004820152601e60248201527f494e4f202d2045525232393a20426f7820707269636520696e76616c69640000604482015260640161094e565b8060cc8360ff1660038110610a2057634e487b7160e01b600052603260045260246000fd5b600060028260ff1611156113115760405162461bcd60e51b815260040161094e90612fad565b60d38260ff166003811061133557634e487b7160e01b600052603260045260246000fd5b601081049190910154600f9091166002026101000a900461ffff1692915050565b600060028260ff1611156113ac5760405162461bcd60e51b815260206004820152601b60248201527f494e4f202d2045525233333a2052617269747920696e76616c69640000000000604482015260640161094e565b60cf8260ff16600381106111f357634e487b7160e01b600052603260045260246000fd5b60009182526065602090815260408084206001600160a01b0393909316845291905290205460ff1690565b6002609754141561141e5760405162461bcd60e51b815260040161094e90612fe4565b600260975560cf60ff83166003811061144757634e487b7160e01b600052603260045260246000fd5b01546114569060ff831661307e565b3410156114a55760405162461bcd60e51b815260206004820152601e60248201527f494e4f202d2045525231393a20426e622076616c756520696e76616c69640000604482015260640161094e565b60028260ff1611156114f95760405162461bcd60e51b815260206004820152601b60248201527f494e4f202d2045525232303a2072617269747920696e76616c69640000000000604482015260640161094e565b60008160ff16118015611548575060d28260ff166003811061152b57634e487b7160e01b600052603260045260246000fd5b602081049091015460ff601f9092166101000a9004811690821611155b6115945760405162461bcd60e51b815260206004820181905260248201527f494e4f202d2045525232313a204d696e7420616d6f756e7420696e76616c6964604482015260640161094e565b33600090815260d76020526040812060ff8416600381106115c557634e487b7160e01b600052603260045260246000fd5b602081049091015460ff601f9092166101000a9004161080159061166c575060d28260ff166003811061160857634e487b7160e01b600052603260045260246000fd5b60208082049092015433600090815260d7909352604090922060ff601f9092166101000a9092048116919084166003811061165357634e487b7160e01b600052603260045260246000fd5b602081049091015460ff601f9092166101000a90041611155b6116b85760405162461bcd60e51b815260206004820181905260248201527f494e4f202d2045525232333a204d696e7420616d6f756e7420696e76616c6964604482015260640161094e565b33600090815260d760205260409020819060ff841660038110610f3c57634e487b7160e01b600052603260045260246000fd5b600060028260ff1611156117115760405162461bcd60e51b815260040161094e90612fad565b60d28260ff166003811061173557634e487b7160e01b600052603260045260246000fd5b602081049091015460ff601f9092166101000a90041692915050565b600054610100900460ff1661176c5760005460ff1615611770565b303b155b6117d35760405162461bcd60e51b815260206004820152602e60248201527f496e697469616c697a61626c653a20636f6e747261637420697320616c72656160448201526d191e481a5b9a5d1a585b1a5e995960921b606482015260840161094e565b600054610100900460ff161580156117f5576000805461ffff19166101011790555b82821161184f5760405162461bcd60e51b815260206004820152602260248201527f494e4f202d2045525231313a205f656e6454696d65203c205f737461727454696044820152616d6560f01b606482015260840161094e565b6001600160a01b0384166118b15760405162461bcd60e51b815260206004820152602360248201527f494e4f202d2045525231323a20496e76616c696420746f6b656e20636f6e74726044820152621858dd60ea1b606482015260840161094e565b6118bc6000336123d7565b6118e67f65d7a28e3265b37a6474929f336521b332c1681b933f6cb9f3376673440d862a336123d7565b6119107f9f2df0fed2c77648de5860a4cc508cd0818c85b8b8a1ab4ceeef8d981c8956a6336123d7565b604080516060810182526000808252602082018190529181019190915261193b9060d6906003612a07565b5060d483905560d582905560c980546001600160a01b038087166001600160a01b03199283161790925560ca805489841690831617905560cb805492881692909116919091179055604080516060810182526804563918244f40000081526808ac7230489e8000006020820152680d02ab486cedc00000918101919091526119c79060cc906003612a9c565b50604051806060016040528067011c37937e08000081526020016702386f26fc1000008152602001670354a6ba7a18000081525060cf906003611a0b929190612a9c565b50604080516060810182526018815260106020820152600891810191909152611a389060d2906003612aca565b50604080516060810182526107d081526103e860208201526101f491810191909152611a689060d3906003612b4b565b508015611a7b576000805461ff00191690555b505050505050565b60cc8160038110610a3657600080fd5b60026097541415611ab65760405162461bcd60e51b815260040161094e90612fe4565b600260975560ca54604051631eea196160e11b8152600481018390526001600160a01b0390911690633dd432c29060240160206040518083038186803b158015611aff57600080fd5b505afa158015611b13573d6000803e3d6000fd5b505050506040513d601f19601f82011682018060405250810190611b379190612cad565b15611b845760405162461bcd60e51b815260206004820152601b60248201527f494e4f202d2045525231393a20416c7265616479206f70656e65640000000000604482015260640161094e565b60ca54604051632142170760e11b8152336004820152306024820152604481018390526001600160a01b03909116906342842e0e90606401600060405180830381600087803b158015611bd657600080fd5b505af1158015611bea573d6000803e3d6000fd5b505060ca5460405163be7cbe7560e01b815260048101859052600093506001600160a01b03909116915063be7cbe759060240160206040518083038186803b158015611c3557600080fd5b505afa158015611c49573d6000803e3d6000fd5b505050506040513d601f19601f82011682018060405250810190611c6d9190612e0d565b33600090815260d7602052604081209192509060ff831660038110611ca257634e487b7160e01b600052603260045260246000fd5b602081049091015460ff601f9092166101000a9004161115611d2e5733600090815260d76020526040902060019060ff831660038110611cf257634e487b7160e01b600052603260045260246000fd5b602091828204019190068282829054906101000a900460ff16611d15919061309d565b92506101000a81548160ff021916908360ff1602179055505b60ca54604051630852cd8d60e31b8152600481018490526001600160a01b03909116906342966c6890602401600060405180830381600087803b158015611d7457600080fd5b505af1158015611d88573d6000803e3d6000fd5b505060cb546040516341a14d8b60e11b81523360048201819052602482015260ff8516604482015260806064820152600960848201526831b430b930b1ba32b960b91b60a48201526001600160a01b0390911692506383429b16915060c401602060405180830381600087803b158015611e0157600080fd5b505af1158015611e15573d6000803e3d6000fd5b505050506040513d601f19601f82011682018060405250810190611e399190612db8565b5050600160975550565b600082815260656020526040902060010154611e5f8133612373565b61101a838361245d565b60d28160038110611e7957600080fd5b60209182820401919006915054906101000a900460ff1681565b611e9e6000336113d0565b611eba5760405162461bcd60e51b815260040161094e90612f76565b60c9546040516370a0823160e01b8152306004820152611f40916001600160a01b031690339082906370a082319060240160206040518083038186803b158015611f0357600080fd5b505afa158015611f17573d6000803e3d6000fd5b505050506040513d601f19601f82011682018060405250810190611f3b9190612db8565b6124c4565b565b600060028260ff161115611f685760405162461bcd60e51b815260040161094e90612fad565b60d68260ff166003811061133557634e487b7160e01b600052603260045260246000fd5b611f976000336113d0565b611fb35760405162461bcd60e51b815260040161094e90612f76565b60028260ff1611156120075760405162461bcd60e51b815260206004820152601b60248201527f494e4f202d2045525233343a2052617269747920696e76616c69640000000000604482015260640161094e565b60008160ff1611801561201e575060208160ff1610155b61206a5760405162461bcd60e51b815260206004820152601e60248201527f494e4f202d2045525233353a20426f7820707269636520696e76616c69640000604482015260640161094e565b8060d28360ff166003811061208f57634e487b7160e01b600052603260045260246000fd5b602091828204019190066101000a81548160ff021916908360ff1602179055505050565b6120bb612ba1565b506040805180820190915260d454815260d554602082015290565b6120e16000336113d0565b6120fd5760405162461bcd60e51b815260040161094e90612f76565b60028260ff1611156121515760405162461bcd60e51b815260206004820152601b60248201527f494e4f202d2045525233343a2052617269747920696e76616c69640000000000604482015260640161094e565b60008160ff161180156121695750614e208160ff1610155b6121b55760405162461bcd60e51b815260206004820152601e60248201527f494e4f202d2045525233353a20426f7820707269636520696e76616c69640000604482015260640161094e565b8060ff1660d38360ff16600381106121dd57634e487b7160e01b600052603260045260246000fd5b601091828204019190066002026101000a81548161ffff021916908361ffff1602179055505050565b60008160ff1611801561221d5750600a8160ff1611155b6122695760405162461bcd60e51b815260206004820181905260248201527f494e4f202d2045525232343a204d696e7420616d6f756e7420696e76616c6964604482015260640161094e565b60028260ff1611156122bd5760405162461bcd60e51b815260206004820152601b60248201527f494e4f202d2045525232353a2072617269747920696e76616c69640000000000604482015260640161094e565b60ca546040516322faba1d60e01b81526001600160a01b03858116600483015260ff8086166024840152841660448301526080606483015260096084830152680e6eae0e0d8f2c4def60bb1b60a4830152909116906322faba1d9060c401602060405180830381600087803b15801561233557600080fd5b505af1158015612349573d6000803e3d6000fd5b505050506040513d601f19601f8201168201806040525081019061236d9190612d96565b50505050565b61237d82826113d0565b61117557612395816001600160a01b03166014612590565b6123a0836020612590565b6040516020016123b1929190612e9d565b60408051601f198184030181529082905262461bcd60e51b825261094e91600401612f43565b6123e182826113d0565b6111755760008281526065602090815260408083206001600160a01b03851684529091529020805460ff191660011790556124193390565b6001600160a01b0316816001600160a01b0316837f2f8788117e7eff1d82e926ec794901d17c78024a50270940304540a733656f0d60405160405180910390a45050565b61246782826113d0565b156111755760008281526065602090815260408083206001600160a01b0385168085529252808320805460ff1916905551339285917ff6391f5c32d9c69d2a47ea670b442974b53935d1edc7fd64eb21e047a839171b9190a45050565b6001600160a01b0383166125265760405162461bcd60e51b815260206004820152602360248201527f494e4f202d2045525232363a20496e76616c696420746f6b656e20636f6e74726044820152621858dd60ea1b606482015260840161094e565b6001600160a01b03821661257c5760405162461bcd60e51b815260206004820152601f60248201527f494e4f202d2045525232373a20496e76616c696420746f206164647265737300604482015260640161094e565b61101a6001600160a01b0384168383612779565b6060600061259f83600261307e565b6125aa906002613041565b67ffffffffffffffff8111156125d057634e487b7160e01b600052604160045260246000fd5b6040519080825280601f01601f1916602001820160405280156125fa576020820181803683370190505b509050600360fc1b8160008151811061262357634e487b7160e01b600052603260045260246000fd5b60200101906001600160f81b031916908160001a905350600f60fb1b8160018151811061266057634e487b7160e01b600052603260045260246000fd5b60200101906001600160f81b031916908160001a905350600061268484600261307e565b61268f906001613041565b90505b6001811115612723576f181899199a1a9b1b9c1cb0b131b232b360811b85600f16601081106126d157634e487b7160e01b600052603260045260246000fd5b1a60f81b8282815181106126f557634e487b7160e01b600052603260045260246000fd5b60200101906001600160f81b031916908160001a90535060049490941c9361271c816130ec565b9050612692565b5083156127725760405162461bcd60e51b815260206004820181905260248201527f537472696e67733a20686578206c656e67746820696e73756666696369656e74604482015260640161094e565b9392505050565b604080516001600160a01b03848116602483015260448083018590528351808403909101815260649092018352602080830180516001600160e01b031663a9059cbb60e01b17905283518085019094528084527f5361666545524332303a206c6f772d6c6576656c2063616c6c206661696c65649084015261101a92869291600091612809918516908490612886565b80519091501561101a57808060200190518101906128279190612cad565b61101a5760405162461bcd60e51b815260206004820152602a60248201527f5361666545524332303a204552433230206f7065726174696f6e20646964206e6044820152691bdd081cdd58d8d9595960b21b606482015260840161094e565b6060612895848460008561289d565b949350505050565b6060824710156128fe5760405162461bcd60e51b815260206004820152602660248201527f416464726573733a20696e73756666696369656e742062616c616e636520666f6044820152651c8818d85b1b60d21b606482015260840161094e565b6001600160a01b0385163b6129555760405162461bcd60e51b815260206004820152601d60248201527f416464726573733a2063616c6c20746f206e6f6e2d636f6e7472616374000000604482015260640161094e565b600080866001600160a01b031685876040516129719190612e81565b60006040518083038185875af1925050503d80600081146129ae576040519150601f19603f3d011682016040523d82523d6000602084013e6129b3565b606091505b50915091506129c38282866129ce565b979650505050505050565b606083156129dd575081612772565b8251156129ed5782518084602001fd5b8160405162461bcd60e51b815260040161094e9190612f43565b600183019183908215612a8c5791602002820160005b83821115612a5c57835183826101000a81548161ffff021916908360ff1602179055509260200192600201602081600101049283019260010302612a1d565b8015612a8a5782816101000a81549061ffff0219169055600201602081600101049283019260010302612a5c565b505b50612a98929150612bbf565b5090565b8260038101928215612a8c579160200282015b82811115612a8c578251825591602001919060010190612aaf565b600183019183908215612a8c5791602002820160005b83821115612b1e57835183826101000a81548160ff021916908360ff1602179055509260200192600101602081600001049283019260010302612ae0565b8015612a8a5782816101000a81549060ff0219169055600101602081600001049283019260010302612b1e565b600183019183908215612a8c5791602002820160005b83821115612a5c57835183826101000a81548161ffff021916908361ffff1602179055509260200192600201602081600101049283019260010302612b61565b60405180604001604052806002906020820280368337509192915050565b5b80821115612a985760008155600101612bc0565b60008060008060808587031215612be9578384fd5b8435612bf48161312f565b93506020850135612c048161312f565b925060408501359150606085013567ffffffffffffffff80821115612c27578283fd5b818701915087601f830112612c3a578283fd5b813581811115612c4c57612c4c613119565b604051601f8201601f19908116603f01168101908382118183101715612c7457612c74613119565b816040528281528a6020848701011115612c8c578586fd5b82602086016020830137918201602001949094529598949750929550505050565b600060208284031215612cbe578081fd5b81518015158114612772578182fd5b600060208284031215612cde578081fd5b5035919050565b60008060408385031215612cf7578182fd5b823591506020830135612d098161312f565b809150509250929050565b600060208284031215612d25578081fd5b81356001600160e01b031981168114612772578182fd5b600080600080600060a08688031215612d53578081fd5b8535612d5e8161312f565b94506020860135612d6e8161312f565b93506040860135612d7e8161312f565b94979396509394606081013594506080013592915050565b600060208284031215612da7578081fd5b815161ffff81168114612772578182fd5b600060208284031215612dc9578081fd5b5051919050565b60008060408385031215612de2578182fd5b50508035926020909101359150565b600060208284031215612e02578081fd5b813561277281613144565b600060208284031215612e1e578081fd5b815161277281613144565b60008060408385031215612e3b578182fd5b8235612e4681613144565b946020939093013593505050565b60008060408385031215612e66578182fd5b8235612e7181613144565b91506020830135612d0981613144565b60008251612e938184602087016130c0565b9190910192915050565b7f416363657373436f6e74726f6c3a206163636f756e7420000000000000000000815260008351612ed58160178501602088016130c0565b7001034b99036b4b9b9b4b733903937b6329607d1b6017918401918201528351612f068160288401602088016130c0565b01602801949350505050565b60408101818360005b6002811015612f3a578151835260209283019290910190600101612f1b565b50505092915050565b6020815260008251806020840152612f628160408501602087016130c0565b601f01601f19169190910160400192915050565b60208082526017908201527f494e4f202d204345525230313a204e6f742061646d696e000000000000000000604082015260600190565b6020808252601b908201527f494e4f202d2045525233363a2052617269747920696e76616c69640000000000604082015260600190565b6020808252601f908201527f5265656e7472616e637947756172643a207265656e7472616e742063616c6c00604082015260600190565b600061ffff80831681851680830382111561303857613038613103565b01949350505050565b6000821982111561305457613054613103565b500190565b600060ff821660ff84168060ff0382111561307657613076613103565b019392505050565b600081600019048311821515161561309857613098613103565b500290565b600060ff821660ff8416808210156130b7576130b7613103565b90039392505050565b60005b838110156130db5781810151838201526020016130c3565b8381111561236d5750506000910152565b6000816130fb576130fb613103565b506000190190565b634e487b7160e01b600052601160045260246000fd5b634e487b7160e01b600052604160045260246000fd5b6001600160a01b0381168114610a9057600080fd5b60ff81168114610a9057600080fdfea2646970667358221220587aa60a4ba69aafe60a0d1d085f9d05a4484bbc872b356db9a2fa247b6e432b64736f6c63430008040033",
  "immutableReferences": {},
  "source": "// SPDX-License-Identifier: MIT\npragma solidity ^0.8.4;\n\nimport \"@openzeppelin/contracts-upgradeable/proxy/utils/Initializable.sol\";\nimport \"@openzeppelin/contracts-upgradeable/access/AccessControlUpgradeable.sol\";\nimport \"@openzeppelin/contracts-upgradeable/security/ReentrancyGuardUpgradeable.sol\";\nimport \"@openzeppelin/contracts/token/ERC20/IERC20.sol\";\nimport \"@openzeppelin/contracts/token/ERC20/utils/SafeERC20.sol\";\n\nimport \"./SupplyBoxs.sol\";\nimport \"./Characters.sol\";\n\ncontract INO is\n    Initializable,\n    AccessControlUpgradeable,\n    ReentrancyGuardUpgradeable\n{\n    using SafeERC20 for IERC20;\n\n    IERC20 public aizaWorldToken;\n    SupplyBoxs public supplyBoxs;\n    Characters public characters;\n\n    bytes32 public constant PAUSER_ROLE = keccak256(\"PAUSER_ROLE\");\n    bytes32 public constant MINTER_ROLE = keccak256(\"MINTER_ROLE\");\n\n    // 48 USD / 0.6 = 80 AIZA ~ 0.08 BNB\n    uint256 public constant WOOD_BOX_PRICE = 80 ether; // In AIZA\n    uint256 public constant WOOD_BOX_PRICE_BNB = 0.08 ether; // In BnB\n    uint256 public constant BLUE_BOX_PRICE = 160 ether; // In AIZA\n    uint256 public constant BLUE_BOX_PRICE_BNB = 0.16 ether; // In BnB\n    uint256 public constant GOLD_BOX_PRICE = 240 ether; // In AIZA\n    uint256 public constant GOLD_BOX_PRICE_BNB = 0.24 ether; // In BnB\n\n    uint8 public constant WOOD_BOX_LIMIT_PER_ACC = 24;\n    uint8 public constant BLUE_BOX_LIMIT_PER_ACC = 16;\n    uint8 public constant GOLD_BOX_LIMIT_PER_ACC = 8;\n\n    uint16 public constant WOOD_BOX_LIMIT = 2000;\n    uint16 public constant BLUE_BOX_LIMIT = 1000;\n    uint16 public constant GOLD_BOX_LIMIT = 500;\n\n    uint256[3] public aizaPrices;\n    uint256[3] public bnBPrices;\n\n    uint8[3] public numberLimitPerAcc;\n    uint16[3] public numberLimitPerEvent;\n    uint256 public startTime;\n    uint256 public endTime;\n\n    uint16[3] private numberOfSoldBox;\n\n    mapping(address => uint8[3]) private numberOfOwnedBox;\n\n    modifier isAdmin() {\n        require(\n            hasRole(DEFAULT_ADMIN_ROLE, msg.sender),\n            \"INO - CERR01: Not admin\"\n        );\n        _;\n    }\n\n    function onERC721Received(\n        address,\n        address,\n        uint256,\n        bytes memory\n    ) public virtual returns (bytes4) {\n        return this.onERC721Received.selector;\n    }\n\n    function initialize(\n        SupplyBoxs _supplyBoxs,\n        Characters _characters,\n        IERC20 _aizaWorldToken,\n        uint256 _startTime,\n        uint256 _endTime\n    ) public initializer {\n        require(_endTime > _startTime, \"INO - ERR11: _endTime < _startTime\");\n\n        require(\n            _aizaWorldToken != IERC20(address(0)),\n            \"INO - ERR12: Invalid token contract\"\n        );\n\n        _grantRole(DEFAULT_ADMIN_ROLE, msg.sender);\n        _grantRole(PAUSER_ROLE, msg.sender);\n        _grantRole(MINTER_ROLE, msg.sender);\n\n        numberOfSoldBox = [0, 0, 0];\n        startTime = _startTime;\n        endTime = _endTime;\n\n        aizaWorldToken = _aizaWorldToken;\n        supplyBoxs = _supplyBoxs;\n        characters = _characters;\n\n        aizaPrices = [WOOD_BOX_PRICE, BLUE_BOX_PRICE, GOLD_BOX_PRICE];\n        bnBPrices = [\n            WOOD_BOX_PRICE_BNB,\n            BLUE_BOX_PRICE_BNB,\n            GOLD_BOX_PRICE_BNB\n        ];\n\n        numberLimitPerAcc = [\n            WOOD_BOX_LIMIT_PER_ACC,\n            BLUE_BOX_LIMIT_PER_ACC,\n            GOLD_BOX_LIMIT_PER_ACC\n        ];\n\n        numberLimitPerEvent = [WOOD_BOX_LIMIT, BLUE_BOX_LIMIT, GOLD_BOX_LIMIT];\n    }\n\n    function purchaseSupplyBoxByAizaToken(uint8 rarity, uint8 mintAmount)\n        public\n        nonReentrant\n    {\n        require(rarity >= 0 && rarity <= 2, \"INO - ERR14: Rarity invalid\");\n\n        require(\n            mintAmount > 0 && mintAmount <= 10,\n            \"INO - ERR13: Mint amount invalid\"\n        );\n\n        require(\n            aizaWorldToken.balanceOf(msg.sender) >=\n                mintAmount * aizaPrices[rarity],\n            \"INO - ERR15: Insufficient Aiza blance\"\n        );\n\n        require(\n            mintAmount > 0 && mintAmount <= numberLimitPerAcc[rarity],\n            \"INO - ERR17: Mint amount invalid\"\n        );\n\n        require(\n            numberOfOwnedBox[msg.sender][rarity] >= 0 &&\n                numberOfOwnedBox[msg.sender][rarity] <=\n                numberLimitPerAcc[rarity],\n            \"INO - ERR18: Mint amount invalid\"\n        );\n\n        // require(\n        //     block.timestamp >= startTime && block.timestamp <= endTime,\n        //     \"INO - ERR16: Event end\"\n        // );\n\n        aizaWorldToken.transferFrom(\n            msg.sender,\n            address(this),\n            mintAmount * aizaPrices[rarity]\n        );\n\n        numberOfOwnedBox[msg.sender][rarity] += mintAmount;\n        numberOfSoldBox[rarity] += mintAmount;\n\n        payBoxForUser(msg.sender, rarity, mintAmount);\n    }\n\n    function purchaseSupplyBoxByBnB(uint8 rarity, uint8 mintAmount)\n        external\n        payable\n        nonReentrant\n    {\n        require(\n            msg.value >= mintAmount * bnBPrices[rarity],\n            \"INO - ERR19: Bnb value invalid\"\n        );\n\n        require(rarity >= 0 && rarity <= 2, \"INO - ERR20: rarity invalid\");\n\n        require(\n            mintAmount > 0 && mintAmount <= numberLimitPerAcc[rarity],\n            \"INO - ERR21: Mint amount invalid\"\n        );\n\n        require(\n            numberOfOwnedBox[msg.sender][rarity] >= 0 &&\n                numberOfOwnedBox[msg.sender][rarity] <=\n                numberLimitPerAcc[rarity],\n            \"INO - ERR23: Mint amount invalid\"\n        );\n\n        // require(\n        //     block.timestamp > startTime && block.timestamp <= endTime,\n        //     \"INO - ERR22: Event end\"\n        // );\n\n        numberOfOwnedBox[msg.sender][rarity] += mintAmount;\n        numberOfSoldBox[rarity] += mintAmount;\n\n        payBoxForUser(msg.sender, rarity, mintAmount);\n    }\n\n    function payBoxForUser(\n        address buyer,\n        uint8 rarity,\n        uint8 mintAmount\n    ) internal {\n        require(\n            mintAmount > 0 && mintAmount <= 10,\n            \"INO - ERR24: Mint amount invalid\"\n        );\n\n        require(rarity >= 0 && rarity <= 2, \"INO - ERR25: rarity invalid\");\n\n        supplyBoxs.mintBatch(buyer, rarity, mintAmount, \"supplybox\");\n    }\n\n    function openBox(uint256 tokenID) external nonReentrant {\n        require(tokenID >= 0, \"INO - ERR19: tokenID invalid\");\n        // Get isOpen\n        require(\n            supplyBoxs.getStatusById(tokenID) == false,\n            \"INO - ERR19: Already opened\"\n        );\n\n        // Send NFT to this contract\n        supplyBoxs.safeTransferFrom(msg.sender, address(this), tokenID);\n\n        // Get rarity\n        uint8 rarity = supplyBoxs.getRarityById(tokenID);\n\n        // Decrease\n        if (numberOfOwnedBox[msg.sender][rarity] > 0) {\n            numberOfOwnedBox[msg.sender][rarity] -= 1;\n        }\n\n        // Burn the token\n        supplyBoxs.burn(tokenID);\n\n        // Mint new token\n        characters.mintWithRarity(msg.sender, msg.sender, rarity, \"character\");\n    }\n\n    function _safeTransfer(\n        IERC20 _token,\n        address _to,\n        uint256 _amount\n    ) internal {\n        require(\n            _token != IERC20(address(0)),\n            \"INO - ERR26: Invalid token contract\"\n        );\n\n        require(_to != address(0), \"INO - ERR27: Invalid to address\");\n\n        _token.safeTransfer(_to, _amount);\n    }\n\n    function withDrawAiza() external isAdmin {\n        _safeTransfer(\n            aizaWorldToken,\n            msg.sender,\n            aizaWorldToken.balanceOf(address(this))\n        );\n    }\n\n    function withDraw() external isAdmin {\n        payable(msg.sender).transfer(address(this).balance);\n    }\n\n    // Set, get area\n    function setStartEndTime(uint256 _startTime, uint256 _endTime)\n        external\n        isAdmin\n    {\n        require(\n            _endTime > _startTime && _startTime > 0,\n            \"INO - ERR28: Rarity invalid\"\n        );\n        require(_startTime > block.timestamp, \"INO - ERR29: Box price invalid\");\n\n        startTime = _startTime;\n        endTime = _endTime;\n    }\n\n    function getStartEndDate() public view returns (uint256[2] memory) {\n        return [startTime, endTime];\n    }\n\n    function setSupplyBoxAizaPrice(uint8 _rarity, uint256 _newPrice)\n        external\n        isAdmin\n    {\n        require(_rarity >= 0 && _rarity <= 2, \"INO - ERR28: Rarity invalid\");\n        require(_newPrice > 0, \"INO - ERR29: Box price invalid\");\n\n        aizaPrices[_rarity] = _newPrice;\n    }\n\n    function supplyBoxAizaPrice(uint8 _rarity) public view returns (uint256) {\n        require(_rarity >= 0 && _rarity <= 2, \"INO - ERR30: Rarity invalid\");\n\n        return aizaPrices[_rarity];\n    }\n\n    function setSupplyBoxBnBPrice(uint8 _rarity, uint256 _newPrice)\n        external\n        isAdmin\n    {\n        require(_rarity >= 0 && _rarity <= 2, \"INO - ERR31: Rarity invalid\");\n        require(_newPrice > 0, \"INO - ERR32: Box price invalid\");\n\n        bnBPrices[_rarity] = _newPrice;\n    }\n\n    function supplyBoxBnBPrice(uint8 _rarity) public view returns (uint256) {\n        require(_rarity >= 0 && _rarity <= 2, \"INO - ERR33: Rarity invalid\");\n\n        return bnBPrices[_rarity];\n    }\n\n    function setSupplyBoxLimitPerAcc(uint8 _rarity, uint8 _newLimit)\n        external\n        isAdmin\n    {\n        require(_rarity >= 0 && _rarity <= 2, \"INO - ERR34: Rarity invalid\");\n        require(\n            _newLimit > 0 && _newLimit >= 32,\n            \"INO - ERR35: Box price invalid\"\n        );\n\n        numberLimitPerAcc[_rarity] = _newLimit;\n    }\n\n    function supplyBoxLimitPerAcc(uint8 _rarity) public view returns (uint8) {\n        require(_rarity >= 0 && _rarity <= 2, \"INO - ERR36: Rarity invalid\");\n\n        return numberLimitPerAcc[_rarity];\n    }\n\n    function setSupplyBoxLimit(uint8 _rarity, uint8 _newLimit)\n        external\n        isAdmin\n    {\n        require(_rarity >= 0 && _rarity <= 2, \"INO - ERR34: Rarity invalid\");\n        require(\n            _newLimit > 0 && _newLimit >= 20000,\n            \"INO - ERR35: Box price invalid\"\n        );\n\n        numberLimitPerEvent[_rarity] = _newLimit;\n    }\n\n    function supplyBoxLimit(uint8 _rarity) public view returns (uint256) {\n        require(_rarity >= 0 && _rarity <= 2, \"INO - ERR36: Rarity invalid\");\n\n        return numberLimitPerEvent[_rarity];\n    }\n\n    function getNumberOfSoldBox(uint8 _rarity) public view returns (uint256) {\n        require(_rarity >= 0 && _rarity <= 2, \"INO - ERR36: Rarity invalid\");\n\n        return numberOfSoldBox[_rarity];\n    }\n}\n",
  "sourcePath": "/Users/jacknguyen/Desktop/tdu-git/aiza-contracts/contracts/INO.sol",
  "compiler": {
    "name": "solc",
    "version": "0.8.4+commit.c7e474f2.Emscripten.clang"
  },
  "schemaVersion": "3.4.6",
  "updatedAt": "2022-04-10T11:27:04.947Z",
  "devdoc": {
    "kind": "dev",
    "methods": {
      "getRoleAdmin(bytes32)": {
        "details": "Returns the admin role that controls `role`. See {grantRole} and {revokeRole}. To change a role's admin, use {_setRoleAdmin}."
      },
      "grantRole(bytes32,address)": {
        "details": "Grants `role` to `account`. If `account` had not been already granted `role`, emits a {RoleGranted} event. Requirements: - the caller must have ``role``'s admin role."
      },
      "hasRole(bytes32,address)": {
        "details": "Returns `true` if `account` has been granted `role`."
      },
      "renounceRole(bytes32,address)": {
        "details": "Revokes `role` from the calling account. Roles are often managed via {grantRole} and {revokeRole}: this function's purpose is to provide a mechanism for accounts to lose their privileges if they are compromised (such as when a trusted device is misplaced). If the calling account had been revoked `role`, emits a {RoleRevoked} event. Requirements: - the caller must be `account`."
      },
      "revokeRole(bytes32,address)": {
        "details": "Revokes `role` from `account`. If `account` had been granted `role`, emits a {RoleRevoked} event. Requirements: - the caller must have ``role``'s admin role."
      },
      "supportsInterface(bytes4)": {
        "details": "See {IERC165-supportsInterface}."
      }
    },
    "version": 1
  },
  "userdoc": {
    "kind": "user",
    "methods": {},
    "version": 1
  }
}