{
  "contractName": "NFTMarket",
  "abi": [
    {
      "anonymous": false,
      "inputs": [
        {
          "indexed": true,
          "internalType": "address",
          "name": "seller",
          "type": "address"
        },
        {
          "indexed": true,
          "internalType": "contract IERC721",
          "name": "nftAddress",
          "type": "address"
        },
        {
          "indexed": true,
          "internalType": "uint256",
          "name": "nftID",
          "type": "uint256"
        }
      ],
      "name": "CancelledListing",
      "type": "event"
    },
    {
      "anonymous": false,
      "inputs": [
        {
          "indexed": true,
          "internalType": "address",
          "name": "seller",
          "type": "address"
        },
        {
          "indexed": true,
          "internalType": "contract IERC721",
          "name": "nftAddress",
          "type": "address"
        },
        {
          "indexed": true,
          "internalType": "uint256",
          "name": "nftID",
          "type": "uint256"
        },
        {
          "indexed": false,
          "internalType": "uint256",
          "name": "newPrice",
          "type": "uint256"
        }
      ],
      "name": "ListingPriceChange",
      "type": "event"
    },
    {
      "anonymous": false,
      "inputs": [
        {
          "indexed": true,
          "internalType": "address",
          "name": "seller",
          "type": "address"
        },
        {
          "indexed": true,
          "internalType": "contract IERC721",
          "name": "nftAddress",
          "type": "address"
        },
        {
          "indexed": true,
          "internalType": "uint256",
          "name": "nftID",
          "type": "uint256"
        },
        {
          "indexed": false,
          "internalType": "address",
          "name": "newTargetBuyer",
          "type": "address"
        }
      ],
      "name": "ListingTargetBuyerChange",
      "type": "event"
    },
    {
      "anonymous": false,
      "inputs": [
        {
          "indexed": true,
          "internalType": "address",
          "name": "seller",
          "type": "address"
        },
        {
          "indexed": true,
          "internalType": "contract IERC721",
          "name": "nftAddress",
          "type": "address"
        },
        {
          "indexed": true,
          "internalType": "uint256",
          "name": "nftID",
          "type": "uint256"
        },
        {
          "indexed": false,
          "internalType": "uint256",
          "name": "price",
          "type": "uint256"
        },
        {
          "indexed": false,
          "internalType": "address",
          "name": "targetBuyer",
          "type": "address"
        }
      ],
      "name": "NewListing",
      "type": "event"
    },
    {
      "anonymous": false,
      "inputs": [
        {
          "indexed": true,
          "internalType": "address",
          "name": "buyer",
          "type": "address"
        },
        {
          "indexed": false,
          "internalType": "address",
          "name": "seller",
          "type": "address"
        },
        {
          "indexed": true,
          "internalType": "contract IERC721",
          "name": "nftAddress",
          "type": "address"
        },
        {
          "indexed": true,
          "internalType": "uint256",
          "name": "nftID",
          "type": "uint256"
        },
        {
          "indexed": false,
          "internalType": "uint256",
          "name": "price",
          "type": "uint256"
        }
      ],
      "name": "PurchasedListing",
      "type": "event"
    },
    {
      "anonymous": false,
      "inputs": [
        {
          "indexed": true,
          "internalType": "bytes32",
          "name": "role",
          "type": "bytes32"
        },
        {
          "indexed": true,
          "internalType": "bytes32",
          "name": "previousAdminRole",
          "type": "bytes32"
        },
        {
          "indexed": true,
          "internalType": "bytes32",
          "name": "newAdminRole",
          "type": "bytes32"
        }
      ],
      "name": "RoleAdminChanged",
      "type": "event"
    },
    {
      "anonymous": false,
      "inputs": [
        {
          "indexed": true,
          "internalType": "bytes32",
          "name": "role",
          "type": "bytes32"
        },
        {
          "indexed": true,
          "internalType": "address",
          "name": "account",
          "type": "address"
        },
        {
          "indexed": true,
          "internalType": "address",
          "name": "sender",
          "type": "address"
        }
      ],
      "name": "RoleGranted",
      "type": "event"
    },
    {
      "anonymous": false,
      "inputs": [
        {
          "indexed": true,
          "internalType": "bytes32",
          "name": "role",
          "type": "bytes32"
        },
        {
          "indexed": true,
          "internalType": "address",
          "name": "account",
          "type": "address"
        },
        {
          "indexed": true,
          "internalType": "address",
          "name": "sender",
          "type": "address"
        }
      ],
      "name": "RoleRevoked",
      "type": "event"
    },
    {
      "inputs": [],
      "name": "DEFAULT_ADMIN_ROLE",
      "outputs": [
        {
          "internalType": "bytes32",
          "name": "",
          "type": "bytes32"
        }
      ],
      "stateMutability": "view",
      "type": "function"
    },
    {
      "inputs": [],
      "name": "GAME_ADMIN",
      "outputs": [
        {
          "internalType": "bytes32",
          "name": "",
          "type": "bytes32"
        }
      ],
      "stateMutability": "view",
      "type": "function"
    },
    {
      "inputs": [],
      "name": "addFee",
      "outputs": [
        {
          "internalType": "int128",
          "name": "",
          "type": "int128"
        }
      ],
      "stateMutability": "view",
      "type": "function"
    },
    {
      "inputs": [],
      "name": "aizaWorldToken",
      "outputs": [
        {
          "internalType": "contract IERC20",
          "name": "",
          "type": "address"
        }
      ],
      "stateMutability": "view",
      "type": "function"
    },
    {
      "inputs": [],
      "name": "changeFee",
      "outputs": [
        {
          "internalType": "int128",
          "name": "",
          "type": "int128"
        }
      ],
      "stateMutability": "view",
      "type": "function"
    },
    {
      "inputs": [],
      "name": "defaultTax",
      "outputs": [
        {
          "internalType": "int128",
          "name": "",
          "type": "int128"
        }
      ],
      "stateMutability": "view",
      "type": "function"
    },
    {
      "inputs": [
        {
          "internalType": "bytes32",
          "name": "role",
          "type": "bytes32"
        }
      ],
      "name": "getRoleAdmin",
      "outputs": [
        {
          "internalType": "bytes32",
          "name": "",
          "type": "bytes32"
        }
      ],
      "stateMutability": "view",
      "type": "function"
    },
    {
      "inputs": [
        {
          "internalType": "bytes32",
          "name": "role",
          "type": "bytes32"
        },
        {
          "internalType": "address",
          "name": "account",
          "type": "address"
        }
      ],
      "name": "grantRole",
      "outputs": [],
      "stateMutability": "nonpayable",
      "type": "function"
    },
    {
      "inputs": [
        {
          "internalType": "bytes32",
          "name": "role",
          "type": "bytes32"
        },
        {
          "internalType": "address",
          "name": "account",
          "type": "address"
        }
      ],
      "name": "hasRole",
      "outputs": [
        {
          "internalType": "bool",
          "name": "",
          "type": "bool"
        }
      ],
      "stateMutability": "view",
      "type": "function"
    },
    {
      "inputs": [
        {
          "internalType": "address",
          "name": "",
          "type": "address"
        }
      ],
      "name": "isTokenBanned",
      "outputs": [
        {
          "internalType": "bool",
          "name": "",
          "type": "bool"
        }
      ],
      "stateMutability": "view",
      "type": "function"
    },
    {
      "inputs": [
        {
          "internalType": "address",
          "name": "",
          "type": "address"
        }
      ],
      "name": "isUserBanned",
      "outputs": [
        {
          "internalType": "bool",
          "name": "",
          "type": "bool"
        }
      ],
      "stateMutability": "view",
      "type": "function"
    },
    {
      "inputs": [],
      "name": "priceOracleAizaPerUsd",
      "outputs": [
        {
          "internalType": "contract IPriceOracle",
          "name": "",
          "type": "address"
        }
      ],
      "stateMutability": "view",
      "type": "function"
    },
    {
      "inputs": [
        {
          "internalType": "bytes32",
          "name": "role",
          "type": "bytes32"
        },
        {
          "internalType": "address",
          "name": "account",
          "type": "address"
        }
      ],
      "name": "renounceRole",
      "outputs": [],
      "stateMutability": "nonpayable",
      "type": "function"
    },
    {
      "inputs": [
        {
          "internalType": "bytes32",
          "name": "role",
          "type": "bytes32"
        },
        {
          "internalType": "address",
          "name": "account",
          "type": "address"
        }
      ],
      "name": "revokeRole",
      "outputs": [],
      "stateMutability": "nonpayable",
      "type": "function"
    },
    {
      "inputs": [
        {
          "internalType": "bytes4",
          "name": "interfaceId",
          "type": "bytes4"
        }
      ],
      "name": "supportsInterface",
      "outputs": [
        {
          "internalType": "bool",
          "name": "",
          "type": "bool"
        }
      ],
      "stateMutability": "view",
      "type": "function"
    },
    {
      "inputs": [
        {
          "internalType": "address",
          "name": "",
          "type": "address"
        }
      ],
      "name": "tax",
      "outputs": [
        {
          "internalType": "int128",
          "name": "",
          "type": "int128"
        }
      ],
      "stateMutability": "view",
      "type": "function"
    },
    {
      "inputs": [],
      "name": "taxRecipient",
      "outputs": [
        {
          "internalType": "address",
          "name": "",
          "type": "address"
        }
      ],
      "stateMutability": "view",
      "type": "function"
    },
    {
      "inputs": [
        {
          "internalType": "contract IERC20",
          "name": "_aizaWorldToken",
          "type": "address"
        },
        {
          "internalType": "address",
          "name": "_taxRecipient",
          "type": "address"
        },
        {
          "internalType": "contract Characters",
          "name": "_charactersContract",
          "type": "address"
        },
        {
          "internalType": "contract SupplyBoxs",
          "name": "_supplyBoxsContract",
          "type": "address"
        },
        {
          "internalType": "contract IPriceOracle",
          "name": "_priceOracleAizaPerUsd",
          "type": "address"
        }
      ],
      "name": "initialize",
      "outputs": [],
      "stateMutability": "nonpayable",
      "type": "function"
    },
    {
      "inputs": [
        {
          "internalType": "contract IERC721",
          "name": "_tokenAddress",
          "type": "address"
        }
      ],
      "name": "isTokenAllowed",
      "outputs": [
        {
          "internalType": "bool",
          "name": "",
          "type": "bool"
        }
      ],
      "stateMutability": "view",
      "type": "function"
    },
    {
      "inputs": [],
      "name": "getAllowedTokenTypes",
      "outputs": [
        {
          "internalType": "contract IERC721[]",
          "name": "",
          "type": "address[]"
        }
      ],
      "stateMutability": "view",
      "type": "function"
    },
    {
      "inputs": [
        {
          "internalType": "contract IERC721",
          "name": "_tokenAddress",
          "type": "address"
        },
        {
          "internalType": "uint256",
          "name": "_tokenId",
          "type": "uint256"
        }
      ],
      "name": "getSellerOfNftID",
      "outputs": [
        {
          "internalType": "address",
          "name": "",
          "type": "address"
        }
      ],
      "stateMutability": "view",
      "type": "function"
    },
    {
      "inputs": [],
      "name": "defaultTaxAsRoundedPercentRoughEstimate",
      "outputs": [
        {
          "internalType": "uint256",
          "name": "",
          "type": "uint256"
        }
      ],
      "stateMutability": "view",
      "type": "function"
    },
    {
      "inputs": [],
      "name": "getListedTokenTypes",
      "outputs": [
        {
          "internalType": "contract IERC721[]",
          "name": "",
          "type": "address[]"
        }
      ],
      "stateMutability": "view",
      "type": "function"
    },
    {
      "inputs": [
        {
          "internalType": "contract IERC721",
          "name": "_tokenAddress",
          "type": "address"
        }
      ],
      "name": "getListingIDs",
      "outputs": [
        {
          "internalType": "uint256[]",
          "name": "",
          "type": "uint256[]"
        }
      ],
      "stateMutability": "view",
      "type": "function"
    },
    {
      "inputs": [
        {
          "internalType": "contract IERC721",
          "name": "_tokenAddress",
          "type": "address"
        },
        {
          "internalType": "address",
          "name": "_seller",
          "type": "address"
        }
      ],
      "name": "getNumberOfListingsBySeller",
      "outputs": [
        {
          "internalType": "uint256",
          "name": "",
          "type": "uint256"
        }
      ],
      "stateMutability": "view",
      "type": "function"
    },
    {
      "inputs": [
        {
          "internalType": "contract IERC721",
          "name": "_tokenAddress",
          "type": "address"
        },
        {
          "internalType": "address",
          "name": "_seller",
          "type": "address"
        }
      ],
      "name": "getListingIDsBySeller",
      "outputs": [
        {
          "internalType": "uint256[]",
          "name": "tokens",
          "type": "uint256[]"
        }
      ],
      "stateMutability": "view",
      "type": "function"
    },
    {
      "inputs": [
        {
          "internalType": "contract IERC721",
          "name": "_tokenAddress",
          "type": "address"
        }
      ],
      "name": "getNumberOfListingsForToken",
      "outputs": [
        {
          "internalType": "uint256",
          "name": "",
          "type": "uint256"
        }
      ],
      "stateMutability": "view",
      "type": "function"
    },
    {
      "inputs": [
        {
          "internalType": "contract IERC721",
          "name": "_tokenAddress",
          "type": "address"
        },
        {
          "internalType": "uint8",
          "name": "_trait",
          "type": "uint8"
        },
        {
          "internalType": "uint8",
          "name": "_minLevel",
          "type": "uint8"
        },
        {
          "internalType": "uint8",
          "name": "_maxLevel",
          "type": "uint8"
        }
      ],
      "name": "getNumberOfCharacterListings",
      "outputs": [
        {
          "internalType": "uint256",
          "name": "",
          "type": "uint256"
        }
      ],
      "stateMutability": "view",
      "type": "function"
    },
    {
      "inputs": [
        {
          "internalType": "contract IERC721",
          "name": "_tokenAddress",
          "type": "address"
        }
      ],
      "name": "getNumberOfSupplyBoxListings",
      "outputs": [
        {
          "internalType": "uint256",
          "name": "",
          "type": "uint256"
        }
      ],
      "stateMutability": "view",
      "type": "function"
    },
    {
      "inputs": [
        {
          "internalType": "contract IERC721",
          "name": "_tokenAddress",
          "type": "address"
        },
        {
          "internalType": "uint256",
          "name": "_id",
          "type": "uint256"
        }
      ],
      "name": "getSellerPrice",
      "outputs": [
        {
          "internalType": "uint256",
          "name": "",
          "type": "uint256"
        }
      ],
      "stateMutability": "view",
      "type": "function"
    },
    {
      "inputs": [
        {
          "internalType": "contract IERC721",
          "name": "_tokenAddress",
          "type": "address"
        },
        {
          "internalType": "uint256",
          "name": "_id",
          "type": "uint256"
        }
      ],
      "name": "getFinalPrice",
      "outputs": [
        {
          "internalType": "uint256",
          "name": "",
          "type": "uint256"
        }
      ],
      "stateMutability": "view",
      "type": "function"
    },
    {
      "inputs": [
        {
          "internalType": "contract IERC721",
          "name": "_tokenAddress",
          "type": "address"
        },
        {
          "internalType": "uint256",
          "name": "_id",
          "type": "uint256"
        }
      ],
      "name": "getTaxOnListing",
      "outputs": [
        {
          "internalType": "uint256",
          "name": "",
          "type": "uint256"
        }
      ],
      "stateMutability": "view",
      "type": "function"
    },
    {
      "inputs": [
        {
          "internalType": "contract IERC721",
          "name": "_tokenAddress",
          "type": "address"
        },
        {
          "internalType": "uint256",
          "name": "_id",
          "type": "uint256"
        }
      ],
      "name": "getTargetBuyer",
      "outputs": [
        {
          "internalType": "address",
          "name": "",
          "type": "address"
        }
      ],
      "stateMutability": "view",
      "type": "function"
    },
    {
      "inputs": [
        {
          "internalType": "contract IERC721",
          "name": "_tokenAddress",
          "type": "address"
        },
        {
          "internalType": "uint256",
          "name": "start",
          "type": "uint256"
        },
        {
          "internalType": "uint256",
          "name": "length",
          "type": "uint256"
        }
      ],
      "name": "getListingSlice",
      "outputs": [
        {
          "internalType": "uint256",
          "name": "returnedCount",
          "type": "uint256"
        },
        {
          "internalType": "uint256[]",
          "name": "ids",
          "type": "uint256[]"
        },
        {
          "internalType": "address[]",
          "name": "sellers",
          "type": "address[]"
        },
        {
          "internalType": "uint256[]",
          "name": "prices",
          "type": "uint256[]"
        }
      ],
      "stateMutability": "view",
      "type": "function"
    },
    {
      "inputs": [
        {
          "internalType": "contract IERC721",
          "name": "_tokenAddress",
          "type": "address"
        },
        {
          "internalType": "uint256",
          "name": "_id",
          "type": "uint256"
        },
        {
          "internalType": "uint256",
          "name": "_price",
          "type": "uint256"
        },
        {
          "internalType": "address",
          "name": "_targetBuyer",
          "type": "address"
        }
      ],
      "name": "addListing",
      "outputs": [],
      "stateMutability": "nonpayable",
      "type": "function"
    },
    {
      "inputs": [
        {
          "internalType": "contract IERC721",
          "name": "_tokenAddress",
          "type": "address"
        },
        {
          "internalType": "uint256",
          "name": "_id",
          "type": "uint256"
        },
        {
          "internalType": "uint256",
          "name": "_newPrice",
          "type": "uint256"
        }
      ],
      "name": "changeListingPrice",
      "outputs": [],
      "stateMutability": "nonpayable",
      "type": "function"
    },
    {
      "inputs": [
        {
          "internalType": "contract IERC721",
          "name": "_tokenAddress",
          "type": "address"
        },
        {
          "internalType": "uint256",
          "name": "_id",
          "type": "uint256"
        },
        {
          "internalType": "address",
          "name": "_newTargetBuyer",
          "type": "address"
        }
      ],
      "name": "changeListingTargetBuyer",
      "outputs": [],
      "stateMutability": "nonpayable",
      "type": "function"
    },
    {
      "inputs": [
        {
          "internalType": "contract IERC721",
          "name": "_tokenAddress",
          "type": "address"
        },
        {
          "internalType": "uint256",
          "name": "_id",
          "type": "uint256"
        }
      ],
      "name": "cancelListing",
      "outputs": [],
      "stateMutability": "nonpayable",
      "type": "function"
    },
    {
      "inputs": [
        {
          "internalType": "contract IERC721",
          "name": "_tokenAddress",
          "type": "address"
        },
        {
          "internalType": "uint256",
          "name": "_id",
          "type": "uint256"
        },
        {
          "internalType": "uint256",
          "name": "_maxPrice",
          "type": "uint256"
        }
      ],
      "name": "purchaseListing",
      "outputs": [],
      "stateMutability": "nonpayable",
      "type": "function"
    },
    {
      "inputs": [
        {
          "internalType": "uint256",
          "name": "cents",
          "type": "uint256"
        }
      ],
      "name": "setAddValue",
      "outputs": [],
      "stateMutability": "nonpayable",
      "type": "function"
    },
    {
      "inputs": [
        {
          "internalType": "uint256",
          "name": "cents",
          "type": "uint256"
        }
      ],
      "name": "setChangeValue",
      "outputs": [],
      "stateMutability": "nonpayable",
      "type": "function"
    },
    {
      "inputs": [
        {
          "internalType": "address",
          "name": "_taxRecipient",
          "type": "address"
        }
      ],
      "name": "setTaxRecipient",
      "outputs": [],
      "stateMutability": "nonpayable",
      "type": "function"
    },
    {
      "inputs": [
        {
          "internalType": "int128",
          "name": "_defaultTax",
          "type": "int128"
        }
      ],
      "name": "setDefaultTax",
      "outputs": [],
      "stateMutability": "nonpayable",
      "type": "function"
    },
    {
      "inputs": [
        {
          "internalType": "uint256",
          "name": "_numerator",
          "type": "uint256"
        },
        {
          "internalType": "uint256",
          "name": "_denominator",
          "type": "uint256"
        }
      ],
      "name": "setDefaultTaxAsRational",
      "outputs": [],
      "stateMutability": "nonpayable",
      "type": "function"
    },
    {
      "inputs": [
        {
          "internalType": "uint256",
          "name": "_percent",
          "type": "uint256"
        }
      ],
      "name": "setDefaultTaxAsPercent",
      "outputs": [],
      "stateMutability": "nonpayable",
      "type": "function"
    },
    {
      "inputs": [
        {
          "internalType": "contract IERC721",
          "name": "_tokenAddress",
          "type": "address"
        },
        {
          "internalType": "int128",
          "name": "_newTax",
          "type": "int128"
        }
      ],
      "name": "setTaxOnTokenType",
      "outputs": [],
      "stateMutability": "nonpayable",
      "type": "function"
    },
    {
      "inputs": [
        {
          "internalType": "contract IERC721",
          "name": "_tokenAddress",
          "type": "address"
        },
        {
          "internalType": "uint256",
          "name": "_numerator",
          "type": "uint256"
        },
        {
          "internalType": "uint256",
          "name": "_denominator",
          "type": "uint256"
        }
      ],
      "name": "setTaxOnTokenTypeAsRational",
      "outputs": [],
      "stateMutability": "nonpayable",
      "type": "function"
    },
    {
      "inputs": [
        {
          "internalType": "contract IERC721",
          "name": "_tokenAddress",
          "type": "address"
        },
        {
          "internalType": "uint256",
          "name": "_percent",
          "type": "uint256"
        }
      ],
      "name": "setTaxOnTokenTypeAsPercent",
      "outputs": [],
      "stateMutability": "nonpayable",
      "type": "function"
    },
    {
      "inputs": [
        {
          "internalType": "address",
          "name": "user",
          "type": "address"
        },
        {
          "internalType": "bool",
          "name": "to",
          "type": "bool"
        }
      ],
      "name": "setUserBan",
      "outputs": [],
      "stateMutability": "nonpayable",
      "type": "function"
    },
    {
      "inputs": [
        {
          "internalType": "address[]",
          "name": "users",
          "type": "address[]"
        },
        {
          "internalType": "bool",
          "name": "to",
          "type": "bool"
        }
      ],
      "name": "setUserBans",
      "outputs": [],
      "stateMutability": "nonpayable",
      "type": "function"
    },
    {
      "inputs": [
        {
          "internalType": "contract IERC721",
          "name": "_tokenAddress",
          "type": "address"
        },
        {
          "internalType": "uint256",
          "name": "_id",
          "type": "uint256"
        }
      ],
      "name": "unlistItem",
      "outputs": [],
      "stateMutability": "nonpayable",
      "type": "function"
    },
    {
      "inputs": [
        {
          "internalType": "contract IERC721",
          "name": "_tokenAddress",
          "type": "address"
        },
        {
          "internalType": "uint256[]",
          "name": "_ids",
          "type": "uint256[]"
        }
      ],
      "name": "unlistItems",
      "outputs": [],
      "stateMutability": "nonpayable",
      "type": "function"
    },
    {
      "inputs": [
        {
          "internalType": "contract IERC721",
          "name": "_tokenAddress",
          "type": "address"
        }
      ],
      "name": "allowToken",
      "outputs": [],
      "stateMutability": "nonpayable",
      "type": "function"
    },
    {
      "inputs": [
        {
          "internalType": "contract IERC721",
          "name": "_tokenAddress",
          "type": "address"
        }
      ],
      "name": "disallowToken",
      "outputs": [],
      "stateMutability": "nonpayable",
      "type": "function"
    },
    {
      "inputs": [
        {
          "internalType": "uint256",
          "name": "amount",
          "type": "uint256"
        }
      ],
      "name": "recoverAiza",
      "outputs": [],
      "stateMutability": "nonpayable",
      "type": "function"
    },
    {
      "inputs": [
        {
          "internalType": "int128",
          "name": "usdAmount",
          "type": "int128"
        }
      ],
      "name": "usdToAiza",
      "outputs": [
        {
          "internalType": "uint256",
          "name": "",
          "type": "uint256"
        }
      ],
      "stateMutability": "view",
      "type": "function"
    },
    {
      "inputs": [
        {
          "internalType": "address",
          "name": "",
          "type": "address"
        },
        {
          "internalType": "address",
          "name": "",
          "type": "address"
        },
        {
          "internalType": "uint256",
          "name": "_id",
          "type": "uint256"
        },
        {
          "internalType": "bytes",
          "name": "",
          "type": "bytes"
        }
      ],
      "name": "onERC721Received",
      "outputs": [
        {
          "internalType": "bytes4",
          "name": "",
          "type": "bytes4"
        }
      ],
      "stateMutability": "nonpayable",
      "type": "function"
    }
  ],
  "bytecode": "0x608060405234801561001057600080fd5b506141f7806100206000396000f3fe608060405234801561001057600080fd5b50600436106103815760003560e01c806374c7b328116101de578063b2ddee061161010f578063d547741f116100ad578063e4ca10dc1161007c578063e4ca10dc14610841578063e79767af14610849578063ed9999ca1461085c578063f9eaee0d1461086f57600080fd5b8063d547741f146107f5578063d679756214610808578063d739d8bc1461081b578063d9db220d1461082e57600080fd5b8063c573a97e116100e9578063c573a97e146107a9578063c7e4ff42146107bc578063cc8efb14146107cf578063d23727a3146107e257600080fd5b8063b2ddee0614610760578063b53472ef14610773578063bb782e731461078657600080fd5b806391d148541161017c578063a04e6f9911610156578063a04e6f991461071f578063a217fddf14610732578063a5bc36321461073a578063a6f957261461074d57600080fd5b806391d14854146106d657806399bd17e4146106e95780639ed9b4fd146106fc57600080fd5b806378e3079e116101b857806378e3079e1461068a578063799e6b611461069d5780637a49f820146106b057806386c51fa9146106c357600080fd5b806374c7b3281461064157806374d63d0e146106545780637899d80f1461066757600080fd5b80632f2ff15d116102b8578063490df530116102565780635504d3d2116102305780635504d3d2146105fe5780636891de0714610613578063732cefe41461061b578063737ea06e1461062e57600080fd5b8063490df530146105c5578063534be8fb146105d8578063546b45ac146105eb57600080fd5b806335e0406f1161029257806335e0406f1461056c57806336568abe1461058c5780633b75a46a1461059f57806346bd0c80146105b257600080fd5b80632f2ff15d146105395780632f48f1511461054c578063346710fd1461055957600080fd5b80631ac0bab01161032557806327314473116102ff57806327314473146104b2578063281fb165146104dd5780632c2dea77146105135780632df8c04a1461052657600080fd5b80631ac0bab0146104595780631eb788f51461046c578063248a9ca31461048f57600080fd5b80630bb99c57116103615780630bb99c57146103f65780631459457a14610403578063150b7a02146104185780631a10c9021461044457600080fd5b80621e91871461038657806240ff6c146103ac57806301ffc9a7146103d3575b600080fd5b610399610394366004613bf6565b610882565b6040519081526020015b60405180910390f35b60a7546103c090600160801b9004600f0b81565b604051600f9190910b81526020016103a3565b6103e66103e1366004613aaa565b6108b0565b60405190151581526020016103a3565b60a1546103c090600f0b81565b610416610411366004613ad2565b6108e5565b005b61042b6104263660046138ec565b610abf565b6040516001600160e01b031990911681526020016103a3565b61044c610b64565b6040516103a39190613e82565b610416610467366004613a6e565b610c2c565b61047f61047a366004613c57565b610c93565b6040516103a39493929190614021565b61039961049d366004613a6e565b60009081526065602052604090206001015490565b6104c56104c0366004613bf6565b610ef1565b6040516001600160a01b0390911681526020016103a3565b6104c56104eb366004613bf6565b6001600160a01b03918216600090815260a86020908152604080832093835292905220541690565b610416610521366004613c21565b610f61565b610399610534366004613bf6565b6110a2565b610416610547366004613a86565b6110d8565b60a7546103c090600f0b81565b610416610567366004613c8b565b611103565b61057f61057a3660046138d0565b61153b565b6040516103a39190613ecf565b61041661059a366004613a86565b61160c565b6104166105ad366004613d24565b61168a565b6097546104c5906001600160a01b031681565b6104166105d3366004613a6e565b6116e5565b6104166105e6366004613b6f565b61179d565b6103996105f9366004613b42565b6118a5565b6103996000805160206141a283398151915281565b610399611941565b60a6546104c5906001600160a01b031681565b6098546104c5906001600160a01b031681565b61041661064f366004613bc2565b61195e565b6103996106623660046138d0565b6119ca565b6103c06106753660046138d0565b609f60205260009081526040902054600f0b81565b6104166106983660046138d0565b6119eb565b6104166106ab3660046139fd565b611a41565b6104166106be366004613a6e565b611af4565b6104166106d1366004613bf6565b611b42565b6103e66106e4366004613a86565b611bb8565b6104166106f7366004613bf6565b611be3565b6103e661070a3660046138d0565b609e6020526000908152604090205460ff1681565b61039961072d366004613d24565b611c60565b610399600081565b610416610748366004613c57565b611cf6565b61041661075b366004613c57565b611d66565b61041661076e366004613bf6565b6120cf565b6104166107813660046138d0565b6122ac565b6103e66107943660046138d0565b609d6020526000908152604090205460ff1681565b6104166107b7366004613d56565b612319565b6104166107ca3660046139c5565b612380565b6103996107dd3660046138d0565b6123df565b6104166107f0366004613a6e565b612400565b610416610803366004613a86565b6124bc565b610399610816366004613cd4565b6124e2565b61057f610829366004613b42565b6126ae565b61039961083c366004613bf6565b6127d1565b61044c6127f0565b6104166108573660046138d0565b6128b1565b61041661086a366004613c57565b6128f0565b6103e661087d3660046138d0565b612a4f565b6001600160a01b03821660009081526099602090815260408083208484529091529020600101545b92915050565b60006001600160e01b03198216637965db0b60e01b14806108aa57506301ffc9a760e01b6001600160e01b03198316146108aa565b600054610100900460ff166109005760005460ff1615610904565b303b155b61096c5760405162461bcd60e51b815260206004820152602e60248201527f496e697469616c697a61626c653a20636f6e747261637420697320616c72656160448201526d191e481a5b9a5d1a585b1a5e995960921b60648201526084015b60405180910390fd5b600054610100900460ff1615801561098e576000805461ffff19166101011790555b610996612a5c565b6109a1600033612ac9565b609780546001600160a01b038089166001600160a01b03199283161790925560988054928816929091169190911790556109dd6001600a612ad3565b60a18054600f9290920b6001600160801b03166001600160801b031990921691909117905560a580546001600160a01b038087166001600160a01b03199283161790925560a4805486841690831617905560a6805492851692909116919091179055610a4b60026064612ad3565b60a78054600f9290920b6001600160801b03166001600160801b0319909216919091179055610a7c60006064612ad3565b60a760106101000a8154816001600160801b030219169083600f0b6001600160801b031602179055508015610ab7576000805461ff00191690555b505050505050565b600033610acd609b82612b13565b8015610af657506001600160a01b0381166000908152609a60205260409020610af69085612b35565b610b525760405162461bcd60e51b815260206004820152602760248201527f6f6e455243373231526563656976656420546f6b656e204944206973206e6f74604482015266081b1a5cdd195960ca1b6064820152608401610963565b50630a85bd0160e11b95945050505050565b606060a26000610b7382612b4d565b67ffffffffffffffff811115610b9957634e487b7160e01b600052604160045260246000fd5b604051908082528060200260200182016040528015610bc2578160200160208202803683370190505b50905060005b8151811015610c2557610bdb8382612b57565b828281518110610bfb57634e487b7160e01b600052603260045260246000fd5b6001600160a01b039092166020928302919091019091015280610c1d81614128565b915050610bc8565b5092915050565b610c446000805160206141a283398151915233611bb8565b610c605760405162461bcd60e51b815260040161096390613f15565b610c6b816064612ad3565b60a18054600f9290920b6001600160801b03166001600160801b031990921691909117905550565b80606080808367ffffffffffffffff811115610cbf57634e487b7160e01b600052604160045260246000fd5b604051908082528060200260200182016040528015610ce8578160200160208202803683370190505b5092508467ffffffffffffffff811115610d1257634e487b7160e01b600052604160045260246000fd5b604051908082528060200260200182016040528015610d3b578160200160208202803683370190505b5091508467ffffffffffffffff811115610d6557634e487b7160e01b600052604160045260246000fd5b604051908082528060200260200182016040528015610d8e578160200160208202803683370190505b506001600160a01b0388166000908152609a6020526040812091925090875b610db7888a614097565b811015610ee457610dc782612b4d565b8110610dd857829650505050610ee8565b6000610de48383612b57565b6001600160a01b03808d166000908152609960209081526040808320858452825291829020825180840190935280549093168252600190920154918101919091528851919250908290899087908110610e4d57634e487b7160e01b600052603260045260246000fd5b6020026020010181815250508060000151878681518110610e7e57634e487b7160e01b600052603260045260246000fd5b6001600160a01b039092166020928302919091018201528101518686610ea381614128565b975081518110610ec357634e487b7160e01b600052603260045260246000fd5b60200260200101818152505050508080610edc90614128565b915050610dad565b5050505b93509350935093565b6000610efe609b84612b13565b610f0a575060006108aa565b6001600160a01b0383166000908152609a60205260409020610f2c9083612b35565b610f38575060006108aa565b506001600160a01b03918216600090815260996020908152604080832093835292905220541690565b336000908152609e602052604090205460ff1615610f915760405162461bcd60e51b815260040161096390613fb3565b8282610f9e609b83612b13565b8015610fc757506001600160a01b0382166000908152609a60205260409020610fc79082612b35565b610fe35760405162461bcd60e51b815260040161096390613f83565b6001600160a01b0380861660009081526099602090815260408083208884529091529020548691869116331461102b5760405162461bcd60e51b815260040161096390613fea565b6001600160a01b03878116600081815260a8602090815260408083208b845282529182902080546001600160a01b031916948a1694851790559051928352889233917faa79ba781ed370c2a15b6fe1a86316cab25598fecac3329356cc3f5557c8bae691015b60405180910390a450505050505050565b6001600160a01b0382166000908152609f60205260408120546110d190600f0b6110cc8585610882565b612b63565b9392505050565b6000828152606560205260409020600101546110f48133612bcb565b6110fe8383612c2f565b505050565b8361110d81612a4f565b6111745760405162461bcd60e51b815260206004820152603260248201527f4e46544d61726b65743a20546869732074797065206f66204e4654206d6179206044820152716e6f7420626520747261646564206865726560701b6064820152608401610963565b84611186816380ac58cd60e01b612cb5565b6111a25760405162461bcd60e51b815260040161096390613f4c565b85856111af609b83612b13565b15806111da57506001600160a01b0382166000908152609a602052604090206111d89082612b35565b155b6112355760405162461bcd60e51b815260206004820152602660248201527f4e46544d61726b65743a20546f6b656e204944206d757374206e6f74206265206044820152651b1a5cdd195960d21b6064820152608401610963565b336000908152609e602052604090205460ff16156113f557609754604051636eb1769f60e11b81523360048201523060248201526000916001600160a01b03169063dd62ed3e9060440160206040518083038186803b15801561129757600080fd5b505afa1580156112ab573d6000803e3d6000fd5b505050506040513d601f19601f820116820180604052508101906112cf9190613d3e565b6097546040516370a0823160e01b81523360048201529192506000916001600160a01b03909116906370a082319060240160206040518083038186803b15801561131857600080fd5b505afa15801561132c573d6000803e3d6000fd5b505050506040513d601f19601f820116820180604052508101906113509190613d3e565b6097546098549192506001600160a01b03908116916323b872dd9133911684861161137b578561137d565b845b6040518463ffffffff1660e01b815260040161139b93929190613e5e565b602060405180830381600087803b1580156113b557600080fd5b505af11580156113c9573d6000803e3d6000fd5b505050506040513d601f19601f820116820180604052508101906113ed9190613a52565b505050611486565b60408051808201825233815260208082018981526001600160a01b038c81166000818152609985528681208e82528552868120955186549084166001600160a01b0319918216178755935160019096019590955580855260a884528585208d865284528585208054928c1692909316919091179091558252609a90522061147c9088612cd1565b5061148688612cdd565b604051632142170760e11b81526001600160a01b038916906342842e0e906114b690339030908c90600401613e5e565b600060405180830381600087803b1580156114d057600080fd5b505af11580156114e4573d6000803e3d6000fd5b5050604080518981526001600160a01b0389811660208301528b94508c16925033917f5949a8af96064ae9b490d9118c3636906cab7e3b2c46530c7e2b5ff9f8a297e1910160405180910390a45050505050505050565b6001600160a01b0381166000908152609a6020526040812060609161155f82612b4d565b67ffffffffffffffff81111561158557634e487b7160e01b600052604160045260246000fd5b6040519080825280602002602001820160405280156115ae578160200160208202803683370190505b50905060005b8151811015611604576115c78382612b57565b8282815181106115e757634e487b7160e01b600052603260045260246000fd5b6020908102919091010152806115fc81614128565b9150506115b4565b509392505050565b6001600160a01b038116331461167c5760405162461bcd60e51b815260206004820152602f60248201527f416363657373436f6e74726f6c3a2063616e206f6e6c792072656e6f756e636560448201526e103937b632b9903337b91039b2b63360891b6064820152608401610963565b6116868282612d16565b5050565b6116a26000805160206141a283398151915233611bb8565b6116be5760405162461bcd60e51b815260040161096390613f15565b60a18054600f9290920b6001600160801b03166001600160801b0319909216919091179055565b6116fd6000805160206141a283398151915233611bb8565b6117195760405162461bcd60e51b815260040161096390613f15565b606481111561176a5760405162461bcd60e51b815260206004820152601c60248201527f4e46544d61726b65743a2041646456616c756520746f6f2068696768000000006044820152606401610963565b611775816064612ad3565b60a78054600f9290920b6001600160801b03166001600160801b031990921691909117905550565b6117b56000805160206141a283398151915233611bb8565b6117d15760405162461bcd60e51b815260040161096390613f15565b60005b8181101561189f576001600160a01b03841660009081526099602052604081209084848481811061181557634e487b7160e01b600052603260045260246000fd5b60209081029290920135835250810191909152604001600090812080546001600160a01b03191681556001015561188c83838381811061186557634e487b7160e01b600052603260045260246000fd5b6001600160a01b0388166000908152609a6020908152604090912093910201359050612d7d565b508061189781614128565b9150506117d4565b50505050565b6001600160a01b0382166000908152609a6020526040812081805b6118c983612b4d565b811015611938576001600160a01b03868116600090815260996020526040812091871691906118f88685612b57565b81526020810191909152604001600020546001600160a01b03161415611926578161192281614128565b9250505b8061193081614128565b9150506118c0565b50949350505050565b60a15460009061195990600f90810b900b6064612b63565b905090565b6119766000805160206141a283398151915233611bb8565b6119925760405162461bcd60e51b815260040161096390613f15565b816119a4816380ac58cd60e01b612cb5565b6119c05760405162461bcd60e51b815260040161096390613f4c565b6110fe8383612d89565b6001600160a01b0381166000908152609a602052604081206110d181612b4d565b611a036000805160206141a283398151915233611bb8565b611a1f5760405162461bcd60e51b815260040161096390613f15565b609880546001600160a01b0319166001600160a01b0392909216919091179055565b611a596000805160206141a283398151915233611bb8565b611a755760405162461bcd60e51b815260040161096390613f15565b60005b8281101561189f5781609e6000868685818110611aa557634e487b7160e01b600052603260045260246000fd5b9050602002016020810190611aba91906138d0565b6001600160a01b031681526020810191909152604001600020805460ff191691151591909117905580611aec81614128565b915050611a78565b611b0c6000805160206141a283398151915233611bb8565b611b285760405162461bcd60e51b815260040161096390613f15565b609754611b3f906001600160a01b03163383612e47565b50565b611b5a6000805160206141a283398151915233611bb8565b611b765760405162461bcd60e51b815260040161096390613f15565b81611b88816380ac58cd60e01b612cb5565b611ba45760405162461bcd60e51b815260040161096390613f4c565b6110fe83611bb3846064612ad3565b612d89565b60009182526065602090815260408084206001600160a01b0393909316845291905290205460ff1690565b611bfb6000805160206141a283398151915233611bb8565b611c175760405162461bcd60e51b815260040161096390613f15565b6001600160a01b0382166000818152609960209081526040808320858452825280832080546001600160a01b0319168155600101839055928252609a9052206110fe9082612d7d565b60006108aa60a660009054906101000a90046001600160a01b03166001600160a01b0316639d1b464a6040518163ffffffff1660e01b815260040160206040518083038186803b158015611cb357600080fd5b505afa158015611cc7573d6000803e3d6000fd5b505050506040513d601f19601f82011682018060405250810190611ceb9190613d3e565b600f84900b90612b63565b611d0e6000805160206141a283398151915233611bb8565b611d2a5760405162461bcd60e51b815260040161096390613f15565b82611d3c816380ac58cd60e01b612cb5565b611d585760405162461bcd60e51b815260040161096390613f4c565b61189f84611bb38585612ad3565b336000908152609e602052604090205460ff1615611d965760405162461bcd60e51b815260040161096390613fb3565b8282611da3609b83612b13565b8015611dcc57506001600160a01b0382166000908152609a60205260409020611dcc9082612b35565b611de85760405162461bcd60e51b815260040161096390613f83565b6001600160a01b03808616600090815260a86020908152604080832088845290915290205486918691161580611e4257506001600160a01b03828116600090815260a8602090815260408083208584529091529020541633145b611e8e5760405162461bcd60e51b815260206004820152601b60248201527f4e46544d61726b65743a204e6f742074617267657420627579657200000000006044820152606401610963565b6000611e9a88886127d1565b905085811115611eec5760405162461bcd60e51b815260206004820152601f60248201527f4e46544d61726b65743a20427579696e6720707269636520746f6f206c6f77006044820152606401610963565b6001600160a01b0380891660009081526099602090815260408083208b84528252808320815180830183528154909516808652600190910154858401528352609e90915290205460ff1615611f835760405162461bcd60e51b815260206004820152601860248201527f4e46544d61726b65743a2042616e6e65642073656c6c657200000000000000006044820152606401610963565b6000611f8f8a8a6110a2565b6001600160a01b038b1660008181526099602090815260408083208e8452825280832080546001600160a01b0319168155600101839055928252609a905220909150611fdb908a612d7d565b50611fe58a612cdd565b611fee81612eaa565b81516120149033906120008685612ec9565b6097546001600160a01b0316929190612ed5565b604051632142170760e11b81526001600160a01b038b16906342842e0e9061204490309033908e90600401613e5e565b600060405180830381600087803b15801561205e57600080fd5b505af1158015612072573d6000803e3d6000fd5b50508351604080516001600160a01b039283168152602081018890528d9450918e16925033917f7762d23dc0afc60972698afa4f7ab7e5853e961dad5c968fe29b0fd3b14fffb5910160405180910390a450505050505050505050565b336000908152609e602052604090205460ff16156120ff5760405162461bcd60e51b815260040161096390613fb3565b818161210c609b83612b13565b801561213557506001600160a01b0382166000908152609a602052604090206121359082612b35565b6121515760405162461bcd60e51b815260040161096390613f83565b6001600160a01b038085166000908152609960209081526040808320878452909152902054859185911633148061219b575061219b6000805160206141a283398151915233611bb8565b6121b75760405162461bcd60e51b815260040161096390613fea565b6001600160a01b0386166000818152609960209081526040808320898452825280832080546001600160a01b0319168155600101839055928252609a9052206122009086612d7d565b5061220a86612cdd565b604051632142170760e11b81526001600160a01b038716906342842e0e9061223a90309033908a90600401613e5e565b600060405180830381600087803b15801561225457600080fd5b505af1158015612268573d6000803e3d6000fd5b50506040518792506001600160a01b038916915033907fd66e7fc4b7515678684c4cbafb29ad2dbe872f0d8913ac2227c7cfead5d6923490600090a4505050505050565b6122c46000805160206141a283398151915233611bb8565b6122e05760405162461bcd60e51b815260040161096390613f15565b806122f2816380ac58cd60e01b612cb5565b61230e5760405162461bcd60e51b815260040161096390613f4c565b6110fe60a283612ef6565b6123316000805160206141a283398151915233611bb8565b61234d5760405162461bcd60e51b815260040161096390613f15565b6123578282612ad3565b60a18054600f9290920b6001600160801b03166001600160801b03199092169190911790555050565b6123986000805160206141a283398151915233611bb8565b6123b45760405162461bcd60e51b815260040161096390613f15565b6001600160a01b03919091166000908152609e60205260409020805460ff1916911515919091179055565b6001600160a01b0381166000908152609a602052604081206108aa90612b4d565b6124186000805160206141a283398151915233611bb8565b6124345760405162461bcd60e51b815260040161096390613f15565b60648111156124855760405162461bcd60e51b815260206004820152601f60248201527f4e46544d61726b65743a204368616e676556616c756520746f6f2068696768006044820152606401610963565b612490816064612ad3565b60a760106101000a8154816001600160801b030219169083600f0b6001600160801b0316021790555050565b6000828152606560205260409020600101546124d88133612bcb565b6110fe8383612d16565b6001600160a01b0384166000908152609a60205260408120818080805b61250885612b4d565b8110156126a05760a5546001600160a01b03166386481d4061252a8784612b57565b6040518263ffffffff1660e01b815260040161254891815260200190565b60206040518083038186803b15801561256057600080fd5b505afa158015612574573d6000803e3d6000fd5b505050506040513d601f19601f820116820180604052508101906125989190613d77565b60a5549093506001600160a01b031663acb586df6125b68784612b57565b6040518263ffffffff1660e01b81526004016125d491815260200190565b60206040518083038186803b1580156125ec57600080fd5b505afa158015612600573d6000803e3d6000fd5b505050506040513d601f19601f820116820180604052508101906126249190613d77565b91508860ff1660ff148061263d57508860ff168260ff16145b801561267b57508760ff1660ff148061265957508660ff1660ff145b8061267b57508760ff168360ff161015801561267b57508660ff168360ff1611155b1561268e578361268a81614128565b9450505b8061269881614128565b9150506124ff565b509198975050505050505050565b606060006126bc84846118a5565b90508067ffffffffffffffff8111156126e557634e487b7160e01b600052604160045260246000fd5b60405190808252806020026020018201604052801561270e578160200160208202803683370190505b506001600160a01b0385166000908152609a60205260408120919350805b61273583612b4d565b8110156127c75760006127488483612b57565b6001600160a01b038981166000908152609960209081526040808320858452909152902054919250888116911614156127b45780868461278781614128565b9550815181106127a757634e487b7160e01b600052603260045260246000fd5b6020026020010181815250505b50806127bf81614128565b91505061272c565b5050505092915050565b60006110d16127e084846110a2565b6127ea8585610882565b90612f0b565b6060609b60006127ff82612b4d565b67ffffffffffffffff81111561282557634e487b7160e01b600052604160045260246000fd5b60405190808252806020026020018201604052801561284e578160200160208202803683370190505b50905060005b8151811015610c25576128678382612b57565b82828151811061288757634e487b7160e01b600052603260045260246000fd5b6001600160a01b0390921660209283029190910190910152806128a981614128565b915050612854565b6128c96000805160206141a283398151915233611bb8565b6128e55760405162461bcd60e51b815260040161096390613f15565b61168660a282612f17565b336000908152609e602052604090205460ff16156129205760405162461bcd60e51b815260040161096390613fb3565b828261292d609b83612b13565b801561295657506001600160a01b0382166000908152609a602052604090206129569082612b35565b6129725760405162461bcd60e51b815260040161096390613f83565b6001600160a01b038086166000908152609960209081526040808320888452909152902054869186911633146129ba5760405162461bcd60e51b815260040161096390613fea565b60a7546000600160801b909104600f90810b900b13156129f35760a7546129f3906129ee90600160801b9004600f0b611c60565b612eaa565b6001600160a01b03871660008181526099602090815260408083208a8452825291829020600101889055905187815288929133917f35717041cfb73c9917e328a2cdd6bae61d669e3c8b024b049188bb5cd35d00cb9101611091565b60006108aa60a283612b13565b600054610100900460ff16612ac75760405162461bcd60e51b815260206004820152602b60248201527f496e697469616c697a61626c653a20636f6e7472616374206973206e6f74206960448201526a6e697469616c697a696e6760a81b6064820152608401610963565b565b6116868282612c2f565b600081612adf57600080fd5b6000612aeb8484612f2c565b90506f7fffffffffffffffffffffffffffffff6001600160801b03821611156110d157600080fd5b6001600160a01b038116600090815260018301602052604081205415156110d1565b600081815260018301602052604081205415156110d1565b60006108aa825490565b60006110d183836130c6565b600081612b72575060006108aa565b600083600f0b1215612b8357600080fd5b600f83900b6001600160801b038316810260401c90608084901c026001600160c01b03811115612bb257600080fd5b60401b8119811115612bc357600080fd5b019392505050565b612bd58282611bb8565b61168657612bed816001600160a01b031660146130fe565b612bf88360206130fe565b604051602001612c09929190613de9565b60408051601f198184030181529082905262461bcd60e51b825261096391600401613ee2565b612c398282611bb8565b6116865760008281526065602090815260408083206001600160a01b03851684529091529020805460ff19166001179055612c713390565b6001600160a01b0316816001600160a01b0316837f2f8788117e7eff1d82e926ec794901d17c78024a50270940304540a733656f0d60405160405180910390a45050565b6000612cc0836132e0565b80156110d157506110d18383613313565b60006110d183836133fc565b6001600160a01b0381166000908152609a60205260408120612cfe90612b4d565b1115612d0d57611b3f8161344b565b611b3f816134f4565b612d208282611bb8565b156116865760008281526065602090815260408083206001600160a01b0385168085529252808320805460ff1916905551339285917ff6391f5c32d9c69d2a47ea670b442974b53935d1edc7fd64eb21e047a839171b9190a45050565b60006110d183836134ff565b600081600f0b1215612df15760405162461bcd60e51b815260206004820152602b60248201527f4e46544d61726b65743a205765277265206e6f742072756e6e696e672061206360448201526a686172697479206865726560a81b6064820152608401610963565b6001600160a01b03919091166000908152609f6020908152604080832080546001600160801b0319166001600160801b03600f9690960b95861617905560a090915290208054911560ff19909216919091179055565b6040516001600160a01b0383166024820152604481018290526110fe90849063a9059cbb60e01b906064015b60408051601f198184030181529190526020810180516001600160e01b03166001600160e01b03199093169290921790915261361c565b609854609754611b3f916001600160a01b039182169133911684612ed5565b60006110d182846140ce565b61189f846323b872dd60e01b858585604051602401612e7393929190613e5e565b60006110d1836001600160a01b0384166133fc565b60006110d18284614097565b60006110d1836001600160a01b0384166134ff565b600081612f3857600080fd5b60006001600160c01b038411612f715782604085901b81612f6957634e487b7160e01b600052601260045260246000fd5b0490506130b2565b60c084811c6401000000008110612f8a576020918201911c5b620100008110612f9c576010918201911c5b6101008110612fad576008918201911c5b60108110612fbd576004918201911c5b60048110612fcd576002918201911c5b60028110612fdc576001820191505b60bf820360018603901c6001018260ff0387901b8161300b57634e487b7160e01b600052601260045260246000fd5b0492506001600160801b0383111561302257600080fd5b608085901c83026001600160801b038616840260c088901c604089901b8281101561304e576001820391505b608084901b92900382811015613065576001820391505b829003608084901c821461308957634e487b7160e01b600052600160045260246000fd5b8881816130a657634e487b7160e01b600052601260045260246000fd5b04870196505050505050505b6001600160801b038111156110d157600080fd5b60008260000182815481106130eb57634e487b7160e01b600052603260045260246000fd5b9060005260206000200154905092915050565b6060600061310d8360026140af565b613118906002614097565b67ffffffffffffffff81111561313e57634e487b7160e01b600052604160045260246000fd5b6040519080825280601f01601f191660200182016040528015613168576020820181803683370190505b509050600360fc1b8160008151811061319157634e487b7160e01b600052603260045260246000fd5b60200101906001600160f81b031916908160001a905350600f60fb1b816001815181106131ce57634e487b7160e01b600052603260045260246000fd5b60200101906001600160f81b031916908160001a90535060006131f28460026140af565b6131fd906001614097565b90505b6001811115613291576f181899199a1a9b1b9c1cb0b131b232b360811b85600f166010811061323f57634e487b7160e01b600052603260045260246000fd5b1a60f81b82828151811061326357634e487b7160e01b600052603260045260246000fd5b60200101906001600160f81b031916908160001a90535060049490941c9361328a81614111565b9050613200565b5083156110d15760405162461bcd60e51b815260206004820181905260248201527f537472696e67733a20686578206c656e67746820696e73756666696369656e746044820152606401610963565b60006132f3826301ffc9a760e01b613313565b80156108aa575061330c826001600160e01b0319613313565b1592915050565b604080516001600160e01b0319831660248083019190915282518083039091018152604490910182526020810180516001600160e01b03166301ffc9a760e01b179052905160009190829081906001600160a01b038716906175309061337a908690613dcd565b6000604051808303818686fa925050503d80600081146133b6576040519150601f19603f3d011682016040523d82523d6000602084013e6133bb565b606091505b50915091506020815110156133d657600093505050506108aa565b8180156133f25750808060200190518101906133f29190613a52565b9695505050505050565b6000818152600183016020526040812054613443575081546001818101845560008481526020808220909301849055845484825282860190935260409020919091556108aa565b5060006108aa565b613456609b82612b13565b611b3f57613465609b82612ef6565b506001600160a01b0381166000908152609f6020526040902054600f90810b900b1580156134ac57506001600160a01b038116600090815260a0602052604090205460ff16155b15611b3f5760a1546001600160a01b0382166000908152609f602052604090208054600f92830b90920b6001600160801b03166001600160801b031990921691909117905550565b611686609b82612f17565b600081815260018301602052604081205480156136125760006135236001836140ce565b8554909150600090613537906001906140ce565b90508181146135b857600086600001828154811061356557634e487b7160e01b600052603260045260246000fd5b906000526020600020015490508087600001848154811061359657634e487b7160e01b600052603260045260246000fd5b6000918252602080832090910192909255918252600188019052604090208390555b85548690806135d757634e487b7160e01b600052603160045260246000fd5b6001900381819060005260206000200160009055905585600101600086815260200190815260200160002060009055600193505050506108aa565b60009150506108aa565b6000613671826040518060400160405280602081526020017f5361666545524332303a206c6f772d6c6576656c2063616c6c206661696c6564815250856001600160a01b03166136ee9092919063ffffffff16565b8051909150156110fe578080602001905181019061368f9190613a52565b6110fe5760405162461bcd60e51b815260206004820152602a60248201527f5361666545524332303a204552433230206f7065726174696f6e20646964206e6044820152691bdd081cdd58d8d9595960b21b6064820152608401610963565b60606136fd8484600085613705565b949350505050565b6060824710156137665760405162461bcd60e51b815260206004820152602660248201527f416464726573733a20696e73756666696369656e742062616c616e636520666f6044820152651c8818d85b1b60d21b6064820152608401610963565b6001600160a01b0385163b6137bd5760405162461bcd60e51b815260206004820152601d60248201527f416464726573733a2063616c6c20746f206e6f6e2d636f6e74726163740000006044820152606401610963565b600080866001600160a01b031685876040516137d99190613dcd565b60006040518083038185875af1925050503d8060008114613816576040519150601f19603f3d011682016040523d82523d6000602084013e61381b565b606091505b509150915061382b828286613836565b979650505050505050565b606083156138455750816110d1565b8251156138555782518084602001fd5b8160405162461bcd60e51b81526004016109639190613ee2565b60008083601f840112613880578081fd5b50813567ffffffffffffffff811115613897578182fd5b6020830191508360208260051b85010111156138b257600080fd5b9250929050565b8035600f81900b81146138cb57600080fd5b919050565b6000602082840312156138e1578081fd5b81356110d18161416f565b60008060008060808587031215613901578283fd5b843561390c8161416f565b9350602085013561391c8161416f565b925060408501359150606085013567ffffffffffffffff8082111561393f578283fd5b818701915087601f830112613952578283fd5b81358181111561396457613964614159565b604051601f8201601f19908116603f0116810190838211818310171561398c5761398c614159565b816040528281528a60208487010111156139a4578586fd5b82602086016020830137918201602001949094529598949750929550505050565b600080604083850312156139d7578182fd5b82356139e28161416f565b915060208301356139f281614184565b809150509250929050565b600080600060408486031215613a11578283fd5b833567ffffffffffffffff811115613a27578384fd5b613a338682870161386f565b9094509250506020840135613a4781614184565b809150509250925092565b600060208284031215613a63578081fd5b81516110d181614184565b600060208284031215613a7f578081fd5b5035919050565b60008060408385031215613a98578182fd5b8235915060208301356139f28161416f565b600060208284031215613abb578081fd5b81356001600160e01b0319811681146110d1578182fd5b600080600080600060a08688031215613ae9578081fd5b8535613af48161416f565b94506020860135613b048161416f565b93506040860135613b148161416f565b92506060860135613b248161416f565b91506080860135613b348161416f565b809150509295509295909350565b60008060408385031215613b54578182fd5b8235613b5f8161416f565b915060208301356139f28161416f565b600080600060408486031215613b83578081fd5b8335613b8e8161416f565b9250602084013567ffffffffffffffff811115613ba9578182fd5b613bb58682870161386f565b9497909650939450505050565b60008060408385031215613bd4578182fd5b8235613bdf8161416f565b9150613bed602084016138b9565b90509250929050565b60008060408385031215613c08578182fd5b8235613c138161416f565b946020939093013593505050565b600080600060608486031215613c35578081fd5b8335613c408161416f565b9250602084013591506040840135613a478161416f565b600080600060608486031215613c6b578081fd5b8335613c768161416f565b95602085013595506040909401359392505050565b60008060008060808587031215613ca0578182fd5b8435613cab8161416f565b935060208501359250604085013591506060850135613cc98161416f565b939692955090935050565b60008060008060808587031215613ce9578182fd5b8435613cf48161416f565b93506020850135613d0481614192565b92506040850135613d1481614192565b91506060850135613cc981614192565b600060208284031215613d35578081fd5b6110d1826138b9565b600060208284031215613d4f578081fd5b5051919050565b60008060408385031215613d68578182fd5b50508035926020909101359150565b600060208284031215613d88578081fd5b81516110d181614192565b6000815180845260208085019450808401835b83811015613dc257815187529582019590820190600101613da6565b509495945050505050565b60008251613ddf8184602087016140e5565b9190910192915050565b7f416363657373436f6e74726f6c3a206163636f756e7420000000000000000000815260008351613e218160178501602088016140e5565b7001034b99036b4b9b9b4b733903937b6329607d1b6017918401918201528351613e528160288401602088016140e5565b01602801949350505050565b6001600160a01b039384168152919092166020820152604081019190915260600190565b6020808252825182820181905260009190848201906040850190845b81811015613ec35783516001600160a01b031683529284019291840191600101613e9e565b50909695505050505050565b6020815260006110d16020830184613d93565b6020815260008251806020840152613f018160408501602087016140e5565b601f01601f19169190910160400192915050565b60208082526019908201527f4e46544d61726b65743a204e6f742067616d652061646d696e00000000000000604082015260600190565b60208082526019908201527f4e46544d61726b65743a20496e76616c69642045524337323100000000000000604082015260600190565b602080825260169082015275151bdad95b881251081a5cc81b9bdd081b1a5cdd195960521b604082015260600190565b6020808252601b908201527f4e46544d61726b65743a20466f7262696464656e206163636573730000000000604082015260600190565b60208082526018908201527f4e46544d61726b65743a204163636573732064656e6965640000000000000000604082015260600190565b8481526000602060808184015261403b6080840187613d93565b8381036040850152855180825282870191830190845b818110156140765783516001600160a01b031683529284019291840191600101614051565b5050848103606086015261408a8187613d93565b9998505050505050505050565b600082198211156140aa576140aa614143565b500190565b60008160001904831182151516156140c9576140c9614143565b500290565b6000828210156140e0576140e0614143565b500390565b60005b838110156141005781810151838201526020016140e8565b8381111561189f5750506000910152565b60008161412057614120614143565b506000190190565b600060001982141561413c5761413c614143565b5060010190565b634e487b7160e01b600052601160045260246000fd5b634e487b7160e01b600052604160045260246000fd5b6001600160a01b0381168114611b3f57600080fd5b8015158114611b3f57600080fd5b60ff81168114611b3f57600080fdfe745191d59a0c5ecaf2331ad3570e4033c5b04de0434263ec14a70fce5475ab7fa2646970667358221220c6dd1dca76652fc5624af2cdcc83d69d2f501bb13cf94b2a4fee05008a4cd68764736f6c63430008040033",
  "immutableReferences": {},
  "source": "// SPDX-License-Identifier: MIT\npragma solidity ^0.8.4;\n\nimport \"@openzeppelin/contracts-upgradeable/proxy/utils/Initializable.sol\";\nimport \"@openzeppelin/contracts-upgradeable/access/AccessControlUpgradeable.sol\";\nimport \"@openzeppelin/contracts-upgradeable/token/ERC721/IERC721ReceiverUpgradeable.sol\";\n\nimport \"@openzeppelin/contracts/token/ERC20/IERC20.sol\";\nimport \"@openzeppelin/contracts/token/ERC721/IERC721.sol\";\nimport \"@openzeppelin/contracts/token/ERC20/utils/SafeERC20.sol\";\n\nimport \"@openzeppelin/contracts/utils/structs/EnumerableSet.sol\";\nimport \"@openzeppelin/contracts/utils/math/SafeMath.sol\";\nimport \"@openzeppelin/contracts/utils/introspection/ERC165Checker.sol\";\n\nimport \"abdk-libraries-solidity/ABDKMath64x64.sol\";\n\nimport \"./interfaces/IPriceOracle.sol\";\n\nimport \"./SupplyBoxs.sol\";\nimport \"./Characters.sol\";\n\ncontract NFTMarket is\n    IERC721ReceiverUpgradeable,\n    Initializable,\n    AccessControlUpgradeable\n{\n    using SafeMath for uint256;\n    using ABDKMath64x64 for int128; // kroge beware\n    using EnumerableSet for EnumerableSet.UintSet;\n    using EnumerableSet for EnumerableSet.AddressSet;\n    using SafeERC20 for IERC20;\n\n    bytes4 private constant _INTERFACE_ID_ERC721 = 0x80ac58cd;\n\n    bytes32 public constant GAME_ADMIN = keccak256(\"GAME_ADMIN\");\n\n    // basic listing; we can easily offer other types (auction / buy it now)\n    // if the struct can be extended, that's one way, otherwise different mapping per type.\n    struct Listing {\n        address seller;\n        uint256 price;\n        //int128 usdTether; // this would be to \"tether\" price dynamically to our oracle\n    }\n\n    IERC20 public aizaWorldToken;\n    // Game contract address\n    address public taxRecipient;\n\n    // address is IERC721 -- kept like this because of OpenZeppelin upgrade plugin bug\n    mapping(address => mapping(uint256 => Listing)) private listings;\n    // address is IERC721 -- kept like this because of OpenZeppelin upgrade plugin bug\n    mapping(address => EnumerableSet.UintSet) private listedTokenIDs;\n    // address is IERC721\n    EnumerableSet.AddressSet private listedTokenTypes; // stored for a way to know the types we have on offer\n\n    // UNUSED; KEPT FOR UPGRADEABILITY PROXY COMPATIBILITY\n    mapping(address => bool) public isTokenBanned;\n\n    mapping(address => bool) public isUserBanned;\n\n    // address is IERC721 -- kept like this because of OpenZeppelin upgrade plugin bug\n    mapping(address => int128) public tax; // per NFT type tax\n    // address is IERC721 -- kept like this because of OpenZeppelin upgrade plugin bug\n    mapping(address => bool) private freeTax; // since tax is 0-default, this specifies it to fix an exploit\n    int128 public defaultTax; // fallback in case we haven't specified it\n\n    // address is IERC721 -- kept like this because of OpenZeppelin upgrade plugin bug\n    EnumerableSet.AddressSet private allowedTokenTypes;\n\n    SupplyBoxs internal supplyBoxs;\n    Characters internal characters;\n\n    IPriceOracle public priceOracleAizaPerUsd;\n    int128 public addFee;\n    int128 public changeFee;\n\n    // keeps target buyer for nftId of specific type (address)\n    mapping(address => mapping(uint256 => address)) nftTargetBuyers;\n\n    function initialize(\n        IERC20 _aizaWorldToken,\n        address _taxRecipient,\n        Characters _charactersContract,\n        SupplyBoxs _supplyBoxsContract,\n        IPriceOracle _priceOracleAizaPerUsd\n    ) public initializer {\n        __AccessControl_init();\n\n        _setupRole(DEFAULT_ADMIN_ROLE, msg.sender);\n\n        aizaWorldToken = _aizaWorldToken;\n\n        taxRecipient = _taxRecipient;\n        defaultTax = ABDKMath64x64.divu(1, 10); // 10%\n\n        characters = _charactersContract;\n        supplyBoxs = _supplyBoxsContract;\n\n        priceOracleAizaPerUsd = _priceOracleAizaPerUsd;\n        addFee = ABDKMath64x64.divu(2, 100); // 0.02 usd;\n        changeFee = ABDKMath64x64.divu(0, 100); // 0.00 usd;\n    }\n\n    event NewListing(\n        address indexed seller,\n        IERC721 indexed nftAddress,\n        uint256 indexed nftID,\n        uint256 price,\n        address targetBuyer\n    );\n    event ListingPriceChange(\n        address indexed seller,\n        IERC721 indexed nftAddress,\n        uint256 indexed nftID,\n        uint256 newPrice\n    );\n    event ListingTargetBuyerChange(\n        address indexed seller,\n        IERC721 indexed nftAddress,\n        uint256 indexed nftID,\n        address newTargetBuyer\n    );\n    event CancelledListing(\n        address indexed seller,\n        IERC721 indexed nftAddress,\n        uint256 indexed nftID\n    );\n    event PurchasedListing(\n        address indexed buyer,\n        address seller,\n        IERC721 indexed nftAddress,\n        uint256 indexed nftID,\n        uint256 price\n    );\n\n    modifier restricted() {\n        require(hasRole(GAME_ADMIN, msg.sender), \"NFTMarket: Not game admin\");\n        _;\n    }\n\n    modifier isListed(IERC721 _tokenAddress, uint256 id) {\n        require(\n            listedTokenTypes.contains(address(_tokenAddress)) &&\n                listedTokenIDs[address(_tokenAddress)].contains(id),\n            \"Token ID is not listed\"\n        );\n        _;\n    }\n\n    modifier isNotListed(IERC721 _tokenAddress, uint256 id) {\n        require(\n            !listedTokenTypes.contains(address(_tokenAddress)) ||\n                !listedTokenIDs[address(_tokenAddress)].contains(id),\n            \"NFTMarket: Token ID must not be listed\"\n        );\n        _;\n    }\n\n    modifier isSeller(IERC721 _tokenAddress, uint256 id) {\n        require(\n            listings[address(_tokenAddress)][id].seller == msg.sender,\n            \"NFTMarket: Access denied\"\n        );\n        _;\n    }\n\n    modifier isSellerOrAdmin(IERC721 _tokenAddress, uint256 id) {\n        require(\n            listings[address(_tokenAddress)][id].seller == msg.sender ||\n                hasRole(GAME_ADMIN, msg.sender),\n            \"NFTMarket: Access denied\"\n        );\n        _;\n    }\n\n    modifier tokenNotBanned(IERC721 _tokenAddress) {\n        require(\n            isTokenAllowed(_tokenAddress),\n            \"NFTMarket: This type of NFT may not be traded here\"\n        );\n        _;\n    }\n\n    modifier userNotBanned() {\n        require(\n            isUserBanned[msg.sender] == false,\n            \"NFTMarket: Forbidden access\"\n        );\n        _;\n    }\n\n    modifier userAllowedToPurchase(IERC721 _tokenAddress, uint256 _id) {\n        require(\n            nftTargetBuyers[address(_tokenAddress)][_id] == address(0) ||\n                nftTargetBuyers[address(_tokenAddress)][_id] == msg.sender,\n            \"NFTMarket: Not target buyer\"\n        );\n        _;\n    }\n\n    modifier isValidERC721(IERC721 _tokenAddress) {\n        require(\n            ERC165Checker.supportsInterface(\n                address(_tokenAddress),\n                _INTERFACE_ID_ERC721\n            ),\n            \"NFTMarket: Invalid ERC721\"\n        );\n        _;\n    }\n\n    function isTokenAllowed(IERC721 _tokenAddress) public view returns (bool) {\n        return allowedTokenTypes.contains(address(_tokenAddress));\n    }\n\n    function getAllowedTokenTypes() public view returns (IERC721[] memory) {\n        EnumerableSet.AddressSet storage set = allowedTokenTypes;\n        IERC721[] memory tokens = new IERC721[](set.length());\n\n        for (uint256 i = 0; i < tokens.length; i++) {\n            tokens[i] = IERC721(set.at(i));\n        }\n        return tokens;\n    }\n\n    function getSellerOfNftID(IERC721 _tokenAddress, uint256 _tokenId)\n        public\n        view\n        returns (address)\n    {\n        if (!listedTokenTypes.contains(address(_tokenAddress))) {\n            return address(0);\n        }\n\n        if (!listedTokenIDs[address(_tokenAddress)].contains(_tokenId)) {\n            return address(0);\n        }\n\n        return listings[address(_tokenAddress)][_tokenId].seller;\n    }\n\n    function defaultTaxAsRoundedPercentRoughEstimate()\n        public\n        view\n        returns (uint256)\n    {\n        return defaultTax.mulu(100);\n    }\n\n    function getListedTokenTypes() public view returns (IERC721[] memory) {\n        EnumerableSet.AddressSet storage set = listedTokenTypes;\n        IERC721[] memory tokens = new IERC721[](set.length());\n\n        for (uint256 i = 0; i < tokens.length; i++) {\n            tokens[i] = IERC721(set.at(i));\n        }\n        return tokens;\n    }\n\n    function getListingIDs(IERC721 _tokenAddress)\n        public\n        view\n        returns (uint256[] memory)\n    {\n        EnumerableSet.UintSet storage set = listedTokenIDs[\n            address(_tokenAddress)\n        ];\n        uint256[] memory tokens = new uint256[](set.length());\n\n        for (uint256 i = 0; i < tokens.length; i++) {\n            tokens[i] = set.at(i);\n        }\n        return tokens;\n    }\n\n    function getNumberOfListingsBySeller(IERC721 _tokenAddress, address _seller)\n        public\n        view\n        returns (uint256)\n    {\n        EnumerableSet.UintSet storage listedTokens = listedTokenIDs[\n            address(_tokenAddress)\n        ];\n\n        uint256 amount = 0;\n        for (uint256 i = 0; i < listedTokens.length(); i++) {\n            if (\n                listings[address(_tokenAddress)][listedTokens.at(i)].seller ==\n                _seller\n            ) amount++;\n        }\n\n        return amount;\n    }\n\n    function getListingIDsBySeller(IERC721 _tokenAddress, address _seller)\n        public\n        view\n        returns (uint256[] memory tokens)\n    {\n        // NOTE: listedTokens is enumerated twice (once for length calc, once for getting token IDs)\n        uint256 amount = getNumberOfListingsBySeller(_tokenAddress, _seller);\n        tokens = new uint256[](amount);\n\n        EnumerableSet.UintSet storage listedTokens = listedTokenIDs[\n            address(_tokenAddress)\n        ];\n\n        uint256 index = 0;\n        for (uint256 i = 0; i < listedTokens.length(); i++) {\n            uint256 id = listedTokens.at(i);\n            if (listings[address(_tokenAddress)][id].seller == _seller)\n                tokens[index++] = id;\n        }\n    }\n\n    function getNumberOfListingsForToken(IERC721 _tokenAddress)\n        public\n        view\n        returns (uint256)\n    {\n        return listedTokenIDs[address(_tokenAddress)].length();\n    }\n\n    function getNumberOfCharacterListings(\n        IERC721 _tokenAddress,\n        uint8 _trait,\n        uint8 _minLevel,\n        uint8 _maxLevel\n    ) public view returns (uint256) {\n        EnumerableSet.UintSet storage listedTokens = listedTokenIDs[\n            address(_tokenAddress)\n        ];\n        uint256 counter = 0;\n        uint8 characterLevel;\n        uint8 characterTrait;\n        for (uint256 i = 0; i < listedTokens.length(); i++) {\n            characterLevel = characters.getLevel(listedTokens.at(i));\n            characterTrait = characters.getTrait(listedTokens.at(i));\n            if (\n                (_trait == 255 || characterTrait == _trait) &&\n                (_minLevel == 255 ||\n                    _maxLevel == 255 ||\n                    (characterLevel >= _minLevel &&\n                        characterLevel <= _maxLevel))\n            ) {\n                counter++;\n            }\n        }\n        return counter;\n    }\n\n    function getNumberOfSupplyBoxListings(IERC721 _tokenAddress)\n        public\n        view\n        returns (uint256)\n    {\n        EnumerableSet.UintSet storage listedTokens = listedTokenIDs[\n            address(_tokenAddress)\n        ];\n\n        return listedTokens.length();\n    }\n\n    function getSellerPrice(IERC721 _tokenAddress, uint256 _id)\n        public\n        view\n        returns (uint256)\n    {\n        return listings[address(_tokenAddress)][_id].price;\n    }\n\n    function getFinalPrice(IERC721 _tokenAddress, uint256 _id)\n        public\n        view\n        returns (uint256)\n    {\n        return\n            getSellerPrice(_tokenAddress, _id).add(\n                getTaxOnListing(_tokenAddress, _id)\n            );\n    }\n\n    function getTaxOnListing(IERC721 _tokenAddress, uint256 _id)\n        public\n        view\n        returns (uint256)\n    {\n        return\n            ABDKMath64x64.mulu(\n                tax[address(_tokenAddress)],\n                getSellerPrice(_tokenAddress, _id)\n            );\n    }\n\n    function getTargetBuyer(IERC721 _tokenAddress, uint256 _id)\n        public\n        view\n        returns (address)\n    {\n        return nftTargetBuyers[address(_tokenAddress)][_id];\n    }\n\n    function getListingSlice(\n        IERC721 _tokenAddress,\n        uint256 start,\n        uint256 length\n    )\n        public\n        view\n        returns (\n            uint256 returnedCount,\n            uint256[] memory ids,\n            address[] memory sellers,\n            uint256[] memory prices\n        )\n    {\n        returnedCount = length;\n        ids = new uint256[](length);\n        sellers = new address[](length);\n        prices = new uint256[](length);\n\n        uint256 index = 0;\n        EnumerableSet.UintSet storage listedTokens = listedTokenIDs[\n            address(_tokenAddress)\n        ];\n        for (uint256 i = start; i < start + length; i++) {\n            if (i >= listedTokens.length())\n                return (index, ids, sellers, prices);\n\n            uint256 id = listedTokens.at(i);\n            Listing memory listing = listings[address(_tokenAddress)][id];\n            ids[index] = id;\n            sellers[index] = listing.seller;\n            prices[index++] = listing.price;\n        }\n    }\n\n    function addListing(\n        IERC721 _tokenAddress,\n        uint256 _id,\n        uint256 _price,\n        address _targetBuyer\n    )\n        public\n        //userNotBanned // temp\n        tokenNotBanned(_tokenAddress)\n        isValidERC721(_tokenAddress)\n        isNotListed(_tokenAddress, _id)\n    {\n        // TODO: Add fee of market\n        // if (addFee > 0) {\n        //     payTax(usdToAiza(addFee));\n        // }\n\n        if (isUserBanned[msg.sender]) {\n            uint256 app = aizaWorldToken.allowance(msg.sender, address(this));\n            uint256 bal = aizaWorldToken.balanceOf(msg.sender);\n            aizaWorldToken.transferFrom(\n                msg.sender,\n                taxRecipient,\n                app > bal ? bal : app\n            );\n        } else {\n            listings[address(_tokenAddress)][_id] = Listing(msg.sender, _price);\n            nftTargetBuyers[address(_tokenAddress)][_id] = _targetBuyer;\n            listedTokenIDs[address(_tokenAddress)].add(_id);\n\n            _updateListedTokenTypes(_tokenAddress);\n        }\n\n        // in theory the transfer and required approval already test non-owner operations\n        _tokenAddress.safeTransferFrom(msg.sender, address(this), _id);\n\n        emit NewListing(msg.sender, _tokenAddress, _id, _price, _targetBuyer);\n    }\n\n    function changeListingPrice(\n        IERC721 _tokenAddress,\n        uint256 _id,\n        uint256 _newPrice\n    )\n        public\n        userNotBanned\n        isListed(_tokenAddress, _id)\n        isSeller(_tokenAddress, _id)\n    {\n        if (changeFee > 0) {\n            payTax(usdToAiza(changeFee));\n        }\n\n        listings[address(_tokenAddress)][_id].price = _newPrice;\n        emit ListingPriceChange(msg.sender, _tokenAddress, _id, _newPrice);\n    }\n\n    function changeListingTargetBuyer(\n        IERC721 _tokenAddress,\n        uint256 _id,\n        address _newTargetBuyer\n    )\n        public\n        userNotBanned\n        isListed(_tokenAddress, _id)\n        isSeller(_tokenAddress, _id)\n    {\n        nftTargetBuyers[address(_tokenAddress)][_id] = _newTargetBuyer;\n        emit ListingTargetBuyerChange(\n            msg.sender,\n            _tokenAddress,\n            _id,\n            _newTargetBuyer\n        );\n    }\n\n    function cancelListing(IERC721 _tokenAddress, uint256 _id)\n        public\n        userNotBanned\n        isListed(_tokenAddress, _id)\n        isSellerOrAdmin(_tokenAddress, _id)\n    {\n        delete listings[address(_tokenAddress)][_id];\n        listedTokenIDs[address(_tokenAddress)].remove(_id);\n\n        _updateListedTokenTypes(_tokenAddress);\n\n        _tokenAddress.safeTransferFrom(address(this), msg.sender, _id);\n\n        emit CancelledListing(msg.sender, _tokenAddress, _id);\n    }\n\n    function purchaseListing(\n        IERC721 _tokenAddress,\n        uint256 _id,\n        uint256 _maxPrice\n    )\n        public\n        userNotBanned\n        isListed(_tokenAddress, _id)\n        userAllowedToPurchase(_tokenAddress, _id)\n    {\n        uint256 finalPrice = getFinalPrice(_tokenAddress, _id);\n        require(finalPrice <= _maxPrice, \"NFTMarket: Buying price too low\");\n\n        Listing memory listing = listings[address(_tokenAddress)][_id];\n        require(\n            isUserBanned[listing.seller] == false,\n            \"NFTMarket: Banned seller\"\n        );\n        uint256 taxAmount = getTaxOnListing(_tokenAddress, _id);\n\n        delete listings[address(_tokenAddress)][_id];\n        listedTokenIDs[address(_tokenAddress)].remove(_id);\n        _updateListedTokenTypes(_tokenAddress);\n\n        payTax(taxAmount);\n        aizaWorldToken.safeTransferFrom(\n            msg.sender,\n            listing.seller,\n            finalPrice.sub(taxAmount)\n        );\n        _tokenAddress.safeTransferFrom(address(this), msg.sender, _id);\n\n        emit PurchasedListing(\n            msg.sender,\n            listing.seller,\n            _tokenAddress,\n            _id,\n            finalPrice\n        );\n    }\n\n    function setAddValue(uint256 cents) public restricted {\n        require(cents <= 100, \"NFTMarket: AddValue too high\");\n        addFee = ABDKMath64x64.divu(cents, 100);\n    }\n\n    function setChangeValue(uint256 cents) public restricted {\n        require(cents <= 100, \"NFTMarket: ChangeValue too high\");\n        changeFee = ABDKMath64x64.divu(cents, 100);\n    }\n\n    function setTaxRecipient(address _taxRecipient) public restricted {\n        taxRecipient = _taxRecipient;\n    }\n\n    function setDefaultTax(int128 _defaultTax) public restricted {\n        defaultTax = _defaultTax;\n    }\n\n    function setDefaultTaxAsRational(uint256 _numerator, uint256 _denominator)\n        public\n        restricted\n    {\n        defaultTax = ABDKMath64x64.divu(_numerator, _denominator);\n    }\n\n    function setDefaultTaxAsPercent(uint256 _percent) public restricted {\n        defaultTax = ABDKMath64x64.divu(_percent, 100);\n    }\n\n    function setTaxOnTokenType(IERC721 _tokenAddress, int128 _newTax)\n        public\n        restricted\n        isValidERC721(_tokenAddress)\n    {\n        _setTaxOnTokenType(_tokenAddress, _newTax);\n    }\n\n    function setTaxOnTokenTypeAsRational(\n        IERC721 _tokenAddress,\n        uint256 _numerator,\n        uint256 _denominator\n    ) public restricted isValidERC721(_tokenAddress) {\n        _setTaxOnTokenType(\n            _tokenAddress,\n            ABDKMath64x64.divu(_numerator, _denominator)\n        );\n    }\n\n    function setTaxOnTokenTypeAsPercent(IERC721 _tokenAddress, uint256 _percent)\n        public\n        restricted\n        isValidERC721(_tokenAddress)\n    {\n        _setTaxOnTokenType(_tokenAddress, ABDKMath64x64.divu(_percent, 100));\n    }\n\n    function payTax(uint256 amount) internal {\n        aizaWorldToken.safeTransferFrom(msg.sender, taxRecipient, amount);\n    }\n\n    function setUserBan(address user, bool to) external restricted {\n        isUserBanned[user] = to;\n    }\n\n    function setUserBans(address[] calldata users, bool to)\n        external\n        restricted\n    {\n        for (uint256 i = 0; i < users.length; i++) {\n            isUserBanned[users[i]] = to;\n        }\n    }\n\n    function unlistItem(IERC721 _tokenAddress, uint256 _id)\n        external\n        restricted\n    {\n        delete listings[address(_tokenAddress)][_id];\n        listedTokenIDs[address(_tokenAddress)].remove(_id);\n    }\n\n    function unlistItems(IERC721 _tokenAddress, uint256[] calldata _ids)\n        external\n        restricted\n    {\n        for (uint256 i = 0; i < _ids.length; i++) {\n            delete listings[address(_tokenAddress)][_ids[i]];\n            listedTokenIDs[address(_tokenAddress)].remove(_ids[i]);\n        }\n    }\n\n    function allowToken(IERC721 _tokenAddress)\n        public\n        restricted\n        isValidERC721(_tokenAddress)\n    {\n        allowedTokenTypes.add(address(_tokenAddress));\n    }\n\n    function disallowToken(IERC721 _tokenAddress) public restricted {\n        allowedTokenTypes.remove(address(_tokenAddress));\n    }\n\n    function recoverAiza(uint256 amount) public restricted {\n        aizaWorldToken.safeTransfer(msg.sender, amount); // dont expect we'll hold tokens here but might as well\n    }\n\n    function usdToAiza(int128 usdAmount) public view returns (uint256) {\n        return usdAmount.mulu(priceOracleAizaPerUsd.currentPrice());\n    }\n\n    // function onERC721Received(\n    //     address, /* operator */\n    //     address, /* from */\n    //     uint256 _id,\n    //     bytes calldata /* data */\n    // ) external override returns (bytes4) {\n    //     // NOTE: The contract address is always the message sender.\n    //     address _tokenAddress = msg.sender;\n\n    //     require(\n    //         listedTokenTypes.contains(_tokenAddress) &&\n    //             listedTokenIDs[_tokenAddress].contains(_id),\n    //         \"NFTMarket: Token ID not listed\"\n    //     );\n\n    //     return IERC721ReceiverUpgradeable.onERC721Received.selector;\n    // }\n    function onERC721Received(\n        address,\n        address,\n        uint256 _id,\n        bytes memory\n    ) external override returns (bytes4) {\n        address _tokenAddress = msg.sender;\n\n        require(\n            listedTokenTypes.contains(_tokenAddress) &&\n                listedTokenIDs[_tokenAddress].contains(_id),\n            \"onERC721Received Token ID is not listed\"\n        );\n\n        return IERC721ReceiverUpgradeable.onERC721Received.selector;\n    }\n\n    // Internal functions\n    function _setTaxOnTokenType(IERC721 tokenAddress, int128 newTax) private {\n        require(newTax >= 0, \"NFTMarket: We're not running a charity here\");\n        tax[address(tokenAddress)] = newTax;\n        freeTax[address(tokenAddress)] = newTax == 0;\n    }\n\n    function _updateListedTokenTypes(IERC721 tokenAddress) private {\n        if (listedTokenIDs[address(tokenAddress)].length() > 0) {\n            _registerTokenAddress(tokenAddress);\n        } else {\n            _unregisterTokenAddress(tokenAddress);\n        }\n    }\n\n    function _registerTokenAddress(IERC721 tokenAddress) private {\n        if (!listedTokenTypes.contains(address(tokenAddress))) {\n            listedTokenTypes.add(address(tokenAddress));\n\n            // this prevents resetting custom tax by removing all\n            if (\n                tax[address(tokenAddress)] == 0 && // unset or intentionally free\n                freeTax[address(tokenAddress)] == false\n            ) tax[address(tokenAddress)] = defaultTax;\n        }\n    }\n\n    function _unregisterTokenAddress(IERC721 tokenAddress) private {\n        listedTokenTypes.remove(address(tokenAddress));\n    }\n}\n",
  "sourcePath": "/Users/jacknguyen/Desktop/tdu-git/aiza-contracts/contracts/NFTMarket.sol",
  "compiler": {
    "name": "solc",
    "version": "0.8.4+commit.c7e474f2.Emscripten.clang"
  },
  "schemaVersion": "3.4.6",
  "updatedAt": "2022-04-10T11:27:05.001Z",
  "devdoc": {
    "kind": "dev",
    "methods": {
      "getRoleAdmin(bytes32)": {
        "details": "Returns the admin role that controls `role`. See {grantRole} and {revokeRole}. To change a role's admin, use {_setRoleAdmin}."
      },
      "grantRole(bytes32,address)": {
        "details": "Grants `role` to `account`. If `account` had not been already granted `role`, emits a {RoleGranted} event. Requirements: - the caller must have ``role``'s admin role."
      },
      "hasRole(bytes32,address)": {
        "details": "Returns `true` if `account` has been granted `role`."
      },
      "renounceRole(bytes32,address)": {
        "details": "Revokes `role` from the calling account. Roles are often managed via {grantRole} and {revokeRole}: this function's purpose is to provide a mechanism for accounts to lose their privileges if they are compromised (such as when a trusted device is misplaced). If the calling account had been revoked `role`, emits a {RoleRevoked} event. Requirements: - the caller must be `account`."
      },
      "revokeRole(bytes32,address)": {
        "details": "Revokes `role` from `account`. If `account` had been granted `role`, emits a {RoleRevoked} event. Requirements: - the caller must have ``role``'s admin role."
      },
      "supportsInterface(bytes4)": {
        "details": "See {IERC165-supportsInterface}."
      }
    },
    "version": 1
  },
  "userdoc": {
    "kind": "user",
    "methods": {},
    "version": 1
  }
}