{
  "contractName": "PriceOracle",
  "abi": [
    {
      "anonymous": false,
      "inputs": [
        {
          "indexed": false,
          "internalType": "uint256",
          "name": "price",
          "type": "uint256"
        }
      ],
      "name": "CurrentPriceUpdated",
      "type": "event"
    },
    {
      "anonymous": false,
      "inputs": [
        {
          "indexed": true,
          "internalType": "bytes32",
          "name": "role",
          "type": "bytes32"
        },
        {
          "indexed": true,
          "internalType": "bytes32",
          "name": "previousAdminRole",
          "type": "bytes32"
        },
        {
          "indexed": true,
          "internalType": "bytes32",
          "name": "newAdminRole",
          "type": "bytes32"
        }
      ],
      "name": "RoleAdminChanged",
      "type": "event"
    },
    {
      "anonymous": false,
      "inputs": [
        {
          "indexed": true,
          "internalType": "bytes32",
          "name": "role",
          "type": "bytes32"
        },
        {
          "indexed": true,
          "internalType": "address",
          "name": "account",
          "type": "address"
        },
        {
          "indexed": true,
          "internalType": "address",
          "name": "sender",
          "type": "address"
        }
      ],
      "name": "RoleGranted",
      "type": "event"
    },
    {
      "anonymous": false,
      "inputs": [
        {
          "indexed": true,
          "internalType": "bytes32",
          "name": "role",
          "type": "bytes32"
        },
        {
          "indexed": true,
          "internalType": "address",
          "name": "account",
          "type": "address"
        },
        {
          "indexed": true,
          "internalType": "address",
          "name": "sender",
          "type": "address"
        }
      ],
      "name": "RoleRevoked",
      "type": "event"
    },
    {
      "inputs": [],
      "name": "DEFAULT_ADMIN_ROLE",
      "outputs": [
        {
          "internalType": "bytes32",
          "name": "",
          "type": "bytes32"
        }
      ],
      "stateMutability": "view",
      "type": "function"
    },
    {
      "inputs": [],
      "name": "PRICE_UPDATER",
      "outputs": [
        {
          "internalType": "bytes32",
          "name": "",
          "type": "bytes32"
        }
      ],
      "stateMutability": "view",
      "type": "function"
    },
    {
      "inputs": [
        {
          "internalType": "bytes32",
          "name": "role",
          "type": "bytes32"
        }
      ],
      "name": "getRoleAdmin",
      "outputs": [
        {
          "internalType": "bytes32",
          "name": "",
          "type": "bytes32"
        }
      ],
      "stateMutability": "view",
      "type": "function"
    },
    {
      "inputs": [
        {
          "internalType": "bytes32",
          "name": "role",
          "type": "bytes32"
        },
        {
          "internalType": "address",
          "name": "account",
          "type": "address"
        }
      ],
      "name": "grantRole",
      "outputs": [],
      "stateMutability": "nonpayable",
      "type": "function"
    },
    {
      "inputs": [
        {
          "internalType": "bytes32",
          "name": "role",
          "type": "bytes32"
        },
        {
          "internalType": "address",
          "name": "account",
          "type": "address"
        }
      ],
      "name": "hasRole",
      "outputs": [
        {
          "internalType": "bool",
          "name": "",
          "type": "bool"
        }
      ],
      "stateMutability": "view",
      "type": "function"
    },
    {
      "inputs": [
        {
          "internalType": "bytes32",
          "name": "role",
          "type": "bytes32"
        },
        {
          "internalType": "address",
          "name": "account",
          "type": "address"
        }
      ],
      "name": "renounceRole",
      "outputs": [],
      "stateMutability": "nonpayable",
      "type": "function"
    },
    {
      "inputs": [
        {
          "internalType": "bytes32",
          "name": "role",
          "type": "bytes32"
        },
        {
          "internalType": "address",
          "name": "account",
          "type": "address"
        }
      ],
      "name": "revokeRole",
      "outputs": [],
      "stateMutability": "nonpayable",
      "type": "function"
    },
    {
      "inputs": [
        {
          "internalType": "bytes4",
          "name": "interfaceId",
          "type": "bytes4"
        }
      ],
      "name": "supportsInterface",
      "outputs": [
        {
          "internalType": "bool",
          "name": "",
          "type": "bool"
        }
      ],
      "stateMutability": "view",
      "type": "function"
    },
    {
      "inputs": [],
      "name": "initialize",
      "outputs": [],
      "stateMutability": "nonpayable",
      "type": "function"
    },
    {
      "inputs": [],
      "name": "currentPrice",
      "outputs": [
        {
          "internalType": "uint256",
          "name": "",
          "type": "uint256"
        }
      ],
      "stateMutability": "view",
      "type": "function"
    },
    {
      "inputs": [
        {
          "internalType": "uint256",
          "name": "_currentPrice",
          "type": "uint256"
        }
      ],
      "name": "setCurrentPrice",
      "outputs": [],
      "stateMutability": "nonpayable",
      "type": "function"
    }
  ],
  "bytecode": "0x608060405234801561001057600080fd5b50610aa8806100206000396000f3fe608060405234801561001057600080fd5b50600436106100a95760003560e01c80638129fc1c116100715780638129fc1c1461014257806391d148541461014a5780639d1b464a1461015d578063a217fddf14610165578063d547741f1461016d578063e1f84a361461018057600080fd5b806301ffc9a7146100ae57806318b20071146100d6578063248a9ca3146100eb5780632f2ff15d1461011c57806336568abe1461012f575b600080fd5b6100c16100bc36600461090e565b6101a7565b60405190151581526020015b60405180910390f35b6100e96100e43660046108bc565b6101de565b005b61010e6100f93660046108bc565b60009081526065602052604090206001015490565b6040519081526020016100cd565b6100e961012a3660046108d4565b6102c8565b6100e961013d3660046108d4565b6102f3565b6100e9610371565b6100c16101583660046108d4565b610476565b61010e6104a1565b61010e600081565b6100e961017b3660046108d4565b6104e5565b61010e7f74b366a297145849fa9687e16ecad1e3a60cf84f6c2256ae73e20a9f7666980481565b60006001600160e01b03198216637965db0b60e01b14806101d857506301ffc9a760e01b6001600160e01b03198316145b92915050565b6102087f74b366a297145849fa9687e16ecad1e3a60cf84f6c2256ae73e20a9f7666980433610476565b6102415760405162461bcd60e51b815260206004820152600560248201526422a929181960d91b60448201526064015b60405180910390fd5b600081116102795760405162461bcd60e51b8152602060048201526005602482015264455252303360d81b6044820152606401610238565b6097805460ff1916600117905560988190556040517fcfebfed7291191489847e6abdd482d8816f6f32efecf69fc66c91631a2f217f9906102bd9083815260200190565b60405180910390a150565b6000828152606560205260409020600101546102e4813361050b565b6102ee838361056f565b505050565b6001600160a01b03811633146103635760405162461bcd60e51b815260206004820152602f60248201527f416363657373436f6e74726f6c3a2063616e206f6e6c792072656e6f756e636560448201526e103937b632b9903337b91039b2b63360891b6064820152608401610238565b61036d82826105f5565b5050565b600054610100900460ff1661038c5760005460ff1615610390565b303b155b6103f35760405162461bcd60e51b815260206004820152602e60248201527f496e697469616c697a61626c653a20636f6e747261637420697320616c72656160448201526d191e481a5b9a5d1a585b1a5e995960921b6064820152608401610238565b600054610100900460ff16158015610415576000805461ffff19166101011790555b61041d61065c565b6104286000336106c9565b6104527f74b366a297145849fa9687e16ecad1e3a60cf84f6c2256ae73e20a9f76669804336106c9565b6097805460ff1916905560006098558015610473576000805461ff00191690555b50565b60009182526065602090815260408084206001600160a01b0393909316845291905290205460ff1690565b60975460009060ff166104de5760405162461bcd60e51b8152602060048201526005602482015264455252303160d81b6044820152606401610238565b5060985490565b600082815260656020526040902060010154610501813361050b565b6102ee83836105f5565b6105158282610476565b61036d5761052d816001600160a01b031660146106d3565b6105388360206106d3565b604051602001610549929190610936565b60408051601f198184030181529082905262461bcd60e51b8252610238916004016109ab565b6105798282610476565b61036d5760008281526065602090815260408083206001600160a01b03851684529091529020805460ff191660011790556105b13390565b6001600160a01b0316816001600160a01b0316837f2f8788117e7eff1d82e926ec794901d17c78024a50270940304540a733656f0d60405160405180910390a45050565b6105ff8282610476565b1561036d5760008281526065602090815260408083206001600160a01b0385168085529252808320805460ff1916905551339285917ff6391f5c32d9c69d2a47ea670b442974b53935d1edc7fd64eb21e047a839171b9190a45050565b600054610100900460ff166106c75760405162461bcd60e51b815260206004820152602b60248201527f496e697469616c697a61626c653a20636f6e7472616374206973206e6f74206960448201526a6e697469616c697a696e6760a81b6064820152608401610238565b565b61036d828261056f565b606060006106e28360026109f6565b6106ed9060026109de565b67ffffffffffffffff81111561071357634e487b7160e01b600052604160045260246000fd5b6040519080825280601f01601f19166020018201604052801561073d576020820181803683370190505b509050600360fc1b8160008151811061076657634e487b7160e01b600052603260045260246000fd5b60200101906001600160f81b031916908160001a905350600f60fb1b816001815181106107a357634e487b7160e01b600052603260045260246000fd5b60200101906001600160f81b031916908160001a90535060006107c78460026109f6565b6107d29060016109de565b90505b6001811115610866576f181899199a1a9b1b9c1cb0b131b232b360811b85600f166010811061081457634e487b7160e01b600052603260045260246000fd5b1a60f81b82828151811061083857634e487b7160e01b600052603260045260246000fd5b60200101906001600160f81b031916908160001a90535060049490941c9361085f81610a45565b90506107d5565b5083156108b55760405162461bcd60e51b815260206004820181905260248201527f537472696e67733a20686578206c656e67746820696e73756666696369656e746044820152606401610238565b9392505050565b6000602082840312156108cd578081fd5b5035919050565b600080604083850312156108e6578081fd5b8235915060208301356001600160a01b0381168114610903578182fd5b809150509250929050565b60006020828403121561091f578081fd5b81356001600160e01b0319811681146108b5578182fd5b7f416363657373436f6e74726f6c3a206163636f756e742000000000000000000081526000835161096e816017850160208801610a15565b7001034b99036b4b9b9b4b733903937b6329607d1b601791840191820152835161099f816028840160208801610a15565b01602801949350505050565b60208152600082518060208401526109ca816040850160208701610a15565b601f01601f19169190910160400192915050565b600082198211156109f1576109f1610a5c565b500190565b6000816000190483118215151615610a1057610a10610a5c565b500290565b60005b83811015610a30578181015183820152602001610a18565b83811115610a3f576000848401525b50505050565b600081610a5457610a54610a5c565b506000190190565b634e487b7160e01b600052601160045260246000fdfea26469706673582212203177913844571cf014cb680c271c7b6b94b83836e5c166c1579efabd8e50580564736f6c63430008040033",
  "immutableReferences": {},
  "source": "// SPDX-License-Identifier: MIT\npragma solidity ^0.8.4;\n\nimport \"@openzeppelin/contracts-upgradeable/proxy/utils/Initializable.sol\";\nimport \"@openzeppelin/contracts-upgradeable/access/AccessControlUpgradeable.sol\";\nimport \"./interfaces/IPriceOracle.sol\";\n\ncontract PriceOracle is IPriceOracle, Initializable, AccessControlUpgradeable {\n    bytes32 public constant PRICE_UPDATER = keccak256(\"PRICE_UPDATER\");\n\n    bool private priceSet;\n    uint256 private currentPrice_;\n\n    function initialize() public initializer {\n        __AccessControl_init();\n\n        _setupRole(DEFAULT_ADMIN_ROLE, _msgSender());\n        _setupRole(PRICE_UPDATER, _msgSender());\n\n        priceSet = false;\n        currentPrice_ = 0;\n    }\n\n    /// Price CRUD\n    function currentPrice() external view override returns (uint256) {\n        require(priceSet, \"ERR01\");\n        return currentPrice_;\n    }\n\n    function setCurrentPrice(uint256 _currentPrice) external override {\n        require(hasRole(PRICE_UPDATER, _msgSender()), \"ERR02\");\n        require(_currentPrice > 0, \"ERR03\");\n\n        priceSet = true;\n        currentPrice_ = _currentPrice;\n\n        emit CurrentPriceUpdated(_currentPrice);\n    }\n}\n",
  "sourcePath": "/Users/jacknguyen/Desktop/tdu-git/aiza-contracts/contracts/PriceOracle.sol",
  "compiler": {
    "name": "solc",
    "version": "0.8.4+commit.c7e474f2.Emscripten.clang"
  },
  "schemaVersion": "3.4.6",
  "updatedAt": "2022-04-10T11:27:05.040Z",
  "devdoc": {
    "kind": "dev",
    "methods": {
      "getRoleAdmin(bytes32)": {
        "details": "Returns the admin role that controls `role`. See {grantRole} and {revokeRole}. To change a role's admin, use {_setRoleAdmin}."
      },
      "grantRole(bytes32,address)": {
        "details": "Grants `role` to `account`. If `account` had not been already granted `role`, emits a {RoleGranted} event. Requirements: - the caller must have ``role``'s admin role."
      },
      "hasRole(bytes32,address)": {
        "details": "Returns `true` if `account` has been granted `role`."
      },
      "renounceRole(bytes32,address)": {
        "details": "Revokes `role` from the calling account. Roles are often managed via {grantRole} and {revokeRole}: this function's purpose is to provide a mechanism for accounts to lose their privileges if they are compromised (such as when a trusted device is misplaced). If the calling account had been revoked `role`, emits a {RoleRevoked} event. Requirements: - the caller must be `account`."
      },
      "revokeRole(bytes32,address)": {
        "details": "Revokes `role` from `account`. If `account` had been granted `role`, emits a {RoleRevoked} event. Requirements: - the caller must have ``role``'s admin role."
      },
      "supportsInterface(bytes4)": {
        "details": "See {IERC165-supportsInterface}."
      }
    },
    "version": 1
  },
  "userdoc": {
    "kind": "user",
    "methods": {
      "currentPrice()": {
        "notice": "Price CRUD"
      }
    },
    "version": 1
  }
}