{
  "contractName": "SupplyBoxs",
  "abi": [
    {
      "inputs": [],
      "stateMutability": "nonpayable",
      "type": "constructor"
    },
    {
      "anonymous": false,
      "inputs": [
        {
          "indexed": true,
          "internalType": "address",
          "name": "owner",
          "type": "address"
        },
        {
          "indexed": true,
          "internalType": "address",
          "name": "approved",
          "type": "address"
        },
        {
          "indexed": true,
          "internalType": "uint256",
          "name": "tokenId",
          "type": "uint256"
        }
      ],
      "name": "Approval",
      "type": "event"
    },
    {
      "anonymous": false,
      "inputs": [
        {
          "indexed": true,
          "internalType": "address",
          "name": "owner",
          "type": "address"
        },
        {
          "indexed": true,
          "internalType": "address",
          "name": "operator",
          "type": "address"
        },
        {
          "indexed": false,
          "internalType": "bool",
          "name": "approved",
          "type": "bool"
        }
      ],
      "name": "ApprovalForAll",
      "type": "event"
    },
    {
      "anonymous": false,
      "inputs": [
        {
          "indexed": true,
          "internalType": "uint256",
          "name": "tokenID",
          "type": "uint256"
        },
        {
          "indexed": true,
          "internalType": "address",
          "name": "receiver",
          "type": "address"
        },
        {
          "indexed": true,
          "internalType": "uint8",
          "name": "rarity",
          "type": "uint8"
        }
      ],
      "name": "NewSupplyBox",
      "type": "event"
    },
    {
      "anonymous": false,
      "inputs": [
        {
          "indexed": false,
          "internalType": "address",
          "name": "account",
          "type": "address"
        }
      ],
      "name": "Paused",
      "type": "event"
    },
    {
      "anonymous": false,
      "inputs": [
        {
          "indexed": true,
          "internalType": "bytes32",
          "name": "role",
          "type": "bytes32"
        },
        {
          "indexed": true,
          "internalType": "bytes32",
          "name": "previousAdminRole",
          "type": "bytes32"
        },
        {
          "indexed": true,
          "internalType": "bytes32",
          "name": "newAdminRole",
          "type": "bytes32"
        }
      ],
      "name": "RoleAdminChanged",
      "type": "event"
    },
    {
      "anonymous": false,
      "inputs": [
        {
          "indexed": true,
          "internalType": "bytes32",
          "name": "role",
          "type": "bytes32"
        },
        {
          "indexed": true,
          "internalType": "address",
          "name": "account",
          "type": "address"
        },
        {
          "indexed": true,
          "internalType": "address",
          "name": "sender",
          "type": "address"
        }
      ],
      "name": "RoleGranted",
      "type": "event"
    },
    {
      "anonymous": false,
      "inputs": [
        {
          "indexed": true,
          "internalType": "bytes32",
          "name": "role",
          "type": "bytes32"
        },
        {
          "indexed": true,
          "internalType": "address",
          "name": "account",
          "type": "address"
        },
        {
          "indexed": true,
          "internalType": "address",
          "name": "sender",
          "type": "address"
        }
      ],
      "name": "RoleRevoked",
      "type": "event"
    },
    {
      "anonymous": false,
      "inputs": [
        {
          "indexed": true,
          "internalType": "address",
          "name": "from",
          "type": "address"
        },
        {
          "indexed": true,
          "internalType": "address",
          "name": "to",
          "type": "address"
        },
        {
          "indexed": true,
          "internalType": "uint256",
          "name": "tokenId",
          "type": "uint256"
        }
      ],
      "name": "Transfer",
      "type": "event"
    },
    {
      "anonymous": false,
      "inputs": [
        {
          "indexed": false,
          "internalType": "address",
          "name": "account",
          "type": "address"
        }
      ],
      "name": "Unpaused",
      "type": "event"
    },
    {
      "inputs": [],
      "name": "DEFAULT_ADMIN_ROLE",
      "outputs": [
        {
          "internalType": "bytes32",
          "name": "",
          "type": "bytes32"
        }
      ],
      "stateMutability": "view",
      "type": "function"
    },
    {
      "inputs": [
        {
          "internalType": "uint256",
          "name": "",
          "type": "uint256"
        }
      ],
      "name": "MAX_BOX_SUPPLY",
      "outputs": [
        {
          "internalType": "uint16",
          "name": "",
          "type": "uint16"
        }
      ],
      "stateMutability": "view",
      "type": "function"
    },
    {
      "inputs": [],
      "name": "MINTER_ROLE",
      "outputs": [
        {
          "internalType": "bytes32",
          "name": "",
          "type": "bytes32"
        }
      ],
      "stateMutability": "view",
      "type": "function"
    },
    {
      "inputs": [],
      "name": "PAUSER_ROLE",
      "outputs": [
        {
          "internalType": "bytes32",
          "name": "",
          "type": "bytes32"
        }
      ],
      "stateMutability": "view",
      "type": "function"
    },
    {
      "inputs": [
        {
          "internalType": "address",
          "name": "to",
          "type": "address"
        },
        {
          "internalType": "uint256",
          "name": "tokenId",
          "type": "uint256"
        }
      ],
      "name": "approve",
      "outputs": [],
      "stateMutability": "nonpayable",
      "type": "function"
    },
    {
      "inputs": [
        {
          "internalType": "address",
          "name": "owner",
          "type": "address"
        }
      ],
      "name": "balanceOf",
      "outputs": [
        {
          "internalType": "uint256",
          "name": "",
          "type": "uint256"
        }
      ],
      "stateMutability": "view",
      "type": "function"
    },
    {
      "inputs": [
        {
          "internalType": "uint256",
          "name": "tokenId",
          "type": "uint256"
        }
      ],
      "name": "burn",
      "outputs": [],
      "stateMutability": "nonpayable",
      "type": "function"
    },
    {
      "inputs": [
        {
          "internalType": "uint256",
          "name": "tokenId",
          "type": "uint256"
        }
      ],
      "name": "getApproved",
      "outputs": [
        {
          "internalType": "address",
          "name": "",
          "type": "address"
        }
      ],
      "stateMutability": "view",
      "type": "function"
    },
    {
      "inputs": [
        {
          "internalType": "bytes32",
          "name": "role",
          "type": "bytes32"
        }
      ],
      "name": "getRoleAdmin",
      "outputs": [
        {
          "internalType": "bytes32",
          "name": "",
          "type": "bytes32"
        }
      ],
      "stateMutability": "view",
      "type": "function"
    },
    {
      "inputs": [
        {
          "internalType": "bytes32",
          "name": "role",
          "type": "bytes32"
        },
        {
          "internalType": "address",
          "name": "account",
          "type": "address"
        }
      ],
      "name": "grantRole",
      "outputs": [],
      "stateMutability": "nonpayable",
      "type": "function"
    },
    {
      "inputs": [
        {
          "internalType": "bytes32",
          "name": "role",
          "type": "bytes32"
        },
        {
          "internalType": "address",
          "name": "account",
          "type": "address"
        }
      ],
      "name": "hasRole",
      "outputs": [
        {
          "internalType": "bool",
          "name": "",
          "type": "bool"
        }
      ],
      "stateMutability": "view",
      "type": "function"
    },
    {
      "inputs": [
        {
          "internalType": "address",
          "name": "owner",
          "type": "address"
        },
        {
          "internalType": "address",
          "name": "operator",
          "type": "address"
        }
      ],
      "name": "isApprovedForAll",
      "outputs": [
        {
          "internalType": "bool",
          "name": "",
          "type": "bool"
        }
      ],
      "stateMutability": "view",
      "type": "function"
    },
    {
      "inputs": [],
      "name": "name",
      "outputs": [
        {
          "internalType": "string",
          "name": "",
          "type": "string"
        }
      ],
      "stateMutability": "view",
      "type": "function"
    },
    {
      "inputs": [
        {
          "internalType": "uint256",
          "name": "tokenId",
          "type": "uint256"
        }
      ],
      "name": "ownerOf",
      "outputs": [
        {
          "internalType": "address",
          "name": "",
          "type": "address"
        }
      ],
      "stateMutability": "view",
      "type": "function"
    },
    {
      "inputs": [],
      "name": "paused",
      "outputs": [
        {
          "internalType": "bool",
          "name": "",
          "type": "bool"
        }
      ],
      "stateMutability": "view",
      "type": "function"
    },
    {
      "inputs": [
        {
          "internalType": "bytes32",
          "name": "role",
          "type": "bytes32"
        },
        {
          "internalType": "address",
          "name": "account",
          "type": "address"
        }
      ],
      "name": "renounceRole",
      "outputs": [],
      "stateMutability": "nonpayable",
      "type": "function"
    },
    {
      "inputs": [
        {
          "internalType": "bytes32",
          "name": "role",
          "type": "bytes32"
        },
        {
          "internalType": "address",
          "name": "account",
          "type": "address"
        }
      ],
      "name": "revokeRole",
      "outputs": [],
      "stateMutability": "nonpayable",
      "type": "function"
    },
    {
      "inputs": [
        {
          "internalType": "address",
          "name": "from",
          "type": "address"
        },
        {
          "internalType": "address",
          "name": "to",
          "type": "address"
        },
        {
          "internalType": "uint256",
          "name": "tokenId",
          "type": "uint256"
        }
      ],
      "name": "safeTransferFrom",
      "outputs": [],
      "stateMutability": "nonpayable",
      "type": "function"
    },
    {
      "inputs": [
        {
          "internalType": "address",
          "name": "from",
          "type": "address"
        },
        {
          "internalType": "address",
          "name": "to",
          "type": "address"
        },
        {
          "internalType": "uint256",
          "name": "tokenId",
          "type": "uint256"
        },
        {
          "internalType": "bytes",
          "name": "_data",
          "type": "bytes"
        }
      ],
      "name": "safeTransferFrom",
      "outputs": [],
      "stateMutability": "nonpayable",
      "type": "function"
    },
    {
      "inputs": [
        {
          "internalType": "address",
          "name": "operator",
          "type": "address"
        },
        {
          "internalType": "bool",
          "name": "approved",
          "type": "bool"
        }
      ],
      "name": "setApprovalForAll",
      "outputs": [],
      "stateMutability": "nonpayable",
      "type": "function"
    },
    {
      "inputs": [],
      "name": "symbol",
      "outputs": [
        {
          "internalType": "string",
          "name": "",
          "type": "string"
        }
      ],
      "stateMutability": "view",
      "type": "function"
    },
    {
      "inputs": [
        {
          "internalType": "uint256",
          "name": "index",
          "type": "uint256"
        }
      ],
      "name": "tokenByIndex",
      "outputs": [
        {
          "internalType": "uint256",
          "name": "",
          "type": "uint256"
        }
      ],
      "stateMutability": "view",
      "type": "function"
    },
    {
      "inputs": [
        {
          "internalType": "address",
          "name": "owner",
          "type": "address"
        },
        {
          "internalType": "uint256",
          "name": "index",
          "type": "uint256"
        }
      ],
      "name": "tokenOfOwnerByIndex",
      "outputs": [
        {
          "internalType": "uint256",
          "name": "",
          "type": "uint256"
        }
      ],
      "stateMutability": "view",
      "type": "function"
    },
    {
      "inputs": [
        {
          "internalType": "uint256",
          "name": "",
          "type": "uint256"
        }
      ],
      "name": "tokensInfoExt",
      "outputs": [
        {
          "internalType": "uint8",
          "name": "rarity",
          "type": "uint8"
        },
        {
          "internalType": "bool",
          "name": "isOpen",
          "type": "bool"
        }
      ],
      "stateMutability": "view",
      "type": "function"
    },
    {
      "inputs": [],
      "name": "totalSupply",
      "outputs": [
        {
          "internalType": "uint256",
          "name": "",
          "type": "uint256"
        }
      ],
      "stateMutability": "view",
      "type": "function"
    },
    {
      "inputs": [
        {
          "internalType": "address",
          "name": "from",
          "type": "address"
        },
        {
          "internalType": "address",
          "name": "to",
          "type": "address"
        },
        {
          "internalType": "uint256",
          "name": "tokenId",
          "type": "uint256"
        }
      ],
      "name": "transferFrom",
      "outputs": [],
      "stateMutability": "nonpayable",
      "type": "function"
    },
    {
      "inputs": [],
      "name": "initialize",
      "outputs": [],
      "stateMutability": "nonpayable",
      "type": "function"
    },
    {
      "inputs": [],
      "name": "pause",
      "outputs": [],
      "stateMutability": "nonpayable",
      "type": "function"
    },
    {
      "inputs": [],
      "name": "unpause",
      "outputs": [],
      "stateMutability": "nonpayable",
      "type": "function"
    },
    {
      "inputs": [
        {
          "internalType": "address",
          "name": "receiver",
          "type": "address"
        },
        {
          "internalType": "uint8",
          "name": "rarity",
          "type": "uint8"
        },
        {
          "internalType": "uint16",
          "name": "mintAmount",
          "type": "uint16"
        },
        {
          "internalType": "string",
          "name": "uri",
          "type": "string"
        }
      ],
      "name": "mintBatch",
      "outputs": [
        {
          "internalType": "uint16",
          "name": "",
          "type": "uint16"
        }
      ],
      "stateMutability": "nonpayable",
      "type": "function"
    },
    {
      "inputs": [
        {
          "internalType": "address",
          "name": "receiver",
          "type": "address"
        },
        {
          "internalType": "uint8",
          "name": "rarity",
          "type": "uint8"
        },
        {
          "internalType": "string",
          "name": "uri",
          "type": "string"
        }
      ],
      "name": "mintWithRarity",
      "outputs": [
        {
          "internalType": "uint256",
          "name": "",
          "type": "uint256"
        }
      ],
      "stateMutability": "nonpayable",
      "type": "function"
    },
    {
      "inputs": [
        {
          "internalType": "address",
          "name": "to",
          "type": "address"
        },
        {
          "internalType": "string",
          "name": "uri",
          "type": "string"
        }
      ],
      "name": "safeMint",
      "outputs": [
        {
          "internalType": "uint256",
          "name": "",
          "type": "uint256"
        }
      ],
      "stateMutability": "nonpayable",
      "type": "function"
    },
    {
      "inputs": [
        {
          "internalType": "uint16[3]",
          "name": "_newMaxSupplies",
          "type": "uint16[3]"
        }
      ],
      "name": "updateBoxLimit",
      "outputs": [],
      "stateMutability": "nonpayable",
      "type": "function"
    },
    {
      "inputs": [
        {
          "internalType": "uint256",
          "name": "tokenId",
          "type": "uint256"
        }
      ],
      "name": "tokenURI",
      "outputs": [
        {
          "internalType": "string",
          "name": "",
          "type": "string"
        }
      ],
      "stateMutability": "view",
      "type": "function"
    },
    {
      "inputs": [
        {
          "internalType": "bytes4",
          "name": "interfaceId",
          "type": "bytes4"
        }
      ],
      "name": "supportsInterface",
      "outputs": [
        {
          "internalType": "bool",
          "name": "",
          "type": "bool"
        }
      ],
      "stateMutability": "view",
      "type": "function"
    },
    {
      "inputs": [
        {
          "internalType": "uint256",
          "name": "id",
          "type": "uint256"
        }
      ],
      "name": "getRarityById",
      "outputs": [
        {
          "internalType": "uint8",
          "name": "rarity",
          "type": "uint8"
        }
      ],
      "stateMutability": "view",
      "type": "function"
    },
    {
      "inputs": [
        {
          "internalType": "uint256",
          "name": "id",
          "type": "uint256"
        }
      ],
      "name": "getStatusById",
      "outputs": [
        {
          "internalType": "bool",
          "name": "isOpen",
          "type": "bool"
        }
      ],
      "stateMutability": "view",
      "type": "function"
    },
    {
      "inputs": [
        {
          "internalType": "uint8",
          "name": "rarity",
          "type": "uint8"
        }
      ],
      "name": "getTotalByRarity",
      "outputs": [
        {
          "internalType": "uint16",
          "name": "totalBox",
          "type": "uint16"
        }
      ],
      "stateMutability": "view",
      "type": "function"
    },
    {
      "inputs": [
        {
          "internalType": "uint8",
          "name": "rarity",
          "type": "uint8"
        }
      ],
      "name": "getMaxSupplyByRarity",
      "outputs": [
        {
          "internalType": "uint16",
          "name": "maxBox",
          "type": "uint16"
        }
      ],
      "stateMutability": "view",
      "type": "function"
    },
    {
      "inputs": [
        {
          "internalType": "address",
          "name": "user",
          "type": "address"
        }
      ],
      "name": "getOwnedTokenID",
      "outputs": [
        {
          "internalType": "uint256[]",
          "name": "",
          "type": "uint256[]"
        }
      ],
      "stateMutability": "view",
      "type": "function"
    }
  ],
  "bytecode": "0x60806040523480156200001157600080fd5b50600054610100900460ff166200002f5760005460ff161562000039565b62000039620000de565b620000a15760405162461bcd60e51b815260206004820152602e60248201527f496e697469616c697a61626c653a20636f6e747261637420697320616c72656160448201526d191e481a5b9a5d1a585b1a5e995960921b606482015260840160405180910390fd5b600054610100900460ff16158015620000c4576000805461ffff19166101011790555b8015620000d7576000805461ff00191690555b506200010b565b6000620000f630620000fc60201b620014971760201c565b15905090565b6001600160a01b03163b151590565b6133b5806200011b6000396000f3fe608060405234801561001057600080fd5b50600436106102485760003560e01c80634fdf0c421161013b578063a22cb465116100b8578063d53913931161007c578063d5391393146105a2578063d547741f146105b7578063e63ab1e9146105ca578063e985e9c5146105df578063edc9a4301461061b57600080fd5b8063a22cb465146104fe578063b88d4fde14610511578063be7cbe7514610524578063c87b56dd1461057c578063d204c45e1461058f57600080fd5b80638129fc1c116100ff5780638129fc1c146104cb5780638456cb59146104d357806391d14854146104db57806395d89b41146104ee578063a217fddf146104f657600080fd5b80634fdf0c42146104415780635c975abb146104545780636352211e1461045f5780636fe5befb1461047257806370a08231146104b857600080fd5b80632f2ff15d116101c95780633f4ba83a1161018d5780633f4ba83a146103ed57806342842e0e146103f557806342966c681461040857806345ba8a621461041b5780634f6ccce71461042e57600080fd5b80632f2ff15d1461035f5780632f745c591461037257806336568abe146103855780633c58809d146103985780633dd432c2146103ab57600080fd5b8063161334851161021057806316133485146102f057806318160ddd1461030357806322faba1d1461031557806323b872dd14610328578063248a9ca31461033b57600080fd5b806301ffc9a71461024d57806306fdde0314610275578063081812fc1461028a578063095ea7b3146102b55780631332f86e146102ca575b600080fd5b61026061025b366004612e99565b61063b565b60405190151581526020015b60405180910390f35b61027d61064c565b60405161026c919061303c565b61029d610298366004612e5f565b6106de565b6040516001600160a01b03909116815260200161026c565b6102c86102c3366004612cef565b61076b565b005b6102dd6102d8366004612ed1565b610881565b60405161ffff909116815260200161026c565b6102c86102fe366004612dd5565b6108c9565b6099545b60405190815260200161026c565b6102dd610323366004612d74565b61099c565b6102c8610336366004612bb5565b610b6d565b610307610349366004612e5f565b600090815261012d602052604090206001015490565b6102c861036d366004612e77565b610b9f565b610307610380366004612cef565b610bc6565b6102c8610393366004612e77565b610c5c565b6102dd6103a6366004612ed1565b610cda565b6102606103b9366004612e5f565b6000908152610194602090815260409182902082518084019093525460ff8082168452610100909104161515910181905290565b6102c8610d01565b6102c8610403366004612bb5565b610d25565b6102c8610416366004612e5f565b610d40565b6102dd610429366004612e5f565b610db7565b61030761043c366004612e5f565b610de6565b61030761044f366004612d18565b610e87565b60fb5460ff16610260565b61029d61046d366004612e5f565b610ff1565b61049f610480366004612e5f565b6101946020526000908152604090205460ff8082169161010090041682565b6040805160ff909316835290151560208301520161026c565b6103076104c6366004612b69565b611068565b6102c86110ef565b6102c86112b9565b6102606104e9366004612e77565b6112da565b61027d611306565b610307600081565b6102c861050c366004612c69565b611315565b6102c861051f366004612bf0565b611320565b61056a610532366004612e5f565b6000908152610194602090815260409182902082518084019093525460ff808216808552610100909204161515929091019190915290565b60405160ff909116815260200161026c565b61027d61058a366004612e5f565b611358565b61030761059d366004612ca3565b611363565b61030760008051602061333983398151915281565b6102c86105c5366004612e77565b6113b7565b61030760008051602061331983398151915281565b6102606105ed366004612b83565b6001600160a01b039182166000908152606a6020908152604080832093909416825291909152205460ff1690565b61062e610629366004612b69565b6113de565b60405161026c9190612ff8565b6000610646826114a6565b92915050565b60606065805461065b90613234565b80601f016020809104026020016040519081016040528092919081815260200182805461068790613234565b80156106d45780601f106106a9576101008083540402835291602001916106d4565b820191906000526020600020905b8154815290600101906020018083116106b757829003601f168201915b5050505050905090565b60006106e9826114cb565b61074f5760405162461bcd60e51b815260206004820152602c60248201527f4552433732313a20617070726f76656420717565727920666f72206e6f6e657860448201526b34b9ba32b73a103a37b5b2b760a11b60648201526084015b60405180910390fd5b506000908152606960205260409020546001600160a01b031690565b600061077682610ff1565b9050806001600160a01b0316836001600160a01b031614156107e45760405162461bcd60e51b815260206004820152602160248201527f4552433732313a20617070726f76616c20746f2063757272656e74206f776e656044820152603960f91b6064820152608401610746565b336001600160a01b0382161480610800575061080081336105ed565b6108725760405162461bcd60e51b815260206004820152603860248201527f4552433732313a20617070726f76652063616c6c6572206973206e6f74206f7760448201527f6e6572206e6f7220617070726f76656420666f7220616c6c00000000000000006064820152608401610746565b61087c83836114e8565b505050565b60006101938260ff16600381106108a857634e487b7160e01b600052603260045260246000fd5b601091828204019190066002029054906101000a900461ffff169050919050565b60006108d58133611556565b815161ffff16158015906108f257508151620186a061ffff909116105b61090e5760405162461bcd60e51b8152600401610746906130a1565b602082015161ffff16158015906109325750620186a0826001602002015161ffff16105b61094e5760405162461bcd60e51b8152600401610746906130a1565b604082015161ffff16158015906109725750620186a0826002602002015161ffff16105b61098e5760405162461bcd60e51b8152600401610746906130a1565b61087c6101928360036128eb565b60006000805160206133398339815191526109b78133611556565b60028560ff161115610a0b5760405162461bcd60e51b815260206004820152601a60248201527f537570706c79426f78733a2052617269747920696e76616c69640000000000006044820152606401610746565b6101928560ff1660038110610a3057634e487b7160e01b600052603260045260246000fd5b601091828204019190066002029054906101000a900461ffff1661ffff16846101938760ff1660038110610a7457634e487b7160e01b600052603260045260246000fd5b601091828204019190066002029054906101000a900461ffff16610a989190613172565b61ffff161115610aea5760405162461bcd60e51b815260206004820152601a60248201527f537570706c79426f78733a20416d6f756e7420696e76616c69640000000000006044820152606401610746565b60005b8461ffff168161ffff161015610b62576000610b0a888887610e87565b60408051808201825260ff808b1682526000602080840182815295825261019490529290922090518154935115156101000261ffff199094169216919091179190911790555080610b5a8161326f565b915050610aed565b509295945050505050565b610b78335b826115ba565b610b945760405162461bcd60e51b8152600401610746906130d6565b61087c8383836116a0565b600082815261012d6020526040902060010154610bbc8133611556565b61087c8383611847565b6000610bd183611068565b8210610c335760405162461bcd60e51b815260206004820152602b60248201527f455243373231456e756d657261626c653a206f776e657220696e646578206f7560448201526a74206f6620626f756e647360a81b6064820152608401610746565b506001600160a01b03919091166000908152609760209081526040808320938352929052205490565b6001600160a01b0381163314610ccc5760405162461bcd60e51b815260206004820152602f60248201527f416363657373436f6e74726f6c3a2063616e206f6e6c792072656e6f756e636560448201526e103937b632b9903337b91039b2b63360891b6064820152608401610746565b610cd682826118ce565b5050565b60006101928260ff16600381106108a857634e487b7160e01b600052603260045260246000fd5b600080516020613319833981519152610d1a8133611556565b610d22611936565b50565b61087c83838360405180602001604052806000815250611320565b610d4933610b72565b610dae5760405162461bcd60e51b815260206004820152603060248201527f4552433732314275726e61626c653a2063616c6c6572206973206e6f74206f7760448201526f1b995c881b9bdc88185c1c1c9bdd995960821b6064820152608401610746565b610d22816119c9565b6101928160038110610dc857600080fd5b60109182820401919006600202915054906101000a900461ffff1681565b6000610df160995490565b8210610e545760405162461bcd60e51b815260206004820152602c60248201527f455243373231456e756d657261626c653a20676c6f62616c20696e646578206f60448201526b7574206f6620626f756e647360a01b6064820152608401610746565b60998281548110610e7557634e487b7160e01b600052603260045260246000fd5b90600052602060002001549050919050565b6000600080516020613339833981519152610ea28133611556565b60028460ff161115610ef65760405162461bcd60e51b815260206004820152601a60248201527f537570706c79426f78733a2052617269747920696e76616c69640000000000006044820152606401610746565b60016101938560ff1660038110610f1d57634e487b7160e01b600052603260045260246000fd5b601091828204019190066002028282829054906101000a900461ffff16610f449190613172565b92506101000a81548161ffff021916908361ffff1602179055506000610f6a8685611363565b60408051808201825260ff8089168083526000602080850182815287835261019490915285822094518554915115156101000261ffff19909216941693909317929092179092559151929350916001600160a01b0389169184917f46ce522351d2a00dbe76f53dbb1da17c000ca99c40b23b64387b5df4b3f43bdb9190a495945050505050565b6000818152606760205260408120546001600160a01b0316806106465760405162461bcd60e51b815260206004820152602960248201527f4552433732313a206f776e657220717565727920666f72206e6f6e657869737460448201526832b73a103a37b5b2b760b91b6064820152608401610746565b60006001600160a01b0382166110d35760405162461bcd60e51b815260206004820152602a60248201527f4552433732313a2062616c616e636520717565727920666f7220746865207a65604482015269726f206164647265737360b01b6064820152608401610746565b506001600160a01b031660009081526068602052604090205490565b600054610100900460ff1661110a5760005460ff161561110e565b303b155b6111715760405162461bcd60e51b815260206004820152602e60248201527f496e697469616c697a61626c653a20636f6e747261637420697320616c72656160448201526d191e481a5b9a5d1a585b1a5e995960921b6064820152608401610746565b600054610100900460ff16158015611193576000805461ffff19166101011790555b6111e460405180604001604052806014815260200173084deee9ac2e6e8cae440a6eae0e0d8f24084def60631b815250604051806040016040528060038152602001622126a160e91b8152506119d2565b6111ec611a03565b6111f4611a03565b6111fc611a2c565b611204611a03565b61120c611a03565b611217600033611847565b61122f60008051602061331983398151915233611847565b61124760008051602061333983398151915233611847565b604080516060810182526000808252602082018190529181019190915261127390610193906003612981565b5060408051606081018252616fb881526144c060208201526107d0918101919091526112a4906101929060036128eb565b508015610d22576000805461ff001916905550565b6000805160206133198339815191526112d28133611556565b610d22611a5b565b600091825261012d602090815260408084206001600160a01b0393909316845291905290205460ff1690565b60606066805461065b90613234565b610cd6338383611ad6565b61132a33836115ba565b6113465760405162461bcd60e51b8152600401610746906130d6565b61135284848484611ba5565b50505050565b606061064682611bd8565b600060008051602061333983398151915261137e8133611556565b600061138a6101915490565b905061139b61019180546001019055565b6113a58582611d3a565b6113af8185611d54565b949350505050565b600082815261012d60205260409020600101546113d48133611556565b61087c83836118ce565b606060006113eb83611068565b67ffffffffffffffff81111561141157634e487b7160e01b600052604160045260246000fd5b60405190808252806020026020018201604052801561143a578160200160208202803683370190505b50905060005b8151811015611490576114538482610bc6565b82828151811061147357634e487b7160e01b600052603260045260246000fd5b60209081029190910101528061148881613291565b915050611440565b5092915050565b6001600160a01b03163b151590565b60006001600160e01b03198216637965db0b60e01b1480610646575061064682611ddf565b6000908152606760205260409020546001600160a01b0316151590565b600081815260696020526040902080546001600160a01b0319166001600160a01b038416908117909155819061151d82610ff1565b6001600160a01b03167f8c5be1e5ebec7d5bd14f71427d1e84f3dd0314c0f7b2291e5b200ac8c7c3b92560405160405180910390a45050565b61156082826112da565b610cd657611578816001600160a01b03166014611e04565b611583836020611e04565b604051602001611594929190612f46565b60408051601f198184030181529082905262461bcd60e51b82526107469160040161303c565b60006115c5826114cb565b6116265760405162461bcd60e51b815260206004820152602c60248201527f4552433732313a206f70657261746f7220717565727920666f72206e6f6e657860448201526b34b9ba32b73a103a37b5b2b760a11b6064820152608401610746565b600061163183610ff1565b9050806001600160a01b0316846001600160a01b0316148061166c5750836001600160a01b0316611661846106de565b6001600160a01b0316145b806113af57506001600160a01b038082166000908152606a602090815260408083209388168352929052205460ff166113af565b826001600160a01b03166116b382610ff1565b6001600160a01b0316146117175760405162461bcd60e51b815260206004820152602560248201527f4552433732313a207472616e736665722066726f6d20696e636f72726563742060448201526437bbb732b960d91b6064820152608401610746565b6001600160a01b0382166117795760405162461bcd60e51b8152602060048201526024808201527f4552433732313a207472616e7366657220746f20746865207a65726f206164646044820152637265737360e01b6064820152608401610746565b611784838383611fed565b61178f6000826114e8565b6001600160a01b03831660009081526068602052604081208054600192906117b89084906131da565b90915550506001600160a01b03821660009081526068602052604081208054600192906117e690849061318f565b909155505060008181526067602052604080822080546001600160a01b0319166001600160a01b0386811691821790925591518493918716917fddf252ad1be2c89b69c2b068fc378daa952ba7f163c4a11628f55a4df523b3ef91a4505050565b61185182826112da565b610cd657600082815261012d602090815260408083206001600160a01b03851684529091529020805460ff1916600117905561188a3390565b6001600160a01b0316816001600160a01b0316837f2f8788117e7eff1d82e926ec794901d17c78024a50270940304540a733656f0d60405160405180910390a45050565b6118d882826112da565b15610cd657600082815261012d602090815260408083206001600160a01b0385168085529252808320805460ff1916905551339285917ff6391f5c32d9c69d2a47ea670b442974b53935d1edc7fd64eb21e047a839171b9190a45050565b60fb5460ff1661197f5760405162461bcd60e51b815260206004820152601460248201527314185d5cd8589b194e881b9bdd081c185d5cd95960621b6044820152606401610746565b60fb805460ff191690557f5db9ee0a495bf2e6ff9c91a7834c1ba4fdd244a5e8aa4e537bd38aeae4b073aa335b6040516001600160a01b03909116815260200160405180910390a1565b610d228161203e565b600054610100900460ff166119f95760405162461bcd60e51b815260040161074690613127565b610cd6828261207e565b600054610100900460ff16611a2a5760405162461bcd60e51b815260040161074690613127565b565b600054610100900460ff16611a535760405162461bcd60e51b815260040161074690613127565b611a2a6120cc565b60fb5460ff1615611aa15760405162461bcd60e51b815260206004820152601060248201526f14185d5cd8589b194e881c185d5cd95960821b6044820152606401610746565b60fb805460ff191660011790557f62e78cea01bee320cd4e420270b5ea74000d11b0c9f74754ebdbfc544b05a2586119ac3390565b816001600160a01b0316836001600160a01b03161415611b385760405162461bcd60e51b815260206004820152601960248201527f4552433732313a20617070726f766520746f2063616c6c6572000000000000006044820152606401610746565b6001600160a01b038381166000818152606a6020908152604080832094871680845294825291829020805460ff191686151590811790915591519182527f17307eab39ab6107e8899845ad3d59bd9653f200f220920489ca2b5937696c31910160405180910390a3505050565b611bb08484846116a0565b611bbc848484846120ff565b6113525760405162461bcd60e51b81526004016107469061304f565b6060611be3826114cb565b611c495760405162461bcd60e51b815260206004820152603160248201527f45524337323155524953746f726167653a2055524920717565727920666f72206044820152703737b732bc34b9ba32b73a103a37b5b2b760791b6064820152608401610746565b600082815260c9602052604081208054611c6290613234565b80601f0160208091040260200160405190810160405280929190818152602001828054611c8e90613234565b8015611cdb5780601f10611cb057610100808354040283529160200191611cdb565b820191906000526020600020905b815481529060010190602001808311611cbe57829003601f168201915b505050505090506000611cec61220c565b9050805160001415611cff575092915050565b815115611d31578082604051602001611d19929190612f17565b60405160208183030381529060405292505050919050565b6113af8461222c565b610cd68282604051806020016040528060008152506122f6565b611d5d826114cb565b611dc05760405162461bcd60e51b815260206004820152602e60248201527f45524337323155524953746f726167653a2055524920736574206f66206e6f6e60448201526d32bc34b9ba32b73a103a37b5b2b760911b6064820152608401610746565b600082815260c960209081526040909120825161087c928401906129d6565b60006001600160e01b0319821663780e9d6360e01b1480610646575061064682612329565b60606000611e138360026131bb565b611e1e90600261318f565b67ffffffffffffffff811115611e4457634e487b7160e01b600052604160045260246000fd5b6040519080825280601f01601f191660200182016040528015611e6e576020820181803683370190505b509050600360fc1b81600081518110611e9757634e487b7160e01b600052603260045260246000fd5b60200101906001600160f81b031916908160001a905350600f60fb1b81600181518110611ed457634e487b7160e01b600052603260045260246000fd5b60200101906001600160f81b031916908160001a9053506000611ef88460026131bb565b611f0390600161318f565b90505b6001811115611f97576f181899199a1a9b1b9c1cb0b131b232b360811b85600f1660108110611f4557634e487b7160e01b600052603260045260246000fd5b1a60f81b828281518110611f6957634e487b7160e01b600052603260045260246000fd5b60200101906001600160f81b031916908160001a90535060049490941c93611f908161321d565b9050611f06565b508315611fe65760405162461bcd60e51b815260206004820181905260248201527f537472696e67733a20686578206c656e67746820696e73756666696369656e746044820152606401610746565b9392505050565b60fb5460ff16156120335760405162461bcd60e51b815260206004820152601060248201526f14185d5cd8589b194e881c185d5cd95960821b6044820152606401610746565b61087c838383612379565b61204781612431565b600081815260c960205260409020805461206090613234565b159050610d2257600081815260c960205260408120610d2291612a4a565b600054610100900460ff166120a55760405162461bcd60e51b815260040161074690613127565b81516120b89060659060208501906129d6565b50805161087c9060669060208401906129d6565b600054610100900460ff166120f35760405162461bcd60e51b815260040161074690613127565b60fb805460ff19169055565b60006001600160a01b0384163b1561220157604051630a85bd0160e11b81526001600160a01b0385169063150b7a0290612143903390899088908890600401612fbb565b602060405180830381600087803b15801561215d57600080fd5b505af192505050801561218d575060408051601f3d908101601f1916820190925261218a91810190612eb5565b60015b6121e7573d8080156121bb576040519150601f19603f3d011682016040523d82523d6000602084013e6121c0565b606091505b5080516121df5760405162461bcd60e51b81526004016107469061304f565b805181602001fd5b6001600160e01b031916630a85bd0160e11b1490506113af565b506001949350505050565b606060405180606001604052806027815260200161335960279139905090565b6060612237826114cb565b61229b5760405162461bcd60e51b815260206004820152602f60248201527f4552433732314d657461646174613a2055524920717565727920666f72206e6f60448201526e3732bc34b9ba32b73a103a37b5b2b760891b6064820152608401610746565b60006122a561220c565b905060008151116122c55760405180602001604052806000815250611fe6565b806122cf846124d8565b6040516020016122e0929190612f17565b6040516020818303038152906040529392505050565b61230083836125f2565b61230d60008484846120ff565b61087c5760405162461bcd60e51b81526004016107469061304f565b60006001600160e01b031982166380ac58cd60e01b148061235a57506001600160e01b03198216635b5e139f60e01b145b8061064657506301ffc9a760e01b6001600160e01b0319831614610646565b6001600160a01b0383166123d4576123cf81609980546000838152609a60205260408120829055600182018355919091527f72a152ddfb8e864297c917af52ea6c1c68aead0fee1a62673fcc7e0c94979d000155565b6123f7565b816001600160a01b0316836001600160a01b0316146123f7576123f78382612731565b6001600160a01b03821661240e5761087c816127ce565b826001600160a01b0316826001600160a01b03161461087c5761087c82826128a7565b600061243c82610ff1565b905061244a81600084611fed565b6124556000836114e8565b6001600160a01b038116600090815260686020526040812080546001929061247e9084906131da565b909155505060008281526067602052604080822080546001600160a01b0319169055518391906001600160a01b038416907fddf252ad1be2c89b69c2b068fc378daa952ba7f163c4a11628f55a4df523b3ef908390a45050565b6060816124fc5750506040805180820190915260018152600360fc1b602082015290565b8160005b8115612526578061251081613291565b915061251f9050600a836131a7565b9150612500565b60008167ffffffffffffffff81111561254f57634e487b7160e01b600052604160045260246000fd5b6040519080825280601f01601f191660200182016040528015612579576020820181803683370190505b5090505b84156113af5761258e6001836131da565b915061259b600a866132ac565b6125a690603061318f565b60f81b8183815181106125c957634e487b7160e01b600052603260045260246000fd5b60200101906001600160f81b031916908160001a9053506125eb600a866131a7565b945061257d565b6001600160a01b0382166126485760405162461bcd60e51b815260206004820181905260248201527f4552433732313a206d696e7420746f20746865207a65726f20616464726573736044820152606401610746565b612651816114cb565b1561269e5760405162461bcd60e51b815260206004820152601c60248201527f4552433732313a20746f6b656e20616c7265616479206d696e746564000000006044820152606401610746565b6126aa60008383611fed565b6001600160a01b03821660009081526068602052604081208054600192906126d390849061318f565b909155505060008181526067602052604080822080546001600160a01b0319166001600160a01b03861690811790915590518392907fddf252ad1be2c89b69c2b068fc378daa952ba7f163c4a11628f55a4df523b3ef908290a45050565b6000600161273e84611068565b61274891906131da565b60008381526098602052604090205490915080821461279b576001600160a01b03841660009081526097602090815260408083208584528252808320548484528184208190558352609890915290208190555b5060009182526098602090815260408084208490556001600160a01b039094168352609781528383209183525290812055565b6099546000906127e0906001906131da565b6000838152609a60205260408120546099805493945090928490811061281657634e487b7160e01b600052603260045260246000fd5b90600052602060002001549050806099838154811061284557634e487b7160e01b600052603260045260246000fd5b6000918252602080832090910192909255828152609a9091526040808220849055858252812055609980548061288b57634e487b7160e01b600052603160045260246000fd5b6001900381819060005260206000200160009055905550505050565b60006128b283611068565b6001600160a01b039093166000908152609760209081526040808320868452825280832085905593825260989052919091209190915550565b6001830191839082156129715791602002820160005b8382111561294157835183826101000a81548161ffff021916908361ffff1602179055509260200192600201602081600101049283019260010302612901565b801561296f5782816101000a81549061ffff0219169055600201602081600101049283019260010302612941565b505b5061297d929150612a80565b5090565b6001830191839082156129715791602002820160005b8382111561294157835183826101000a81548161ffff021916908360ff1602179055509260200192600201602081600101049283019260010302612997565b8280546129e290613234565b90600052602060002090601f016020900481019282612a045760008555612971565b82601f10612a1d57805160ff1916838001178555612971565b82800160010185558215612971579182015b82811115612971578251825591602001919060010190612a2f565b508054612a5690613234565b6000825580601f10612a66575050565b601f016020900490600052602060002090810190610d2291905b5b8082111561297d5760008155600101612a81565b600067ffffffffffffffff80841115612ab057612ab06132ec565b604051601f8501601f19908116603f01168101908282118183101715612ad857612ad86132ec565b81604052809350858152868686011115612af157600080fd5b858560208301376000602087830101525050509392505050565b80356001600160a01b0381168114612b2257600080fd5b919050565b600082601f830112612b37578081fd5b611fe683833560208501612a95565b803561ffff81168114612b2257600080fd5b803560ff81168114612b2257600080fd5b600060208284031215612b7a578081fd5b611fe682612b0b565b60008060408385031215612b95578081fd5b612b9e83612b0b565b9150612bac60208401612b0b565b90509250929050565b600080600060608486031215612bc9578081fd5b612bd284612b0b565b9250612be060208501612b0b565b9150604084013590509250925092565b60008060008060808587031215612c05578081fd5b612c0e85612b0b565b9350612c1c60208601612b0b565b925060408501359150606085013567ffffffffffffffff811115612c3e578182fd5b8501601f81018713612c4e578182fd5b612c5d87823560208401612a95565b91505092959194509250565b60008060408385031215612c7b578182fd5b612c8483612b0b565b915060208301358015158114612c98578182fd5b809150509250929050565b60008060408385031215612cb5578182fd5b612cbe83612b0b565b9150602083013567ffffffffffffffff811115612cd9578182fd5b612ce585828601612b27565b9150509250929050565b60008060408385031215612d01578182fd5b612d0a83612b0b565b946020939093013593505050565b600080600060608486031215612d2c578283fd5b612d3584612b0b565b9250612d4360208501612b58565b9150604084013567ffffffffffffffff811115612d5e578182fd5b612d6a86828701612b27565b9150509250925092565b60008060008060808587031215612d89578384fd5b612d9285612b0b565b9350612da060208601612b58565b9250612dae60408601612b46565b9150606085013567ffffffffffffffff811115612dc9578182fd5b612c5d87828801612b27565b600060608284031215612de6578081fd5b82601f830112612df4578081fd5b6040516060810181811067ffffffffffffffff82111715612e1757612e176132ec565b604052808360608101861015612e2b578384fd5b835b6003811015612e5457612e3f82612b46565b83526020928301929190910190600101612e2d565b509195945050505050565b600060208284031215612e70578081fd5b5035919050565b60008060408385031215612e89578182fd5b82359150612bac60208401612b0b565b600060208284031215612eaa578081fd5b8135611fe681613302565b600060208284031215612ec6578081fd5b8151611fe681613302565b600060208284031215612ee2578081fd5b611fe682612b58565b60008151808452612f038160208601602086016131f1565b601f01601f19169290920160200192915050565b60008351612f298184602088016131f1565b835190830190612f3d8183602088016131f1565b01949350505050565b7f416363657373436f6e74726f6c3a206163636f756e7420000000000000000000815260008351612f7e8160178501602088016131f1565b7001034b99036b4b9b9b4b733903937b6329607d1b6017918401918201528351612faf8160288401602088016131f1565b01602801949350505050565b6001600160a01b0385811682528416602082015260408101839052608060608201819052600090612fee90830184612eeb565b9695505050505050565b6020808252825182820181905260009190848201906040850190845b8181101561303057835183529284019291840191600101613014565b50909695505050505050565b602081526000611fe66020830184612eeb565b60208082526032908201527f4552433732313a207472616e7366657220746f206e6f6e20455243373231526560408201527131b2b4bb32b91034b6b83632b6b2b73a32b960711b606082015260800190565b6020808252818101527f537570706c79426f78733a204e657720737570706c7920746f6f206869676821604082015260600190565b60208082526031908201527f4552433732313a207472616e736665722063616c6c6572206973206e6f74206f6040820152701ddb995c881b9bdc88185c1c1c9bdd9959607a1b606082015260800190565b6020808252602b908201527f496e697469616c697a61626c653a20636f6e7472616374206973206e6f74206960408201526a6e697469616c697a696e6760a81b606082015260800190565b600061ffff808316818516808303821115612f3d57612f3d6132c0565b600082198211156131a2576131a26132c0565b500190565b6000826131b6576131b66132d6565b500490565b60008160001904831182151516156131d5576131d56132c0565b500290565b6000828210156131ec576131ec6132c0565b500390565b60005b8381101561320c5781810151838201526020016131f4565b838111156113525750506000910152565b60008161322c5761322c6132c0565b506000190190565b600181811c9082168061324857607f821691505b6020821081141561326957634e487b7160e01b600052602260045260246000fd5b50919050565b600061ffff80831681811415613287576132876132c0565b6001019392505050565b60006000198214156132a5576132a56132c0565b5060010190565b6000826132bb576132bb6132d6565b500690565b634e487b7160e01b600052601160045260246000fd5b634e487b7160e01b600052601260045260246000fd5b634e487b7160e01b600052604160045260246000fd5b6001600160e01b031981168114610d2257600080fdfe65d7a28e3265b37a6474929f336521b332c1681b933f6cb9f3376673440d862a9f2df0fed2c77648de5860a4cc508cd0818c85b8b8a1ab4ceeef8d981c8956a668747470733a2f2f6173736574732e61697a61776f726c642e636f6d2f626f776d61737465722fa264697066735822122092745d1f474415365c35a750abda12b18539b8e92a38e1470a12f6780a6a1dad64736f6c63430008040033",
  "immutableReferences": {},
  "source": "// SPDX-License-Identifier: MIT\npragma solidity ^0.8.4;\n\nimport \"@openzeppelin/contracts-upgradeable/token/ERC721/ERC721Upgradeable.sol\";\nimport \"@openzeppelin/contracts-upgradeable/token/ERC721/extensions/ERC721EnumerableUpgradeable.sol\";\nimport \"@openzeppelin/contracts-upgradeable/token/ERC721/extensions/ERC721URIStorageUpgradeable.sol\";\nimport \"@openzeppelin/contracts-upgradeable/security/PausableUpgradeable.sol\";\nimport \"@openzeppelin/contracts-upgradeable/access/AccessControlUpgradeable.sol\";\nimport \"@openzeppelin/contracts-upgradeable/token/ERC721/extensions/ERC721BurnableUpgradeable.sol\";\nimport \"@openzeppelin/contracts-upgradeable/proxy/utils/Initializable.sol\";\nimport \"@openzeppelin/contracts-upgradeable/utils/CountersUpgradeable.sol\";\n\n/// @custom:security-contact jack@aizaworld.com\ncontract SupplyBoxs is\n    Initializable,\n    ERC721Upgradeable,\n    ERC721EnumerableUpgradeable,\n    ERC721URIStorageUpgradeable,\n    PausableUpgradeable,\n    AccessControlUpgradeable,\n    ERC721BurnableUpgradeable\n{\n    using CountersUpgradeable for CountersUpgradeable.Counter;\n\n    bytes32 public constant PAUSER_ROLE = keccak256(\"PAUSER_ROLE\");\n    bytes32 public constant MINTER_ROLE = keccak256(\"MINTER_ROLE\");\n    CountersUpgradeable.Counter private _tokenIdCounter;\n\n    struct SupplyBoxExt {\n        uint8 rarity; // 2:UNCOMMON 3:LEGENDARY 4:EPIC\n        bool isOpen;\n    }\n\n    uint16[3] public MAX_BOX_SUPPLY;\n\n    uint16[3] private rarityCounter;\n    mapping(uint256 => SupplyBoxExt) public tokensInfoExt;\n\n    /// Events\n    event NewSupplyBox(\n        uint256 indexed tokenID,\n        address indexed receiver,\n        uint8 indexed rarity\n    );\n\n    /// @custom:oz-upgrades-unsafe-allow constructor\n    constructor() initializer {}\n\n    function initialize() public initializer {\n        __ERC721_init(\"BowMaster Supply Box\", \"BMB\");\n        __ERC721Enumerable_init();\n        __ERC721URIStorage_init();\n        __Pausable_init();\n        __AccessControl_init();\n        __ERC721Burnable_init();\n\n        _grantRole(DEFAULT_ADMIN_ROLE, msg.sender);\n        _grantRole(PAUSER_ROLE, msg.sender);\n        _grantRole(MINTER_ROLE, msg.sender);\n\n        rarityCounter = [0, 0, 0];\n        MAX_BOX_SUPPLY = [uint16(28600), uint16(17600), uint16(2000)];\n    }\n\n    function _baseURI() internal pure override returns (string memory) {\n        return \"https://assets.aizaworld.com/bowmaster/\";\n    }\n\n    function pause() public onlyRole(PAUSER_ROLE) {\n        _pause();\n    }\n\n    function unpause() public onlyRole(PAUSER_ROLE) {\n        _unpause();\n    }\n\n    function mintBatch(\n        address receiver,\n        uint8 rarity,\n        uint16 mintAmount,\n        string memory uri\n    ) public onlyRole(MINTER_ROLE) returns (uint16) {\n        require(rarity >= 0 && rarity <= 2, \"SupplyBoxs: Rarity invalid\");\n        require(\n            rarityCounter[rarity] + mintAmount <= MAX_BOX_SUPPLY[rarity],\n            \"SupplyBoxs: Amount invalid\"\n        );\n\n        for (uint16 i = 0; i < mintAmount; i++) {\n            uint256 mintTokenID = mintWithRarity(receiver, rarity, uri);\n\n            tokensInfoExt[mintTokenID] = SupplyBoxExt(rarity, false);\n        }\n\n        return mintAmount;\n    }\n\n    function mintWithRarity(\n        address receiver,\n        uint8 rarity,\n        string memory uri\n    ) public onlyRole(MINTER_ROLE) returns (uint256) {\n        require(rarity >= 0 && rarity <= 2, \"SupplyBoxs: Rarity invalid\");\n\n        rarityCounter[rarity] += 1;\n        uint256 mintedTokenID = safeMint(receiver, uri);\n        tokensInfoExt[mintedTokenID] = SupplyBoxExt(rarity, false);\n\n        emit NewSupplyBox(mintedTokenID, receiver, rarity);\n\n        return mintedTokenID;\n    }\n\n    function safeMint(address to, string memory uri)\n        public\n        onlyRole(MINTER_ROLE)\n        returns (uint256)\n    {\n        uint256 tokenId = _tokenIdCounter.current();\n        _tokenIdCounter.increment();\n        _safeMint(to, tokenId);\n        _setTokenURI(tokenId, uri);\n        return tokenId;\n    }\n\n    function updateBoxLimit(uint16[3] memory _newMaxSupplies)\n        public\n        onlyRole(DEFAULT_ADMIN_ROLE)\n    {\n        require(\n            _newMaxSupplies[0] > 0 && _newMaxSupplies[0] < 100000,\n            \"SupplyBoxs: New supply too high!\"\n        );\n\n        require(\n            _newMaxSupplies[1] > 0 && _newMaxSupplies[1] < 100000,\n            \"SupplyBoxs: New supply too high!\"\n        );\n\n        require(\n            _newMaxSupplies[2] > 0 && _newMaxSupplies[2] < 100000,\n            \"SupplyBoxs: New supply too high!\"\n        );\n\n        MAX_BOX_SUPPLY = _newMaxSupplies;\n    }\n\n    function _beforeTokenTransfer(\n        address from,\n        address to,\n        uint256 tokenId\n    )\n        internal\n        override(ERC721Upgradeable, ERC721EnumerableUpgradeable)\n        whenNotPaused\n    {\n        super._beforeTokenTransfer(from, to, tokenId);\n    }\n\n    // The following functions are overrides required by Solidity.\n    function _burn(uint256 tokenId)\n        internal\n        override(ERC721Upgradeable, ERC721URIStorageUpgradeable)\n    {\n        // TODO: Delete mapping\n\n        super._burn(tokenId);\n    }\n\n    function tokenURI(uint256 tokenId)\n        public\n        view\n        override(ERC721Upgradeable, ERC721URIStorageUpgradeable)\n        returns (string memory)\n    {\n        return super.tokenURI(tokenId);\n    }\n\n    function supportsInterface(bytes4 interfaceId)\n        public\n        view\n        override(\n            ERC721Upgradeable,\n            ERC721EnumerableUpgradeable,\n            AccessControlUpgradeable\n        )\n        returns (bool)\n    {\n        return super.supportsInterface(interfaceId);\n    }\n\n    function getRarityById(uint256 id) public view returns (uint8 rarity) {\n        SupplyBoxExt memory s = tokensInfoExt[id];\n        return (s.rarity);\n    }\n\n    function getStatusById(uint256 id) public view returns (bool isOpen) {\n        SupplyBoxExt memory s = tokensInfoExt[id];\n        return (s.isOpen);\n    }\n\n    function getTotalByRarity(uint8 rarity)\n        public\n        view\n        returns (uint16 totalBox)\n    {\n        return (rarityCounter[rarity]);\n    }\n\n    function getMaxSupplyByRarity(uint8 rarity)\n        public\n        view\n        returns (uint16 maxBox)\n    {\n        return (MAX_BOX_SUPPLY[rarity]);\n    }\n\n    function getOwnedTokenID(address user)\n        public\n        view\n        returns (uint256[] memory)\n    {\n        uint256[] memory tokenList = new uint256[](balanceOf(user));\n        for (uint256 i = 0; i < tokenList.length; i++) {\n            tokenList[i] = tokenOfOwnerByIndex(user, i);\n        }\n\n        // TODO: return extra info\n        return tokenList;\n    }\n}\n",
  "sourcePath": "/Users/jacknguyen/Desktop/tdu-git/aiza-contracts/contracts/SupplyBoxs.sol",
  "compiler": {
    "name": "solc",
    "version": "0.8.4+commit.c7e474f2.Emscripten.clang"
  },
  "schemaVersion": "3.4.6",
  "updatedAt": "2022-04-10T11:27:05.058Z",
  "devdoc": {
    "custom:security-contact": "jack@aizaworld.com",
    "kind": "dev",
    "methods": {
      "approve(address,uint256)": {
        "details": "See {IERC721-approve}."
      },
      "balanceOf(address)": {
        "details": "See {IERC721-balanceOf}."
      },
      "burn(uint256)": {
        "details": "Burns `tokenId`. See {ERC721-_burn}. Requirements: - The caller must own `tokenId` or be an approved operator."
      },
      "constructor": {
        "custom:oz-upgrades-unsafe-allow": "constructor"
      },
      "getApproved(uint256)": {
        "details": "See {IERC721-getApproved}."
      },
      "getRoleAdmin(bytes32)": {
        "details": "Returns the admin role that controls `role`. See {grantRole} and {revokeRole}. To change a role's admin, use {_setRoleAdmin}."
      },
      "grantRole(bytes32,address)": {
        "details": "Grants `role` to `account`. If `account` had not been already granted `role`, emits a {RoleGranted} event. Requirements: - the caller must have ``role``'s admin role."
      },
      "hasRole(bytes32,address)": {
        "details": "Returns `true` if `account` has been granted `role`."
      },
      "isApprovedForAll(address,address)": {
        "details": "See {IERC721-isApprovedForAll}."
      },
      "name()": {
        "details": "See {IERC721Metadata-name}."
      },
      "ownerOf(uint256)": {
        "details": "See {IERC721-ownerOf}."
      },
      "paused()": {
        "details": "Returns true if the contract is paused, and false otherwise."
      },
      "renounceRole(bytes32,address)": {
        "details": "Revokes `role` from the calling account. Roles are often managed via {grantRole} and {revokeRole}: this function's purpose is to provide a mechanism for accounts to lose their privileges if they are compromised (such as when a trusted device is misplaced). If the calling account had been revoked `role`, emits a {RoleRevoked} event. Requirements: - the caller must be `account`."
      },
      "revokeRole(bytes32,address)": {
        "details": "Revokes `role` from `account`. If `account` had been granted `role`, emits a {RoleRevoked} event. Requirements: - the caller must have ``role``'s admin role."
      },
      "safeTransferFrom(address,address,uint256)": {
        "details": "See {IERC721-safeTransferFrom}."
      },
      "safeTransferFrom(address,address,uint256,bytes)": {
        "details": "See {IERC721-safeTransferFrom}."
      },
      "setApprovalForAll(address,bool)": {
        "details": "See {IERC721-setApprovalForAll}."
      },
      "symbol()": {
        "details": "See {IERC721Metadata-symbol}."
      },
      "tokenByIndex(uint256)": {
        "details": "See {IERC721Enumerable-tokenByIndex}."
      },
      "tokenOfOwnerByIndex(address,uint256)": {
        "details": "See {IERC721Enumerable-tokenOfOwnerByIndex}."
      },
      "totalSupply()": {
        "details": "See {IERC721Enumerable-totalSupply}."
      },
      "transferFrom(address,address,uint256)": {
        "details": "See {IERC721-transferFrom}."
      }
    },
    "version": 1
  },
  "userdoc": {
    "events": {
      "NewSupplyBox(uint256,address,uint8)": {
        "notice": "Events"
      }
    },
    "kind": "user",
    "methods": {},
    "version": 1
  }
}